{
	"src/VotingPower.sol": {
		"VotingPower": {
			"abi": [
				{
					"inputs": [
						{
							"internalType": "address[]",
							"name": "_allowedToVote",
							"type": "address[]"
						},
						{
							"internalType": "uint256",
							"name": "_neededVoteToAllow",
							"type": "uint256"
						},
						{
							"internalType": "address",
							"name": "_fakeWorldCoin",
							"type": "address"
						},
						{
							"internalType": "string",
							"name": "_country",
							"type": "string"
						}
					],
					"stateMutability": "nonpayable",
					"type": "constructor"
				},
				{
					"inputs": [
						{
							"internalType": "string",
							"name": "_biometricalData",
							"type": "string"
						}
					],
					"name": "allowed",
					"outputs": [
						{
							"internalType": "bool",
							"name": "",
							"type": "bool"
						}
					],
					"stateMutability": "nonpayable",
					"type": "function"
				},
				{
					"inputs": [
						{
							"internalType": "address",
							"name": "",
							"type": "address"
						}
					],
					"name": "allowedToVote",
					"outputs": [
						{
							"internalType": "bool",
							"name": "",
							"type": "bool"
						}
					],
					"stateMutability": "view",
					"type": "function"
				},
				{
					"inputs": [
						{
							"internalType": "address",
							"name": "_voterToCheck",
							"type": "address"
						},
						{
							"internalType": "address",
							"name": "_requirementWallet",
							"type": "address"
						}
					],
					"name": "alreadyVoted",
					"outputs": [
						{
							"internalType": "bool",
							"name": "",
							"type": "bool"
						}
					],
					"stateMutability": "view",
					"type": "function"
				},
				{
					"inputs": [
						{
							"internalType": "address",
							"name": "_requiredUser",
							"type": "address"
						},
						{
							"internalType": "address",
							"name": "_voterToCheck",
							"type": "address"
						}
					],
					"name": "checkAlreadyVoted",
					"outputs": [
						{
							"internalType": "bool",
							"name": "",
							"type": "bool"
						}
					],
					"stateMutability": "nonpayable",
					"type": "function"
				},
				{
					"inputs": [],
					"name": "fakeWorldCoin",
					"outputs": [
						{
							"internalType": "contract IFakeWorldCoin",
							"name": "",
							"type": "address"
						}
					],
					"stateMutability": "view",
					"type": "function"
				},
				{
					"inputs": [],
					"name": "getAllRequirementsList",
					"outputs": [
						{
							"internalType": "address[]",
							"name": "",
							"type": "address[]"
						}
					],
					"stateMutability": "view",
					"type": "function"
				},
				{
					"inputs": [
						{
							"internalType": "address",
							"name": "_toCheck",
							"type": "address"
						}
					],
					"name": "getRequirements",
					"outputs": [
						{
							"components": [
								{
									"internalType": "string",
									"name": "videoUrl",
									"type": "string"
								},
								{
									"internalType": "bool",
									"name": "subimted",
									"type": "bool"
								},
								{
									"internalType": "string[]",
									"name": "countries",
									"type": "string[]"
								}
							],
							"internalType": "struct SubmitRequirement",
							"name": "",
							"type": "tuple"
						}
					],
					"stateMutability": "view",
					"type": "function"
				},
				{
					"inputs": [
						{
							"internalType": "address",
							"name": "_toCheck",
							"type": "address"
						}
					],
					"name": "getRequirementsVotes",
					"outputs": [
						{
							"components": [
								{
									"internalType": "address",
									"name": "votedBy",
									"type": "address"
								},
								{
									"internalType": "bool",
									"name": "vote",
									"type": "bool"
								}
							],
							"internalType": "struct Vote[]",
							"name": "",
							"type": "tuple[]"
						}
					],
					"stateMutability": "view",
					"type": "function"
				},
				{
					"inputs": [],
					"name": "neededVoteToAllow",
					"outputs": [
						{
							"internalType": "uint256",
							"name": "",
							"type": "uint256"
						}
					],
					"stateMutability": "view",
					"type": "function"
				},
				{
					"inputs": [
						{
							"internalType": "address",
							"name": "",
							"type": "address"
						}
					],
					"name": "requirements",
					"outputs": [
						{
							"internalType": "string",
							"name": "videoUrl",
							"type": "string"
						},
						{
							"internalType": "bool",
							"name": "subimted",
							"type": "bool"
						}
					],
					"stateMutability": "view",
					"type": "function"
				},
				{
					"inputs": [
						{
							"internalType": "address",
							"name": "",
							"type": "address"
						},
						{
							"internalType": "uint256",
							"name": "",
							"type": "uint256"
						}
					],
					"name": "requirementsVoted",
					"outputs": [
						{
							"internalType": "address",
							"name": "votedBy",
							"type": "address"
						},
						{
							"internalType": "bool",
							"name": "vote",
							"type": "bool"
						}
					],
					"stateMutability": "view",
					"type": "function"
				},
				{
					"inputs": [
						{
							"internalType": "address",
							"name": "_fromRequirement",
							"type": "address"
						},
						{
							"components": [
								{
									"internalType": "string",
									"name": "videoUrl",
									"type": "string"
								},
								{
									"internalType": "bool",
									"name": "subimted",
									"type": "bool"
								},
								{
									"internalType": "string[]",
									"name": "countries",
									"type": "string[]"
								}
							],
							"internalType": "struct SubmitRequirement",
							"name": "_submitRequirement",
							"type": "tuple"
						}
					],
					"name": "submitRequirement",
					"outputs": [],
					"stateMutability": "nonpayable",
					"type": "function"
				},
				{
					"inputs": [
						{
							"internalType": "address",
							"name": "_voteFrom",
							"type": "address"
						},
						{
							"internalType": "address",
							"name": "_addressToVote",
							"type": "address"
						},
						{
							"internalType": "bool",
							"name": "_vote",
							"type": "bool"
						}
					],
					"name": "vote",
					"outputs": [],
					"stateMutability": "nonpayable",
					"type": "function"
				}
			],
			"devdoc": {
				"kind": "dev",
				"methods": {},
				"version": 1
			},
			"evm": {
				"assembly": "    /* \"src/VotingPower.sol\":758:4102  contract VotingPower {... */\n  mstore(0x40, 0x80)\n    /* \"src/VotingPower.sol\":1096:1558  constructor(... */\n  callvalue\n  dup1\n  iszero\n  tag_1\n  jumpi\n  0x00\n  dup1\n  revert\ntag_1:\n  pop\n  mload(0x40)\n  sub(codesize, bytecodeSize)\n  dup1\n  bytecodeSize\n  dup4\n  codecopy\n  dup2\n  dup2\n  add\n  0x40\n  mstore\n  dup2\n  add\n  swap1\n  tag_2\n  swap2\n  swap1\n  tag_3\n  jump\t// in\ntag_2:\n    /* \"src/VotingPower.sol\":1270:1279  uint256 i */\n  0x00\n    /* \"src/VotingPower.sol\":1265:1420  for (uint256 i = 0; i < _allowedToVote.length; i++) {... */\ntag_6:\n    /* \"src/VotingPower.sol\":1289:1303  _allowedToVote */\n  dup5\n    /* \"src/VotingPower.sol\":1289:1310  _allowedToVote.length */\n  mload\n    /* \"src/VotingPower.sol\":1285:1286  i */\n  dup2\n    /* \"src/VotingPower.sol\":1285:1310  i < _allowedToVote.length */\n  lt\n    /* \"src/VotingPower.sol\":1265:1420  for (uint256 i = 0; i < _allowedToVote.length; i++) {... */\n  iszero\n  tag_7\n  jumpi\n    /* \"src/VotingPower.sol\":1331:1346  address allowed */\n  0x00\n    /* \"src/VotingPower.sol\":1349:1363  _allowedToVote */\n  dup6\n    /* \"src/VotingPower.sol\":1364:1365  i */\n  dup3\n    /* \"src/VotingPower.sol\":1349:1366  _allowedToVote[i] */\n  dup2\n  mload\n  dup2\n  lt\n  tag_9\n  jumpi\n  tag_10\n  tag_11\n  jump\t// in\ntag_10:\ntag_9:\n  0x20\n  mul\n  0x20\n  add\n  add\n  mload\n    /* \"src/VotingPower.sol\":1331:1366  address allowed = _allowedToVote[i] */\n  swap1\n  pop\n    /* \"src/VotingPower.sol\":1405:1409  true */\n  0x01\n    /* \"src/VotingPower.sol\":1380:1393  allowedToVote */\n  0x00\n    /* \"src/VotingPower.sol\":1380:1402  allowedToVote[allowed] */\n  dup1\n    /* \"src/VotingPower.sol\":1394:1401  allowed */\n  dup4\n    /* \"src/VotingPower.sol\":1380:1402  allowedToVote[allowed] */\n  0xffffffffffffffffffffffffffffffffffffffff\n  and\n  0xffffffffffffffffffffffffffffffffffffffff\n  and\n  dup2\n  mstore\n  0x20\n  add\n  swap1\n  dup2\n  mstore\n  0x20\n  add\n  0x00\n  keccak256\n  0x00\n    /* \"src/VotingPower.sol\":1380:1409  allowedToVote[allowed] = true */\n  0x0100\n  exp\n  dup2\n  sload\n  dup2\n  0xff\n  mul\n  not\n  and\n  swap1\n  dup4\n  iszero\n  iszero\n  mul\n  or\n  swap1\n  sstore\n  pop\n    /* \"src/VotingPower.sol\":1317:1420  {... */\n  pop\n    /* \"src/VotingPower.sol\":1312:1315  i++ */\n  dup1\n  dup1\n  tag_12\n  swap1\n  tag_13\n  jump\t// in\ntag_12:\n  swap2\n  pop\n  pop\n    /* \"src/VotingPower.sol\":1265:1420  for (uint256 i = 0; i < _allowedToVote.length; i++) {... */\n  jump(tag_6)\ntag_7:\n  pop\n    /* \"src/VotingPower.sol\":1449:1467  _neededVoteToAllow */\n  dup3\n    /* \"src/VotingPower.sol\":1429:1446  neededVoteToAllow */\n  0x04\n    /* \"src/VotingPower.sol\":1429:1467  neededVoteToAllow = _neededVoteToAllow */\n  dup2\n  swap1\n  sstore\n  pop\n    /* \"src/VotingPower.sol\":1508:1522  _fakeWorldCoin */\n  dup2\n    /* \"src/VotingPower.sol\":1477:1490  fakeWorldCoin */\n  0x05\n  0x00\n    /* \"src/VotingPower.sol\":1477:1523  fakeWorldCoin = IFakeWorldCoin(_fakeWorldCoin) */\n  0x0100\n  exp\n  dup2\n  sload\n  dup2\n  0xffffffffffffffffffffffffffffffffffffffff\n  mul\n  not\n  and\n  swap1\n  dup4\n  0xffffffffffffffffffffffffffffffffffffffff\n  and\n  mul\n  or\n  swap1\n  sstore\n  pop\n    /* \"src/VotingPower.sol\":1543:1551  _country */\n  dup1\n    /* \"src/VotingPower.sol\":1533:1540  country */\n  0x06\n    /* \"src/VotingPower.sol\":1533:1551  country = _country */\n  swap1\n  dup2\n  tag_14\n  swap2\n  swap1\n  tag_15\n  jump\t// in\ntag_14:\n  pop\n    /* \"src/VotingPower.sol\":1096:1558  constructor(... */\n  pop\n  pop\n  pop\n  pop\n    /* \"src/VotingPower.sol\":758:4102  contract VotingPower {... */\n  jump(tag_16)\n    /* \"#utility.yul\":7:82   */\ntag_17:\n    /* \"#utility.yul\":40:46   */\n  0x00\n    /* \"#utility.yul\":73:75   */\n  0x40\n    /* \"#utility.yul\":67:76   */\n  mload\n    /* \"#utility.yul\":57:76   */\n  swap1\n  pop\n    /* \"#utility.yul\":7:82   */\n  swap1\n  jump\t// out\n    /* \"#utility.yul\":88:205   */\ntag_18:\n    /* \"#utility.yul\":197:198   */\n  0x00\n    /* \"#utility.yul\":194:195   */\n  dup1\n    /* \"#utility.yul\":187:199   */\n  revert\n    /* \"#utility.yul\":211:328   */\ntag_19:\n    /* \"#utility.yul\":320:321   */\n  0x00\n    /* \"#utility.yul\":317:318   */\n  dup1\n    /* \"#utility.yul\":310:322   */\n  revert\n    /* \"#utility.yul\":334:451   */\ntag_20:\n    /* \"#utility.yul\":443:444   */\n  0x00\n    /* \"#utility.yul\":440:441   */\n  dup1\n    /* \"#utility.yul\":433:445   */\n  revert\n    /* \"#utility.yul\":457:559   */\ntag_21:\n    /* \"#utility.yul\":498:504   */\n  0x00\n    /* \"#utility.yul\":549:551   */\n  0x1f\n    /* \"#utility.yul\":545:552   */\n  not\n    /* \"#utility.yul\":540:542   */\n  0x1f\n    /* \"#utility.yul\":533:538   */\n  dup4\n    /* \"#utility.yul\":529:543   */\n  add\n    /* \"#utility.yul\":525:553   */\n  and\n    /* \"#utility.yul\":515:553   */\n  swap1\n  pop\n    /* \"#utility.yul\":457:559   */\n  swap2\n  swap1\n  pop\n  jump\t// out\n    /* \"#utility.yul\":565:745   */\ntag_22:\n    /* \"#utility.yul\":613:690   */\n  0x4e487b7100000000000000000000000000000000000000000000000000000000\n    /* \"#utility.yul\":610:611   */\n  0x00\n    /* \"#utility.yul\":603:691   */\n  mstore\n    /* \"#utility.yul\":710:714   */\n  0x41\n    /* \"#utility.yul\":707:708   */\n  0x04\n    /* \"#utility.yul\":700:715   */\n  mstore\n    /* \"#utility.yul\":734:738   */\n  0x24\n    /* \"#utility.yul\":731:732   */\n  0x00\n    /* \"#utility.yul\":724:739   */\n  revert\n    /* \"#utility.yul\":751:1032   */\ntag_23:\n    /* \"#utility.yul\":834:861   */\n  tag_68\n    /* \"#utility.yul\":856:860   */\n  dup3\n    /* \"#utility.yul\":834:861   */\n  tag_21\n  jump\t// in\ntag_68:\n    /* \"#utility.yul\":826:832   */\n  dup2\n    /* \"#utility.yul\":822:862   */\n  add\n    /* \"#utility.yul\":964:970   */\n  dup2\n    /* \"#utility.yul\":952:962   */\n  dup2\n    /* \"#utility.yul\":949:971   */\n  lt\n    /* \"#utility.yul\":928:946   */\n  0xffffffffffffffff\n    /* \"#utility.yul\":916:926   */\n  dup3\n    /* \"#utility.yul\":913:947   */\n  gt\n    /* \"#utility.yul\":910:972   */\n  or\n    /* \"#utility.yul\":907:995   */\n  iszero\n  tag_69\n  jumpi\n    /* \"#utility.yul\":975:993   */\n  tag_70\n  tag_22\n  jump\t// in\ntag_70:\n    /* \"#utility.yul\":907:995   */\ntag_69:\n    /* \"#utility.yul\":1015:1025   */\n  dup1\n    /* \"#utility.yul\":1011:1013   */\n  0x40\n    /* \"#utility.yul\":1004:1026   */\n  mstore\n    /* \"#utility.yul\":794:1032   */\n  pop\n    /* \"#utility.yul\":751:1032   */\n  pop\n  pop\n  jump\t// out\n    /* \"#utility.yul\":1038:1167   */\ntag_24:\n    /* \"#utility.yul\":1072:1078   */\n  0x00\n    /* \"#utility.yul\":1099:1119   */\n  tag_72\n  tag_17\n  jump\t// in\ntag_72:\n    /* \"#utility.yul\":1089:1119   */\n  swap1\n  pop\n    /* \"#utility.yul\":1128:1161   */\n  tag_73\n    /* \"#utility.yul\":1156:1160   */\n  dup3\n    /* \"#utility.yul\":1148:1154   */\n  dup3\n    /* \"#utility.yul\":1128:1161   */\n  tag_23\n  jump\t// in\ntag_73:\n    /* \"#utility.yul\":1038:1167   */\n  swap2\n  swap1\n  pop\n  jump\t// out\n    /* \"#utility.yul\":1173:1484   */\ntag_25:\n    /* \"#utility.yul\":1250:1254   */\n  0x00\n    /* \"#utility.yul\":1340:1358   */\n  0xffffffffffffffff\n    /* \"#utility.yul\":1332:1338   */\n  dup3\n    /* \"#utility.yul\":1329:1359   */\n  gt\n    /* \"#utility.yul\":1326:1382   */\n  iszero\n  tag_75\n  jumpi\n    /* \"#utility.yul\":1362:1380   */\n  tag_76\n  tag_22\n  jump\t// in\ntag_76:\n    /* \"#utility.yul\":1326:1382   */\ntag_75:\n    /* \"#utility.yul\":1412:1416   */\n  0x20\n    /* \"#utility.yul\":1404:1410   */\n  dup3\n    /* \"#utility.yul\":1400:1417   */\n  mul\n    /* \"#utility.yul\":1392:1417   */\n  swap1\n  pop\n    /* \"#utility.yul\":1472:1476   */\n  0x20\n    /* \"#utility.yul\":1466:1470   */\n  dup2\n    /* \"#utility.yul\":1462:1477   */\n  add\n    /* \"#utility.yul\":1454:1477   */\n  swap1\n  pop\n    /* \"#utility.yul\":1173:1484   */\n  swap2\n  swap1\n  pop\n  jump\t// out\n    /* \"#utility.yul\":1490:1607   */\ntag_26:\n    /* \"#utility.yul\":1599:1600   */\n  0x00\n    /* \"#utility.yul\":1596:1597   */\n  dup1\n    /* \"#utility.yul\":1589:1601   */\n  revert\n    /* \"#utility.yul\":1613:1739   */\ntag_27:\n    /* \"#utility.yul\":1650:1657   */\n  0x00\n    /* \"#utility.yul\":1690:1732   */\n  0xffffffffffffffffffffffffffffffffffffffff\n    /* \"#utility.yul\":1683:1688   */\n  dup3\n    /* \"#utility.yul\":1679:1733   */\n  and\n    /* \"#utility.yul\":1668:1733   */\n  swap1\n  pop\n    /* \"#utility.yul\":1613:1739   */\n  swap2\n  swap1\n  pop\n  jump\t// out\n    /* \"#utility.yul\":1745:1841   */\ntag_28:\n    /* \"#utility.yul\":1782:1789   */\n  0x00\n    /* \"#utility.yul\":1811:1835   */\n  tag_80\n    /* \"#utility.yul\":1829:1834   */\n  dup3\n    /* \"#utility.yul\":1811:1835   */\n  tag_27\n  jump\t// in\ntag_80:\n    /* \"#utility.yul\":1800:1835   */\n  swap1\n  pop\n    /* \"#utility.yul\":1745:1841   */\n  swap2\n  swap1\n  pop\n  jump\t// out\n    /* \"#utility.yul\":1847:1969   */\ntag_29:\n    /* \"#utility.yul\":1920:1944   */\n  tag_82\n    /* \"#utility.yul\":1938:1943   */\n  dup2\n    /* \"#utility.yul\":1920:1944   */\n  tag_28\n  jump\t// in\ntag_82:\n    /* \"#utility.yul\":1913:1918   */\n  dup2\n    /* \"#utility.yul\":1910:1945   */\n  eq\n    /* \"#utility.yul\":1900:1963   */\n  tag_83\n  jumpi\n    /* \"#utility.yul\":1959:1960   */\n  0x00\n    /* \"#utility.yul\":1956:1957   */\n  dup1\n    /* \"#utility.yul\":1949:1961   */\n  revert\n    /* \"#utility.yul\":1900:1963   */\ntag_83:\n    /* \"#utility.yul\":1847:1969   */\n  pop\n  jump\t// out\n    /* \"#utility.yul\":1975:2118   */\ntag_30:\n    /* \"#utility.yul\":2032:2037   */\n  0x00\n    /* \"#utility.yul\":2063:2069   */\n  dup2\n    /* \"#utility.yul\":2057:2070   */\n  mload\n    /* \"#utility.yul\":2048:2070   */\n  swap1\n  pop\n    /* \"#utility.yul\":2079:2112   */\n  tag_85\n    /* \"#utility.yul\":2106:2111   */\n  dup2\n    /* \"#utility.yul\":2079:2112   */\n  tag_29\n  jump\t// in\ntag_85:\n    /* \"#utility.yul\":1975:2118   */\n  swap3\n  swap2\n  pop\n  pop\n  jump\t// out\n    /* \"#utility.yul\":2141:2873   */\ntag_31:\n    /* \"#utility.yul\":2248:2253   */\n  0x00\n    /* \"#utility.yul\":2273:2354   */\n  tag_87\n    /* \"#utility.yul\":2289:2353   */\n  tag_88\n    /* \"#utility.yul\":2346:2352   */\n  dup5\n    /* \"#utility.yul\":2289:2353   */\n  tag_25\n  jump\t// in\ntag_88:\n    /* \"#utility.yul\":2273:2354   */\n  tag_24\n  jump\t// in\ntag_87:\n    /* \"#utility.yul\":2264:2354   */\n  swap1\n  pop\n    /* \"#utility.yul\":2374:2379   */\n  dup1\n    /* \"#utility.yul\":2403:2409   */\n  dup4\n    /* \"#utility.yul\":2396:2401   */\n  dup3\n    /* \"#utility.yul\":2389:2410   */\n  mstore\n    /* \"#utility.yul\":2437:2441   */\n  0x20\n    /* \"#utility.yul\":2430:2435   */\n  dup3\n    /* \"#utility.yul\":2426:2442   */\n  add\n    /* \"#utility.yul\":2419:2442   */\n  swap1\n  pop\n    /* \"#utility.yul\":2490:2494   */\n  0x20\n    /* \"#utility.yul\":2482:2488   */\n  dup5\n    /* \"#utility.yul\":2478:2495   */\n  mul\n    /* \"#utility.yul\":2470:2476   */\n  dup4\n    /* \"#utility.yul\":2466:2496   */\n  add\n    /* \"#utility.yul\":2519:2522   */\n  dup6\n    /* \"#utility.yul\":2511:2517   */\n  dup2\n    /* \"#utility.yul\":2508:2523   */\n  gt\n    /* \"#utility.yul\":2505:2627   */\n  iszero\n  tag_89\n  jumpi\n    /* \"#utility.yul\":2538:2617   */\n  tag_90\n  tag_26\n  jump\t// in\ntag_90:\n    /* \"#utility.yul\":2505:2627   */\ntag_89:\n    /* \"#utility.yul\":2653:2659   */\n  dup4\n    /* \"#utility.yul\":2636:2867   */\ntag_91:\n    /* \"#utility.yul\":2670:2676   */\n  dup2\n    /* \"#utility.yul\":2665:2668   */\n  dup2\n    /* \"#utility.yul\":2662:2677   */\n  lt\n    /* \"#utility.yul\":2636:2867   */\n  iszero\n  tag_93\n  jumpi\n    /* \"#utility.yul\":2745:2748   */\n  dup1\n    /* \"#utility.yul\":2774:2822   */\n  tag_94\n    /* \"#utility.yul\":2818:2821   */\n  dup9\n    /* \"#utility.yul\":2806:2816   */\n  dup3\n    /* \"#utility.yul\":2774:2822   */\n  tag_30\n  jump\t// in\ntag_94:\n    /* \"#utility.yul\":2769:2772   */\n  dup5\n    /* \"#utility.yul\":2762:2823   */\n  mstore\n    /* \"#utility.yul\":2852:2856   */\n  0x20\n    /* \"#utility.yul\":2847:2850   */\n  dup5\n    /* \"#utility.yul\":2843:2857   */\n  add\n    /* \"#utility.yul\":2836:2857   */\n  swap4\n  pop\n    /* \"#utility.yul\":2712:2867   */\n  pop\n    /* \"#utility.yul\":2696:2700   */\n  0x20\n    /* \"#utility.yul\":2691:2694   */\n  dup2\n    /* \"#utility.yul\":2687:2701   */\n  add\n    /* \"#utility.yul\":2680:2701   */\n  swap1\n  pop\n    /* \"#utility.yul\":2636:2867   */\n  jump(tag_91)\ntag_93:\n    /* \"#utility.yul\":2640:2661   */\n  pop\n    /* \"#utility.yul\":2254:2873   */\n  pop\n  pop\n    /* \"#utility.yul\":2141:2873   */\n  swap4\n  swap3\n  pop\n  pop\n  pop\n  jump\t// out\n    /* \"#utility.yul\":2896:3281   */\ntag_32:\n    /* \"#utility.yul\":2978:2983   */\n  0x00\n    /* \"#utility.yul\":3027:3030   */\n  dup3\n    /* \"#utility.yul\":3020:3024   */\n  0x1f\n    /* \"#utility.yul\":3012:3018   */\n  dup4\n    /* \"#utility.yul\":3008:3025   */\n  add\n    /* \"#utility.yul\":3004:3031   */\n  slt\n    /* \"#utility.yul\":2994:3116   */\n  tag_96\n  jumpi\n    /* \"#utility.yul\":3035:3114   */\n  tag_97\n  tag_20\n  jump\t// in\ntag_97:\n    /* \"#utility.yul\":2994:3116   */\ntag_96:\n    /* \"#utility.yul\":3145:3151   */\n  dup2\n    /* \"#utility.yul\":3139:3152   */\n  mload\n    /* \"#utility.yul\":3170:3275   */\n  tag_98\n    /* \"#utility.yul\":3271:3274   */\n  dup5\n    /* \"#utility.yul\":3263:3269   */\n  dup3\n    /* \"#utility.yul\":3256:3260   */\n  0x20\n    /* \"#utility.yul\":3248:3254   */\n  dup7\n    /* \"#utility.yul\":3244:3261   */\n  add\n    /* \"#utility.yul\":3170:3275   */\n  tag_31\n  jump\t// in\ntag_98:\n    /* \"#utility.yul\":3161:3275   */\n  swap2\n  pop\n    /* \"#utility.yul\":2984:3281   */\n  pop\n    /* \"#utility.yul\":2896:3281   */\n  swap3\n  swap2\n  pop\n  pop\n  jump\t// out\n    /* \"#utility.yul\":3287:3364   */\ntag_33:\n    /* \"#utility.yul\":3324:3331   */\n  0x00\n    /* \"#utility.yul\":3353:3358   */\n  dup2\n    /* \"#utility.yul\":3342:3358   */\n  swap1\n  pop\n    /* \"#utility.yul\":3287:3364   */\n  swap2\n  swap1\n  pop\n  jump\t// out\n    /* \"#utility.yul\":3370:3492   */\ntag_34:\n    /* \"#utility.yul\":3443:3467   */\n  tag_101\n    /* \"#utility.yul\":3461:3466   */\n  dup2\n    /* \"#utility.yul\":3443:3467   */\n  tag_33\n  jump\t// in\ntag_101:\n    /* \"#utility.yul\":3436:3441   */\n  dup2\n    /* \"#utility.yul\":3433:3468   */\n  eq\n    /* \"#utility.yul\":3423:3486   */\n  tag_102\n  jumpi\n    /* \"#utility.yul\":3482:3483   */\n  0x00\n    /* \"#utility.yul\":3479:3480   */\n  dup1\n    /* \"#utility.yul\":3472:3484   */\n  revert\n    /* \"#utility.yul\":3423:3486   */\ntag_102:\n    /* \"#utility.yul\":3370:3492   */\n  pop\n  jump\t// out\n    /* \"#utility.yul\":3498:3641   */\ntag_35:\n    /* \"#utility.yul\":3555:3560   */\n  0x00\n    /* \"#utility.yul\":3586:3592   */\n  dup2\n    /* \"#utility.yul\":3580:3593   */\n  mload\n    /* \"#utility.yul\":3571:3593   */\n  swap1\n  pop\n    /* \"#utility.yul\":3602:3635   */\n  tag_104\n    /* \"#utility.yul\":3629:3634   */\n  dup2\n    /* \"#utility.yul\":3602:3635   */\n  tag_34\n  jump\t// in\ntag_104:\n    /* \"#utility.yul\":3498:3641   */\n  swap3\n  swap2\n  pop\n  pop\n  jump\t// out\n    /* \"#utility.yul\":3647:3764   */\ntag_36:\n    /* \"#utility.yul\":3756:3757   */\n  0x00\n    /* \"#utility.yul\":3753:3754   */\n  dup1\n    /* \"#utility.yul\":3746:3758   */\n  revert\n    /* \"#utility.yul\":3770:4078   */\ntag_37:\n    /* \"#utility.yul\":3832:3836   */\n  0x00\n    /* \"#utility.yul\":3922:3940   */\n  0xffffffffffffffff\n    /* \"#utility.yul\":3914:3920   */\n  dup3\n    /* \"#utility.yul\":3911:3941   */\n  gt\n    /* \"#utility.yul\":3908:3964   */\n  iszero\n  tag_107\n  jumpi\n    /* \"#utility.yul\":3944:3962   */\n  tag_108\n  tag_22\n  jump\t// in\ntag_108:\n    /* \"#utility.yul\":3908:3964   */\ntag_107:\n    /* \"#utility.yul\":3982:4011   */\n  tag_109\n    /* \"#utility.yul\":4004:4010   */\n  dup3\n    /* \"#utility.yul\":3982:4011   */\n  tag_21\n  jump\t// in\ntag_109:\n    /* \"#utility.yul\":3974:4011   */\n  swap1\n  pop\n    /* \"#utility.yul\":4066:4070   */\n  0x20\n    /* \"#utility.yul\":4060:4064   */\n  dup2\n    /* \"#utility.yul\":4056:4071   */\n  add\n    /* \"#utility.yul\":4048:4071   */\n  swap1\n  pop\n    /* \"#utility.yul\":3770:4078   */\n  swap2\n  swap1\n  pop\n  jump\t// out\n    /* \"#utility.yul\":4084:4330   */\ntag_38:\n    /* \"#utility.yul\":4165:4166   */\n  0x00\n    /* \"#utility.yul\":4175:4288   */\ntag_111:\n    /* \"#utility.yul\":4189:4195   */\n  dup4\n    /* \"#utility.yul\":4186:4187   */\n  dup2\n    /* \"#utility.yul\":4183:4196   */\n  lt\n    /* \"#utility.yul\":4175:4288   */\n  iszero\n  tag_113\n  jumpi\n    /* \"#utility.yul\":4274:4275   */\n  dup1\n    /* \"#utility.yul\":4269:4272   */\n  dup3\n    /* \"#utility.yul\":4265:4276   */\n  add\n    /* \"#utility.yul\":4259:4277   */\n  mload\n    /* \"#utility.yul\":4255:4256   */\n  dup2\n    /* \"#utility.yul\":4250:4253   */\n  dup5\n    /* \"#utility.yul\":4246:4257   */\n  add\n    /* \"#utility.yul\":4239:4278   */\n  mstore\n    /* \"#utility.yul\":4211:4213   */\n  0x20\n    /* \"#utility.yul\":4208:4209   */\n  dup2\n    /* \"#utility.yul\":4204:4214   */\n  add\n    /* \"#utility.yul\":4199:4214   */\n  swap1\n  pop\n    /* \"#utility.yul\":4175:4288   */\n  jump(tag_111)\ntag_113:\n    /* \"#utility.yul\":4322:4323   */\n  0x00\n    /* \"#utility.yul\":4313:4319   */\n  dup5\n    /* \"#utility.yul\":4308:4311   */\n  dup5\n    /* \"#utility.yul\":4304:4320   */\n  add\n    /* \"#utility.yul\":4297:4324   */\n  mstore\n    /* \"#utility.yul\":4146:4330   */\n  pop\n    /* \"#utility.yul\":4084:4330   */\n  pop\n  pop\n  pop\n  jump\t// out\n    /* \"#utility.yul\":4336:4770   */\ntag_39:\n    /* \"#utility.yul\":4425:4430   */\n  0x00\n    /* \"#utility.yul\":4450:4516   */\n  tag_115\n    /* \"#utility.yul\":4466:4515   */\n  tag_116\n    /* \"#utility.yul\":4508:4514   */\n  dup5\n    /* \"#utility.yul\":4466:4515   */\n  tag_37\n  jump\t// in\ntag_116:\n    /* \"#utility.yul\":4450:4516   */\n  tag_24\n  jump\t// in\ntag_115:\n    /* \"#utility.yul\":4441:4516   */\n  swap1\n  pop\n    /* \"#utility.yul\":4539:4545   */\n  dup3\n    /* \"#utility.yul\":4532:4537   */\n  dup2\n    /* \"#utility.yul\":4525:4546   */\n  mstore\n    /* \"#utility.yul\":4577:4581   */\n  0x20\n    /* \"#utility.yul\":4570:4575   */\n  dup2\n    /* \"#utility.yul\":4566:4582   */\n  add\n    /* \"#utility.yul\":4615:4618   */\n  dup5\n    /* \"#utility.yul\":4606:4612   */\n  dup5\n    /* \"#utility.yul\":4601:4604   */\n  dup5\n    /* \"#utility.yul\":4597:4613   */\n  add\n    /* \"#utility.yul\":4594:4619   */\n  gt\n    /* \"#utility.yul\":4591:4703   */\n  iszero\n  tag_117\n  jumpi\n    /* \"#utility.yul\":4622:4701   */\n  tag_118\n  tag_36\n  jump\t// in\ntag_118:\n    /* \"#utility.yul\":4591:4703   */\ntag_117:\n    /* \"#utility.yul\":4712:4764   */\n  tag_119\n    /* \"#utility.yul\":4757:4763   */\n  dup5\n    /* \"#utility.yul\":4752:4755   */\n  dup3\n    /* \"#utility.yul\":4747:4750   */\n  dup6\n    /* \"#utility.yul\":4712:4764   */\n  tag_38\n  jump\t// in\ntag_119:\n    /* \"#utility.yul\":4431:4770   */\n  pop\n    /* \"#utility.yul\":4336:4770   */\n  swap4\n  swap3\n  pop\n  pop\n  pop\n  jump\t// out\n    /* \"#utility.yul\":4790:5145   */\ntag_40:\n    /* \"#utility.yul\":4857:4862   */\n  0x00\n    /* \"#utility.yul\":4906:4909   */\n  dup3\n    /* \"#utility.yul\":4899:4903   */\n  0x1f\n    /* \"#utility.yul\":4891:4897   */\n  dup4\n    /* \"#utility.yul\":4887:4904   */\n  add\n    /* \"#utility.yul\":4883:4910   */\n  slt\n    /* \"#utility.yul\":4873:4995   */\n  tag_121\n  jumpi\n    /* \"#utility.yul\":4914:4993   */\n  tag_122\n  tag_20\n  jump\t// in\ntag_122:\n    /* \"#utility.yul\":4873:4995   */\ntag_121:\n    /* \"#utility.yul\":5024:5030   */\n  dup2\n    /* \"#utility.yul\":5018:5031   */\n  mload\n    /* \"#utility.yul\":5049:5139   */\n  tag_123\n    /* \"#utility.yul\":5135:5138   */\n  dup5\n    /* \"#utility.yul\":5127:5133   */\n  dup3\n    /* \"#utility.yul\":5120:5124   */\n  0x20\n    /* \"#utility.yul\":5112:5118   */\n  dup7\n    /* \"#utility.yul\":5108:5125   */\n  add\n    /* \"#utility.yul\":5049:5139   */\n  tag_39\n  jump\t// in\ntag_123:\n    /* \"#utility.yul\":5040:5139   */\n  swap2\n  pop\n    /* \"#utility.yul\":4863:5145   */\n  pop\n    /* \"#utility.yul\":4790:5145   */\n  swap3\n  swap2\n  pop\n  pop\n  jump\t// out\n    /* \"#utility.yul\":5151:6347   */\ntag_3:\n    /* \"#utility.yul\":5283:5289   */\n  0x00\n    /* \"#utility.yul\":5291:5297   */\n  dup1\n    /* \"#utility.yul\":5299:5305   */\n  0x00\n    /* \"#utility.yul\":5307:5313   */\n  dup1\n    /* \"#utility.yul\":5356:5359   */\n  0x80\n    /* \"#utility.yul\":5344:5353   */\n  dup6\n    /* \"#utility.yul\":5335:5342   */\n  dup8\n    /* \"#utility.yul\":5331:5354   */\n  sub\n    /* \"#utility.yul\":5327:5360   */\n  slt\n    /* \"#utility.yul\":5324:5444   */\n  iszero\n  tag_125\n  jumpi\n    /* \"#utility.yul\":5363:5442   */\n  tag_126\n  tag_18\n  jump\t// in\ntag_126:\n    /* \"#utility.yul\":5324:5444   */\ntag_125:\n    /* \"#utility.yul\":5504:5505   */\n  0x00\n    /* \"#utility.yul\":5493:5502   */\n  dup6\n    /* \"#utility.yul\":5489:5506   */\n  add\n    /* \"#utility.yul\":5483:5507   */\n  mload\n    /* \"#utility.yul\":5534:5552   */\n  0xffffffffffffffff\n    /* \"#utility.yul\":5526:5532   */\n  dup2\n    /* \"#utility.yul\":5523:5553   */\n  gt\n    /* \"#utility.yul\":5520:5637   */\n  iszero\n  tag_127\n  jumpi\n    /* \"#utility.yul\":5556:5635   */\n  tag_128\n  tag_19\n  jump\t// in\ntag_128:\n    /* \"#utility.yul\":5520:5637   */\ntag_127:\n    /* \"#utility.yul\":5661:5750   */\n  tag_129\n    /* \"#utility.yul\":5742:5749   */\n  dup8\n    /* \"#utility.yul\":5733:5739   */\n  dup3\n    /* \"#utility.yul\":5722:5731   */\n  dup9\n    /* \"#utility.yul\":5718:5740   */\n  add\n    /* \"#utility.yul\":5661:5750   */\n  tag_32\n  jump\t// in\ntag_129:\n    /* \"#utility.yul\":5651:5750   */\n  swap5\n  pop\n    /* \"#utility.yul\":5454:5760   */\n  pop\n    /* \"#utility.yul\":5799:5801   */\n  0x20\n    /* \"#utility.yul\":5825:5889   */\n  tag_130\n    /* \"#utility.yul\":5881:5888   */\n  dup8\n    /* \"#utility.yul\":5872:5878   */\n  dup3\n    /* \"#utility.yul\":5861:5870   */\n  dup9\n    /* \"#utility.yul\":5857:5879   */\n  add\n    /* \"#utility.yul\":5825:5889   */\n  tag_35\n  jump\t// in\ntag_130:\n    /* \"#utility.yul\":5815:5889   */\n  swap4\n  pop\n    /* \"#utility.yul\":5770:5899   */\n  pop\n    /* \"#utility.yul\":5938:5940   */\n  0x40\n    /* \"#utility.yul\":5964:6028   */\n  tag_131\n    /* \"#utility.yul\":6020:6027   */\n  dup8\n    /* \"#utility.yul\":6011:6017   */\n  dup3\n    /* \"#utility.yul\":6000:6009   */\n  dup9\n    /* \"#utility.yul\":5996:6018   */\n  add\n    /* \"#utility.yul\":5964:6028   */\n  tag_30\n  jump\t// in\ntag_131:\n    /* \"#utility.yul\":5954:6028   */\n  swap3\n  pop\n    /* \"#utility.yul\":5909:6038   */\n  pop\n    /* \"#utility.yul\":6098:6100   */\n  0x60\n    /* \"#utility.yul\":6087:6096   */\n  dup6\n    /* \"#utility.yul\":6083:6101   */\n  add\n    /* \"#utility.yul\":6077:6102   */\n  mload\n    /* \"#utility.yul\":6129:6147   */\n  0xffffffffffffffff\n    /* \"#utility.yul\":6121:6127   */\n  dup2\n    /* \"#utility.yul\":6118:6148   */\n  gt\n    /* \"#utility.yul\":6115:6232   */\n  iszero\n  tag_132\n  jumpi\n    /* \"#utility.yul\":6151:6230   */\n  tag_133\n  tag_19\n  jump\t// in\ntag_133:\n    /* \"#utility.yul\":6115:6232   */\ntag_132:\n    /* \"#utility.yul\":6256:6330   */\n  tag_134\n    /* \"#utility.yul\":6322:6329   */\n  dup8\n    /* \"#utility.yul\":6313:6319   */\n  dup3\n    /* \"#utility.yul\":6302:6311   */\n  dup9\n    /* \"#utility.yul\":6298:6320   */\n  add\n    /* \"#utility.yul\":6256:6330   */\n  tag_40\n  jump\t// in\ntag_134:\n    /* \"#utility.yul\":6246:6330   */\n  swap2\n  pop\n    /* \"#utility.yul\":6048:6340   */\n  pop\n    /* \"#utility.yul\":5151:6347   */\n  swap3\n  swap6\n  swap2\n  swap5\n  pop\n  swap3\n  pop\n  jump\t// out\n    /* \"#utility.yul\":6353:6533   */\ntag_11:\n    /* \"#utility.yul\":6401:6478   */\n  0x4e487b7100000000000000000000000000000000000000000000000000000000\n    /* \"#utility.yul\":6398:6399   */\n  0x00\n    /* \"#utility.yul\":6391:6479   */\n  mstore\n    /* \"#utility.yul\":6498:6502   */\n  0x32\n    /* \"#utility.yul\":6495:6496   */\n  0x04\n    /* \"#utility.yul\":6488:6503   */\n  mstore\n    /* \"#utility.yul\":6522:6526   */\n  0x24\n    /* \"#utility.yul\":6519:6520   */\n  0x00\n    /* \"#utility.yul\":6512:6527   */\n  revert\n    /* \"#utility.yul\":6539:6719   */\ntag_41:\n    /* \"#utility.yul\":6587:6664   */\n  0x4e487b7100000000000000000000000000000000000000000000000000000000\n    /* \"#utility.yul\":6584:6585   */\n  0x00\n    /* \"#utility.yul\":6577:6665   */\n  mstore\n    /* \"#utility.yul\":6684:6688   */\n  0x11\n    /* \"#utility.yul\":6681:6682   */\n  0x04\n    /* \"#utility.yul\":6674:6689   */\n  mstore\n    /* \"#utility.yul\":6708:6712   */\n  0x24\n    /* \"#utility.yul\":6705:6706   */\n  0x00\n    /* \"#utility.yul\":6698:6713   */\n  revert\n    /* \"#utility.yul\":6725:6958   */\ntag_13:\n    /* \"#utility.yul\":6764:6767   */\n  0x00\n    /* \"#utility.yul\":6787:6811   */\n  tag_138\n    /* \"#utility.yul\":6805:6810   */\n  dup3\n    /* \"#utility.yul\":6787:6811   */\n  tag_33\n  jump\t// in\ntag_138:\n    /* \"#utility.yul\":6778:6811   */\n  swap2\n  pop\n    /* \"#utility.yul\":6833:6899   */\n  0xffffffffffffffffffffffffffffffffffffffffffffffffffffffffffffffff\n    /* \"#utility.yul\":6826:6831   */\n  dup3\n    /* \"#utility.yul\":6823:6900   */\n  sub\n    /* \"#utility.yul\":6820:6923   */\n  tag_139\n  jumpi\n    /* \"#utility.yul\":6903:6921   */\n  tag_140\n  tag_41\n  jump\t// in\ntag_140:\n    /* \"#utility.yul\":6820:6923   */\ntag_139:\n    /* \"#utility.yul\":6950:6951   */\n  0x01\n    /* \"#utility.yul\":6943:6948   */\n  dup3\n    /* \"#utility.yul\":6939:6952   */\n  add\n    /* \"#utility.yul\":6932:6952   */\n  swap1\n  pop\n    /* \"#utility.yul\":6725:6958   */\n  swap2\n  swap1\n  pop\n  jump\t// out\n    /* \"#utility.yul\":6964:7063   */\ntag_42:\n    /* \"#utility.yul\":7016:7022   */\n  0x00\n    /* \"#utility.yul\":7050:7055   */\n  dup2\n    /* \"#utility.yul\":7044:7056   */\n  mload\n    /* \"#utility.yul\":7034:7056   */\n  swap1\n  pop\n    /* \"#utility.yul\":6964:7063   */\n  swap2\n  swap1\n  pop\n  jump\t// out\n    /* \"#utility.yul\":7069:7249   */\ntag_43:\n    /* \"#utility.yul\":7117:7194   */\n  0x4e487b7100000000000000000000000000000000000000000000000000000000\n    /* \"#utility.yul\":7114:7115   */\n  0x00\n    /* \"#utility.yul\":7107:7195   */\n  mstore\n    /* \"#utility.yul\":7214:7218   */\n  0x22\n    /* \"#utility.yul\":7211:7212   */\n  0x04\n    /* \"#utility.yul\":7204:7219   */\n  mstore\n    /* \"#utility.yul\":7238:7242   */\n  0x24\n    /* \"#utility.yul\":7235:7236   */\n  0x00\n    /* \"#utility.yul\":7228:7243   */\n  revert\n    /* \"#utility.yul\":7255:7575   */\ntag_44:\n    /* \"#utility.yul\":7299:7305   */\n  0x00\n    /* \"#utility.yul\":7336:7337   */\n  0x02\n    /* \"#utility.yul\":7330:7334   */\n  dup3\n    /* \"#utility.yul\":7326:7338   */\n  div\n    /* \"#utility.yul\":7316:7338   */\n  swap1\n  pop\n    /* \"#utility.yul\":7383:7384   */\n  0x01\n    /* \"#utility.yul\":7377:7381   */\n  dup3\n    /* \"#utility.yul\":7373:7385   */\n  and\n    /* \"#utility.yul\":7404:7422   */\n  dup1\n    /* \"#utility.yul\":7394:7475   */\n  tag_144\n  jumpi\n    /* \"#utility.yul\":7460:7464   */\n  0x7f\n    /* \"#utility.yul\":7452:7458   */\n  dup3\n    /* \"#utility.yul\":7448:7465   */\n  and\n    /* \"#utility.yul\":7438:7465   */\n  swap2\n  pop\n    /* \"#utility.yul\":7394:7475   */\ntag_144:\n    /* \"#utility.yul\":7522:7524   */\n  0x20\n    /* \"#utility.yul\":7514:7520   */\n  dup3\n    /* \"#utility.yul\":7511:7525   */\n  lt\n    /* \"#utility.yul\":7491:7509   */\n  dup2\n    /* \"#utility.yul\":7488:7526   */\n  sub\n    /* \"#utility.yul\":7485:7569   */\n  tag_145\n  jumpi\n    /* \"#utility.yul\":7541:7559   */\n  tag_146\n  tag_43\n  jump\t// in\ntag_146:\n    /* \"#utility.yul\":7485:7569   */\ntag_145:\n    /* \"#utility.yul\":7306:7575   */\n  pop\n    /* \"#utility.yul\":7255:7575   */\n  swap2\n  swap1\n  pop\n  jump\t// out\n    /* \"#utility.yul\":7581:7722   */\ntag_45:\n    /* \"#utility.yul\":7630:7634   */\n  0x00\n    /* \"#utility.yul\":7653:7656   */\n  dup2\n    /* \"#utility.yul\":7645:7656   */\n  swap1\n  pop\n    /* \"#utility.yul\":7676:7679   */\n  dup2\n    /* \"#utility.yul\":7673:7674   */\n  0x00\n    /* \"#utility.yul\":7666:7680   */\n  mstore\n    /* \"#utility.yul\":7710:7714   */\n  0x20\n    /* \"#utility.yul\":7707:7708   */\n  0x00\n    /* \"#utility.yul\":7697:7715   */\n  keccak256\n    /* \"#utility.yul\":7689:7715   */\n  swap1\n  pop\n    /* \"#utility.yul\":7581:7722   */\n  swap2\n  swap1\n  pop\n  jump\t// out\n    /* \"#utility.yul\":7728:7821   */\ntag_46:\n    /* \"#utility.yul\":7765:7771   */\n  0x00\n    /* \"#utility.yul\":7812:7814   */\n  0x20\n    /* \"#utility.yul\":7807:7809   */\n  0x1f\n    /* \"#utility.yul\":7800:7805   */\n  dup4\n    /* \"#utility.yul\":7796:7810   */\n  add\n    /* \"#utility.yul\":7792:7815   */\n  div\n    /* \"#utility.yul\":7782:7815   */\n  swap1\n  pop\n    /* \"#utility.yul\":7728:7821   */\n  swap2\n  swap1\n  pop\n  jump\t// out\n    /* \"#utility.yul\":7827:7934   */\ntag_47:\n    /* \"#utility.yul\":7871:7879   */\n  0x00\n    /* \"#utility.yul\":7921:7926   */\n  dup3\n    /* \"#utility.yul\":7915:7919   */\n  dup3\n    /* \"#utility.yul\":7911:7927   */\n  shl\n    /* \"#utility.yul\":7890:7927   */\n  swap1\n  pop\n    /* \"#utility.yul\":7827:7934   */\n  swap3\n  swap2\n  pop\n  pop\n  jump\t// out\n    /* \"#utility.yul\":7940:8333   */\ntag_48:\n    /* \"#utility.yul\":8009:8015   */\n  0x00\n    /* \"#utility.yul\":8059:8060   */\n  0x08\n    /* \"#utility.yul\":8047:8057   */\n  dup4\n    /* \"#utility.yul\":8043:8061   */\n  mul\n    /* \"#utility.yul\":8082:8179   */\n  tag_151\n    /* \"#utility.yul\":8112:8178   */\n  0xffffffffffffffffffffffffffffffffffffffffffffffffffffffffffffffff\n    /* \"#utility.yul\":8101:8110   */\n  dup3\n    /* \"#utility.yul\":8082:8179   */\n  tag_47\n  jump\t// in\ntag_151:\n    /* \"#utility.yul\":8200:8239   */\n  tag_152\n    /* \"#utility.yul\":8230:8238   */\n  dup7\n    /* \"#utility.yul\":8219:8228   */\n  dup4\n    /* \"#utility.yul\":8200:8239   */\n  tag_47\n  jump\t// in\ntag_152:\n    /* \"#utility.yul\":8188:8239   */\n  swap6\n  pop\n    /* \"#utility.yul\":8272:8276   */\n  dup1\n    /* \"#utility.yul\":8268:8277   */\n  not\n    /* \"#utility.yul\":8261:8266   */\n  dup5\n    /* \"#utility.yul\":8257:8278   */\n  and\n    /* \"#utility.yul\":8248:8278   */\n  swap4\n  pop\n    /* \"#utility.yul\":8321:8325   */\n  dup1\n    /* \"#utility.yul\":8311:8319   */\n  dup7\n    /* \"#utility.yul\":8307:8326   */\n  and\n    /* \"#utility.yul\":8300:8305   */\n  dup5\n    /* \"#utility.yul\":8297:8327   */\n  or\n    /* \"#utility.yul\":8287:8327   */\n  swap3\n  pop\n    /* \"#utility.yul\":8016:8333   */\n  pop\n  pop\n    /* \"#utility.yul\":7940:8333   */\n  swap4\n  swap3\n  pop\n  pop\n  pop\n  jump\t// out\n    /* \"#utility.yul\":8339:8399   */\ntag_49:\n    /* \"#utility.yul\":8367:8370   */\n  0x00\n    /* \"#utility.yul\":8388:8393   */\n  dup2\n    /* \"#utility.yul\":8381:8393   */\n  swap1\n  pop\n    /* \"#utility.yul\":8339:8399   */\n  swap2\n  swap1\n  pop\n  jump\t// out\n    /* \"#utility.yul\":8405:8547   */\ntag_50:\n    /* \"#utility.yul\":8455:8464   */\n  0x00\n    /* \"#utility.yul\":8488:8541   */\n  tag_155\n    /* \"#utility.yul\":8506:8540   */\n  tag_156\n    /* \"#utility.yul\":8515:8539   */\n  tag_157\n    /* \"#utility.yul\":8533:8538   */\n  dup5\n    /* \"#utility.yul\":8515:8539   */\n  tag_33\n  jump\t// in\ntag_157:\n    /* \"#utility.yul\":8506:8540   */\n  tag_49\n  jump\t// in\ntag_156:\n    /* \"#utility.yul\":8488:8541   */\n  tag_33\n  jump\t// in\ntag_155:\n    /* \"#utility.yul\":8475:8541   */\n  swap1\n  pop\n    /* \"#utility.yul\":8405:8547   */\n  swap2\n  swap1\n  pop\n  jump\t// out\n    /* \"#utility.yul\":8553:8628   */\ntag_51:\n    /* \"#utility.yul\":8596:8599   */\n  0x00\n    /* \"#utility.yul\":8617:8622   */\n  dup2\n    /* \"#utility.yul\":8610:8622   */\n  swap1\n  pop\n    /* \"#utility.yul\":8553:8628   */\n  swap2\n  swap1\n  pop\n  jump\t// out\n    /* \"#utility.yul\":8634:8903   */\ntag_52:\n    /* \"#utility.yul\":8744:8783   */\n  tag_160\n    /* \"#utility.yul\":8775:8782   */\n  dup4\n    /* \"#utility.yul\":8744:8783   */\n  tag_50\n  jump\t// in\ntag_160:\n    /* \"#utility.yul\":8805:8896   */\n  tag_161\n    /* \"#utility.yul\":8854:8895   */\n  tag_162\n    /* \"#utility.yul\":8878:8894   */\n  dup3\n    /* \"#utility.yul\":8854:8895   */\n  tag_51\n  jump\t// in\ntag_162:\n    /* \"#utility.yul\":8846:8852   */\n  dup5\n    /* \"#utility.yul\":8839:8843   */\n  dup5\n    /* \"#utility.yul\":8833:8844   */\n  sload\n    /* \"#utility.yul\":8805:8896   */\n  tag_48\n  jump\t// in\ntag_161:\n    /* \"#utility.yul\":8799:8803   */\n  dup3\n    /* \"#utility.yul\":8792:8897   */\n  sstore\n    /* \"#utility.yul\":8710:8903   */\n  pop\n    /* \"#utility.yul\":8634:8903   */\n  pop\n  pop\n  pop\n  jump\t// out\n    /* \"#utility.yul\":8909:8982   */\ntag_53:\n    /* \"#utility.yul\":8954:8957   */\n  0x00\n    /* \"#utility.yul\":8909:8982   */\n  swap1\n  jump\t// out\n    /* \"#utility.yul\":8988:9177   */\ntag_54:\n    /* \"#utility.yul\":9065:9097   */\n  tag_165\n  tag_53\n  jump\t// in\ntag_165:\n    /* \"#utility.yul\":9106:9171   */\n  tag_166\n    /* \"#utility.yul\":9164:9170   */\n  dup2\n    /* \"#utility.yul\":9156:9162   */\n  dup5\n    /* \"#utility.yul\":9150:9154   */\n  dup5\n    /* \"#utility.yul\":9106:9171   */\n  tag_52\n  jump\t// in\ntag_166:\n    /* \"#utility.yul\":9041:9177   */\n  pop\n    /* \"#utility.yul\":8988:9177   */\n  pop\n  pop\n  jump\t// out\n    /* \"#utility.yul\":9183:9369   */\ntag_55:\n    /* \"#utility.yul\":9243:9363   */\ntag_168:\n    /* \"#utility.yul\":9260:9263   */\n  dup2\n    /* \"#utility.yul\":9253:9258   */\n  dup2\n    /* \"#utility.yul\":9250:9264   */\n  lt\n    /* \"#utility.yul\":9243:9363   */\n  iszero\n  tag_170\n  jumpi\n    /* \"#utility.yul\":9314:9353   */\n  tag_171\n    /* \"#utility.yul\":9351:9352   */\n  0x00\n    /* \"#utility.yul\":9344:9349   */\n  dup3\n    /* \"#utility.yul\":9314:9353   */\n  tag_54\n  jump\t// in\ntag_171:\n    /* \"#utility.yul\":9287:9288   */\n  0x01\n    /* \"#utility.yul\":9280:9285   */\n  dup2\n    /* \"#utility.yul\":9276:9289   */\n  add\n    /* \"#utility.yul\":9267:9289   */\n  swap1\n  pop\n    /* \"#utility.yul\":9243:9363   */\n  jump(tag_168)\ntag_170:\n    /* \"#utility.yul\":9183:9369   */\n  pop\n  pop\n  jump\t// out\n    /* \"#utility.yul\":9375:9918   */\ntag_56:\n    /* \"#utility.yul\":9476:9478   */\n  0x1f\n    /* \"#utility.yul\":9471:9474   */\n  dup3\n    /* \"#utility.yul\":9468:9479   */\n  gt\n    /* \"#utility.yul\":9465:9911   */\n  iszero\n  tag_173\n  jumpi\n    /* \"#utility.yul\":9510:9548   */\n  tag_174\n    /* \"#utility.yul\":9542:9547   */\n  dup2\n    /* \"#utility.yul\":9510:9548   */\n  tag_45\n  jump\t// in\ntag_174:\n    /* \"#utility.yul\":9594:9623   */\n  tag_175\n    /* \"#utility.yul\":9612:9622   */\n  dup5\n    /* \"#utility.yul\":9594:9623   */\n  tag_46\n  jump\t// in\ntag_175:\n    /* \"#utility.yul\":9584:9592   */\n  dup2\n    /* \"#utility.yul\":9580:9624   */\n  add\n    /* \"#utility.yul\":9777:9779   */\n  0x20\n    /* \"#utility.yul\":9765:9775   */\n  dup6\n    /* \"#utility.yul\":9762:9780   */\n  lt\n    /* \"#utility.yul\":9759:9808   */\n  iszero\n  tag_176\n  jumpi\n    /* \"#utility.yul\":9798:9806   */\n  dup2\n    /* \"#utility.yul\":9783:9806   */\n  swap1\n  pop\n    /* \"#utility.yul\":9759:9808   */\ntag_176:\n    /* \"#utility.yul\":9821:9901   */\n  tag_177\n    /* \"#utility.yul\":9877:9899   */\n  tag_178\n    /* \"#utility.yul\":9895:9898   */\n  dup6\n    /* \"#utility.yul\":9877:9899   */\n  tag_46\n  jump\t// in\ntag_178:\n    /* \"#utility.yul\":9867:9875   */\n  dup4\n    /* \"#utility.yul\":9863:9900   */\n  add\n    /* \"#utility.yul\":9850:9861   */\n  dup3\n    /* \"#utility.yul\":9821:9901   */\n  tag_55\n  jump\t// in\ntag_177:\n    /* \"#utility.yul\":9480:9911   */\n  pop\n  pop\n    /* \"#utility.yul\":9465:9911   */\ntag_173:\n    /* \"#utility.yul\":9375:9918   */\n  pop\n  pop\n  pop\n  jump\t// out\n    /* \"#utility.yul\":9924:10041   */\ntag_57:\n    /* \"#utility.yul\":9978:9986   */\n  0x00\n    /* \"#utility.yul\":10028:10033   */\n  dup3\n    /* \"#utility.yul\":10022:10026   */\n  dup3\n    /* \"#utility.yul\":10018:10034   */\n  shr\n    /* \"#utility.yul\":9997:10034   */\n  swap1\n  pop\n    /* \"#utility.yul\":9924:10041   */\n  swap3\n  swap2\n  pop\n  pop\n  jump\t// out\n    /* \"#utility.yul\":10047:10216   */\ntag_58:\n    /* \"#utility.yul\":10091:10097   */\n  0x00\n    /* \"#utility.yul\":10124:10175   */\n  tag_181\n    /* \"#utility.yul\":10172:10173   */\n  0x00\n    /* \"#utility.yul\":10168:10174   */\n  not\n    /* \"#utility.yul\":10160:10165   */\n  dup5\n    /* \"#utility.yul\":10157:10158   */\n  0x08\n    /* \"#utility.yul\":10153:10166   */\n  mul\n    /* \"#utility.yul\":10124:10175   */\n  tag_57\n  jump\t// in\ntag_181:\n    /* \"#utility.yul\":10120:10176   */\n  not\n    /* \"#utility.yul\":10205:10209   */\n  dup1\n    /* \"#utility.yul\":10199:10203   */\n  dup4\n    /* \"#utility.yul\":10195:10210   */\n  and\n    /* \"#utility.yul\":10185:10210   */\n  swap2\n  pop\n    /* \"#utility.yul\":10098:10216   */\n  pop\n    /* \"#utility.yul\":10047:10216   */\n  swap3\n  swap2\n  pop\n  pop\n  jump\t// out\n    /* \"#utility.yul\":10221:10516   */\ntag_59:\n    /* \"#utility.yul\":10297:10301   */\n  0x00\n    /* \"#utility.yul\":10443:10472   */\n  tag_183\n    /* \"#utility.yul\":10468:10471   */\n  dup4\n    /* \"#utility.yul\":10462:10466   */\n  dup4\n    /* \"#utility.yul\":10443:10472   */\n  tag_58\n  jump\t// in\ntag_183:\n    /* \"#utility.yul\":10435:10472   */\n  swap2\n  pop\n    /* \"#utility.yul\":10505:10508   */\n  dup3\n    /* \"#utility.yul\":10502:10503   */\n  0x02\n    /* \"#utility.yul\":10498:10509   */\n  mul\n    /* \"#utility.yul\":10492:10496   */\n  dup3\n    /* \"#utility.yul\":10489:10510   */\n  or\n    /* \"#utility.yul\":10481:10510   */\n  swap1\n  pop\n    /* \"#utility.yul\":10221:10516   */\n  swap3\n  swap2\n  pop\n  pop\n  jump\t// out\n    /* \"#utility.yul\":10521:11916   */\ntag_15:\n    /* \"#utility.yul\":10638:10675   */\n  tag_185\n    /* \"#utility.yul\":10671:10674   */\n  dup3\n    /* \"#utility.yul\":10638:10675   */\n  tag_42\n  jump\t// in\ntag_185:\n    /* \"#utility.yul\":10740:10758   */\n  0xffffffffffffffff\n    /* \"#utility.yul\":10732:10738   */\n  dup2\n    /* \"#utility.yul\":10729:10759   */\n  gt\n    /* \"#utility.yul\":10726:10782   */\n  iszero\n  tag_186\n  jumpi\n    /* \"#utility.yul\":10762:10780   */\n  tag_187\n  tag_22\n  jump\t// in\ntag_187:\n    /* \"#utility.yul\":10726:10782   */\ntag_186:\n    /* \"#utility.yul\":10806:10844   */\n  tag_188\n    /* \"#utility.yul\":10838:10842   */\n  dup3\n    /* \"#utility.yul\":10832:10843   */\n  sload\n    /* \"#utility.yul\":10806:10844   */\n  tag_44\n  jump\t// in\ntag_188:\n    /* \"#utility.yul\":10891:10958   */\n  tag_189\n    /* \"#utility.yul\":10951:10957   */\n  dup3\n    /* \"#utility.yul\":10943:10949   */\n  dup3\n    /* \"#utility.yul\":10937:10941   */\n  dup6\n    /* \"#utility.yul\":10891:10958   */\n  tag_56\n  jump\t// in\ntag_189:\n    /* \"#utility.yul\":10985:10986   */\n  0x00\n    /* \"#utility.yul\":11009:11013   */\n  0x20\n    /* \"#utility.yul\":10996:11013   */\n  swap1\n  pop\n    /* \"#utility.yul\":11041:11043   */\n  0x1f\n    /* \"#utility.yul\":11033:11039   */\n  dup4\n    /* \"#utility.yul\":11030:11044   */\n  gt\n    /* \"#utility.yul\":11058:11059   */\n  0x01\n    /* \"#utility.yul\":11053:11671   */\n  dup2\n  eq\n  tag_191\n  jumpi\n    /* \"#utility.yul\":11715:11716   */\n  0x00\n    /* \"#utility.yul\":11732:11738   */\n  dup5\n    /* \"#utility.yul\":11729:11806   */\n  iszero\n  tag_192\n  jumpi\n    /* \"#utility.yul\":11781:11790   */\n  dup3\n    /* \"#utility.yul\":11776:11779   */\n  dup8\n    /* \"#utility.yul\":11772:11791   */\n  add\n    /* \"#utility.yul\":11766:11792   */\n  mload\n    /* \"#utility.yul\":11757:11792   */\n  swap1\n  pop\n    /* \"#utility.yul\":11729:11806   */\ntag_192:\n    /* \"#utility.yul\":11832:11899   */\n  tag_193\n    /* \"#utility.yul\":11892:11898   */\n  dup6\n    /* \"#utility.yul\":11885:11890   */\n  dup3\n    /* \"#utility.yul\":11832:11899   */\n  tag_59\n  jump\t// in\ntag_193:\n    /* \"#utility.yul\":11826:11830   */\n  dup7\n    /* \"#utility.yul\":11819:11900   */\n  sstore\n    /* \"#utility.yul\":11688:11910   */\n  pop\n    /* \"#utility.yul\":11023:11910   */\n  jump(tag_190)\n    /* \"#utility.yul\":11053:11671   */\ntag_191:\n    /* \"#utility.yul\":11105:11109   */\n  0x1f\n    /* \"#utility.yul\":11101:11110   */\n  not\n    /* \"#utility.yul\":11093:11099   */\n  dup5\n    /* \"#utility.yul\":11089:11111   */\n  and\n    /* \"#utility.yul\":11139:11176   */\n  tag_194\n    /* \"#utility.yul\":11171:11175   */\n  dup7\n    /* \"#utility.yul\":11139:11176   */\n  tag_45\n  jump\t// in\ntag_194:\n    /* \"#utility.yul\":11198:11199   */\n  0x00\n    /* \"#utility.yul\":11212:11420   */\ntag_195:\n    /* \"#utility.yul\":11226:11233   */\n  dup3\n    /* \"#utility.yul\":11223:11224   */\n  dup2\n    /* \"#utility.yul\":11220:11234   */\n  lt\n    /* \"#utility.yul\":11212:11420   */\n  iszero\n  tag_197\n  jumpi\n    /* \"#utility.yul\":11305:11314   */\n  dup5\n    /* \"#utility.yul\":11300:11303   */\n  dup10\n    /* \"#utility.yul\":11296:11315   */\n  add\n    /* \"#utility.yul\":11290:11316   */\n  mload\n    /* \"#utility.yul\":11282:11288   */\n  dup3\n    /* \"#utility.yul\":11275:11317   */\n  sstore\n    /* \"#utility.yul\":11356:11357   */\n  0x01\n    /* \"#utility.yul\":11348:11354   */\n  dup3\n    /* \"#utility.yul\":11344:11358   */\n  add\n    /* \"#utility.yul\":11334:11358   */\n  swap2\n  pop\n    /* \"#utility.yul\":11403:11405   */\n  0x20\n    /* \"#utility.yul\":11392:11401   */\n  dup6\n    /* \"#utility.yul\":11388:11406   */\n  add\n    /* \"#utility.yul\":11375:11406   */\n  swap5\n  pop\n    /* \"#utility.yul\":11249:11253   */\n  0x20\n    /* \"#utility.yul\":11246:11247   */\n  dup2\n    /* \"#utility.yul\":11242:11254   */\n  add\n    /* \"#utility.yul\":11237:11254   */\n  swap1\n  pop\n    /* \"#utility.yul\":11212:11420   */\n  jump(tag_195)\ntag_197:\n    /* \"#utility.yul\":11448:11454   */\n  dup7\n    /* \"#utility.yul\":11439:11446   */\n  dup4\n    /* \"#utility.yul\":11436:11455   */\n  lt\n    /* \"#utility.yul\":11433:11612   */\n  iszero\n  tag_198\n  jumpi\n    /* \"#utility.yul\":11506:11515   */\n  dup5\n    /* \"#utility.yul\":11501:11504   */\n  dup10\n    /* \"#utility.yul\":11497:11516   */\n  add\n    /* \"#utility.yul\":11491:11517   */\n  mload\n    /* \"#utility.yul\":11549:11597   */\n  tag_199\n    /* \"#utility.yul\":11591:11595   */\n  0x1f\n    /* \"#utility.yul\":11583:11589   */\n  dup10\n    /* \"#utility.yul\":11579:11596   */\n  and\n    /* \"#utility.yul\":11568:11577   */\n  dup3\n    /* \"#utility.yul\":11549:11597   */\n  tag_58\n  jump\t// in\ntag_199:\n    /* \"#utility.yul\":11541:11547   */\n  dup4\n    /* \"#utility.yul\":11534:11598   */\n  sstore\n    /* \"#utility.yul\":11456:11612   */\n  pop\n    /* \"#utility.yul\":11433:11612   */\ntag_198:\n    /* \"#utility.yul\":11658:11659   */\n  0x01\n    /* \"#utility.yul\":11654:11655   */\n  0x02\n    /* \"#utility.yul\":11646:11652   */\n  dup9\n    /* \"#utility.yul\":11642:11656   */\n  mul\n    /* \"#utility.yul\":11638:11660   */\n  add\n    /* \"#utility.yul\":11632:11636   */\n  dup9\n    /* \"#utility.yul\":11625:11661   */\n  sstore\n    /* \"#utility.yul\":11060:11671   */\n  pop\n  pop\n  pop\n    /* \"#utility.yul\":11023:11910   */\ntag_190:\n  pop\n    /* \"#utility.yul\":10613:11916   */\n  pop\n  pop\n  pop\n    /* \"#utility.yul\":10521:11916   */\n  pop\n  pop\n  jump\t// out\n    /* \"src/VotingPower.sol\":758:4102  contract VotingPower {... */\ntag_16:\n  dataSize(sub_0)\n  dup1\n  dataOffset(sub_0)\n  0x00\n  codecopy\n  0x00\n  return\nstop\n\nsub_0: assembly {\n        /* \"src/VotingPower.sol\":758:4102  contract VotingPower {... */\n      mstore(0x40, 0x80)\n      callvalue\n      dup1\n      iszero\n      tag_1\n      jumpi\n      0x00\n      dup1\n      revert\n    tag_1:\n      pop\n      jumpi(tag_2, lt(calldatasize, 0x04))\n      shr(0xe0, calldataload(0x00))\n      dup1\n      0x60b4a60c\n      gt\n      tag_16\n      jumpi\n      dup1\n      0x8d6ce61b\n      gt\n      tag_17\n      jumpi\n      dup1\n      0x8d6ce61b\n      eq\n      tag_12\n      jumpi\n      dup1\n      0x9698f8f3\n      eq\n      tag_13\n      jumpi\n      dup1\n      0xcd58a07c\n      eq\n      tag_14\n      jumpi\n      dup1\n      0xf30d558c\n      eq\n      tag_15\n      jumpi\n      jump(tag_2)\n    tag_17:\n      dup1\n      0x60b4a60c\n      eq\n      tag_9\n      jumpi\n      dup1\n      0x63ef0635\n      eq\n      tag_10\n      jumpi\n      dup1\n      0x855f84d2\n      eq\n      tag_11\n      jumpi\n      jump(tag_2)\n    tag_16:\n      dup1\n      0x128d8711\n      eq\n      tag_3\n      jumpi\n      dup1\n      0x1b1ed5a9\n      eq\n      tag_4\n      jumpi\n      dup1\n      0x1e0daf7b\n      eq\n      tag_5\n      jumpi\n      dup1\n      0x3742186a\n      eq\n      tag_6\n      jumpi\n      dup1\n      0x568e69c8\n      eq\n      tag_7\n      jumpi\n      dup1\n      0x5e8e82f2\n      eq\n      tag_8\n      jumpi\n    tag_2:\n      0x00\n      dup1\n      revert\n        /* \"src/VotingPower.sol\":3092:3510  function vote(... */\n    tag_3:\n      tag_18\n      0x04\n      dup1\n      calldatasize\n      sub\n      dup2\n      add\n      swap1\n      tag_19\n      swap2\n      swap1\n      tag_20\n      jump\t// in\n    tag_19:\n      tag_21\n      jump\t// in\n    tag_18:\n      stop\n        /* \"src/VotingPower.sol\":3516:4100  function allowed(string memory _biometricalData) public returns (bool) {... */\n    tag_4:\n      tag_22\n      0x04\n      dup1\n      calldatasize\n      sub\n      dup2\n      add\n      swap1\n      tag_23\n      swap2\n      swap1\n      tag_24\n      jump\t// in\n    tag_23:\n      tag_25\n      jump\t// in\n    tag_22:\n      mload(0x40)\n      tag_26\n      swap2\n      swap1\n      tag_27\n      jump\t// in\n    tag_26:\n      mload(0x40)\n      dup1\n      swap2\n      sub\n      swap1\n      return\n        /* \"src/VotingPower.sol\":1564:1728  function getRequirements(address _toCheck)... */\n    tag_5:\n      tag_28\n      0x04\n      dup1\n      calldatasize\n      sub\n      dup2\n      add\n      swap1\n      tag_29\n      swap2\n      swap1\n      tag_30\n      jump\t// in\n    tag_29:\n      tag_31\n      jump\t// in\n    tag_28:\n      mload(0x40)\n      tag_32\n      swap2\n      swap1\n      tag_33\n      jump\t// in\n    tag_32:\n      mload(0x40)\n      dup1\n      swap2\n      sub\n      swap1\n      return\n        /* \"src/VotingPower.sol\":785:830  mapping(address => bool) public allowedToVote */\n    tag_6:\n      tag_34\n      0x04\n      dup1\n      calldatasize\n      sub\n      dup2\n      add\n      swap1\n      tag_35\n      swap2\n      swap1\n      tag_30\n      jump\t// in\n    tag_35:\n      tag_36\n      jump\t// in\n    tag_34:\n      mload(0x40)\n      tag_37\n      swap2\n      swap1\n      tag_27\n      jump\t// in\n    tag_37:\n      mload(0x40)\n      dup1\n      swap2\n      sub\n      swap1\n      return\n        /* \"src/VotingPower.sol\":996:1028  uint256 public neededVoteToAllow */\n    tag_7:\n      tag_38\n      tag_39\n      jump\t// in\n    tag_38:\n      mload(0x40)\n      tag_40\n      swap2\n      swap1\n      tag_41\n      jump\t// in\n    tag_40:\n      mload(0x40)\n      dup1\n      swap2\n      sub\n      swap1\n      return\n        /* \"src/VotingPower.sol\":836:893  mapping(address => SubmitRequirement) public requirements */\n    tag_8:\n      tag_42\n      0x04\n      dup1\n      calldatasize\n      sub\n      dup2\n      add\n      swap1\n      tag_43\n      swap2\n      swap1\n      tag_30\n      jump\t// in\n    tag_43:\n      tag_44\n      jump\t// in\n    tag_42:\n      mload(0x40)\n      tag_45\n      swap3\n      swap2\n      swap1\n      tag_46\n      jump\t// in\n    tag_45:\n      mload(0x40)\n      dup1\n      swap2\n      sub\n      swap1\n      return\n        /* \"src/VotingPower.sol\":2145:2588  function alreadyVoted(address _voterToCheck, address _requirementWallet)... */\n    tag_9:\n      tag_47\n      0x04\n      dup1\n      calldatasize\n      sub\n      dup2\n      add\n      swap1\n      tag_48\n      swap2\n      swap1\n      tag_49\n      jump\t// in\n    tag_48:\n      tag_50\n      jump\t// in\n    tag_47:\n      mload(0x40)\n      tag_51\n      swap2\n      swap1\n      tag_27\n      jump\t// in\n    tag_51:\n      mload(0x40)\n      dup1\n      swap2\n      sub\n      swap1\n      return\n        /* \"src/VotingPower.sol\":1903:2020  function checkAlreadyVoted(address _requiredUser, address _voterToCheck)... */\n    tag_10:\n      tag_52\n      0x04\n      dup1\n      calldatasize\n      sub\n      dup2\n      add\n      swap1\n      tag_53\n      swap2\n      swap1\n      tag_49\n      jump\t// in\n    tag_53:\n      tag_54\n      jump\t// in\n    tag_52:\n      mload(0x40)\n      tag_55\n      swap2\n      swap1\n      tag_27\n      jump\t// in\n    tag_55:\n      mload(0x40)\n      dup1\n      swap2\n      sub\n      swap1\n      return\n        /* \"src/VotingPower.sol\":1734:1897  function getRequirementsVotes(address _toCheck)... */\n    tag_11:\n      tag_56\n      0x04\n      dup1\n      calldatasize\n      sub\n      dup2\n      add\n      swap1\n      tag_57\n      swap2\n      swap1\n      tag_30\n      jump\t// in\n    tag_57:\n      tag_58\n      jump\t// in\n    tag_56:\n      mload(0x40)\n      tag_59\n      swap2\n      swap1\n      tag_60\n      jump\t// in\n    tag_59:\n      mload(0x40)\n      dup1\n      swap2\n      sub\n      swap1\n      return\n        /* \"src/VotingPower.sol\":2026:2139  function getAllRequirementsList() public view returns (address[] memory) {... */\n    tag_12:\n      tag_61\n      tag_62\n      jump\t// in\n    tag_61:\n      mload(0x40)\n      tag_63\n      swap2\n      swap1\n      tag_64\n      jump\t// in\n    tag_63:\n      mload(0x40)\n      dup1\n      swap2\n      sub\n      swap1\n      return\n        /* \"src/VotingPower.sol\":2594:3086  function submitRequirement(... */\n    tag_13:\n      tag_65\n      0x04\n      dup1\n      calldatasize\n      sub\n      dup2\n      add\n      swap1\n      tag_66\n      swap2\n      swap1\n      tag_67\n      jump\t// in\n    tag_66:\n      tag_68\n      jump\t// in\n    tag_65:\n      stop\n        /* \"src/VotingPower.sol\":1034:1069  IFakeWorldCoin public fakeWorldCoin */\n    tag_14:\n      tag_69\n      tag_70\n      jump\t// in\n    tag_69:\n      mload(0x40)\n      tag_71\n      swap2\n      swap1\n      tag_72\n      jump\t// in\n    tag_71:\n      mload(0x40)\n      dup1\n      swap2\n      sub\n      swap1\n      return\n        /* \"src/VotingPower.sol\":899:950  mapping(address => Vote[]) public requirementsVoted */\n    tag_15:\n      tag_73\n      0x04\n      dup1\n      calldatasize\n      sub\n      dup2\n      add\n      swap1\n      tag_74\n      swap2\n      swap1\n      tag_75\n      jump\t// in\n    tag_74:\n      tag_76\n      jump\t// in\n    tag_73:\n      mload(0x40)\n      tag_77\n      swap3\n      swap2\n      swap1\n      tag_78\n      jump\t// in\n    tag_77:\n      mload(0x40)\n      dup1\n      swap2\n      sub\n      swap1\n      return\n        /* \"src/VotingPower.sol\":3092:3510  function vote(... */\n    tag_21:\n        /* \"src/VotingPower.sol\":3218:3231  allowedToVote */\n      0x00\n        /* \"src/VotingPower.sol\":3218:3242  allowedToVote[_voteFrom] */\n      dup1\n        /* \"src/VotingPower.sol\":3232:3241  _voteFrom */\n      dup5\n        /* \"src/VotingPower.sol\":3218:3242  allowedToVote[_voteFrom] */\n      0xffffffffffffffffffffffffffffffffffffffff\n      and\n      0xffffffffffffffffffffffffffffffffffffffff\n      and\n      dup2\n      mstore\n      0x20\n      add\n      swap1\n      dup2\n      mstore\n      0x20\n      add\n      0x00\n      keccak256\n      0x00\n      swap1\n      sload\n      swap1\n      0x0100\n      exp\n      swap1\n      div\n      0xff\n      and\n        /* \"src/VotingPower.sol\":3210:3262  require(allowedToVote[_voteFrom], \"You can't  vote\") */\n      tag_80\n      jumpi\n      mload(0x40)\n      0x08c379a000000000000000000000000000000000000000000000000000000000\n      dup2\n      mstore\n      0x04\n      add\n      tag_81\n      swap1\n      tag_82\n      jump\t// in\n    tag_81:\n      mload(0x40)\n      dup1\n      swap2\n      sub\n      swap1\n      revert\n    tag_80:\n        /* \"src/VotingPower.sol\":3294:3306  requirements */\n      0x01\n        /* \"src/VotingPower.sol\":3294:3322  requirements[_addressToVote] */\n      0x00\n        /* \"src/VotingPower.sol\":3307:3321  _addressToVote */\n      dup4\n        /* \"src/VotingPower.sol\":3294:3322  requirements[_addressToVote] */\n      0xffffffffffffffffffffffffffffffffffffffff\n      and\n      0xffffffffffffffffffffffffffffffffffffffff\n      and\n      dup2\n      mstore\n      0x20\n      add\n      swap1\n      dup2\n      mstore\n      0x20\n      add\n      0x00\n      keccak256\n        /* \"src/VotingPower.sol\":3294:3331  requirements[_addressToVote].subimted */\n      0x01\n      add\n      0x00\n      swap1\n      sload\n      swap1\n      0x0100\n      exp\n      swap1\n      div\n      0xff\n      and\n        /* \"src/VotingPower.sol\":3273:3397  require(... */\n      tag_83\n      jumpi\n      mload(0x40)\n      0x08c379a000000000000000000000000000000000000000000000000000000000\n      dup2\n      mstore\n      0x04\n      add\n      tag_84\n      swap1\n      tag_85\n      jump\t// in\n    tag_84:\n      mload(0x40)\n      dup1\n      swap2\n      sub\n      swap1\n      revert\n    tag_83:\n        /* \"src/VotingPower.sol\":3408:3424  Vote memory vote */\n      0x00\n        /* \"src/VotingPower.sol\":3427:3449  Vote(_voteFrom, _vote) */\n      mload(0x40)\n      dup1\n      0x40\n      add\n      0x40\n      mstore\n      dup1\n        /* \"src/VotingPower.sol\":3432:3441  _voteFrom */\n      dup6\n        /* \"src/VotingPower.sol\":3427:3449  Vote(_voteFrom, _vote) */\n      0xffffffffffffffffffffffffffffffffffffffff\n      and\n      dup2\n      mstore\n      0x20\n      add\n        /* \"src/VotingPower.sol\":3443:3448  _vote */\n      dup4\n        /* \"src/VotingPower.sol\":3427:3449  Vote(_voteFrom, _vote) */\n      iszero\n      iszero\n      dup2\n      mstore\n      pop\n        /* \"src/VotingPower.sol\":3408:3449  Vote memory vote = Vote(_voteFrom, _vote) */\n      swap1\n      pop\n        /* \"src/VotingPower.sol\":3459:3476  requirementsVoted */\n      0x02\n        /* \"src/VotingPower.sol\":3459:3492  requirementsVoted[_addressToVote] */\n      0x00\n        /* \"src/VotingPower.sol\":3477:3491  _addressToVote */\n      dup5\n        /* \"src/VotingPower.sol\":3459:3492  requirementsVoted[_addressToVote] */\n      0xffffffffffffffffffffffffffffffffffffffff\n      and\n      0xffffffffffffffffffffffffffffffffffffffff\n      and\n      dup2\n      mstore\n      0x20\n      add\n      swap1\n      dup2\n      mstore\n      0x20\n      add\n      0x00\n      keccak256\n        /* \"src/VotingPower.sol\":3498:3502  vote */\n      dup2\n        /* \"src/VotingPower.sol\":3459:3503  requirementsVoted[_addressToVote].push(vote) */\n      swap1\n      dup1\n      0x01\n      dup2\n      sload\n      add\n      dup1\n      dup3\n      sstore\n      dup1\n      swap2\n      pop\n      pop\n      0x01\n      swap1\n      sub\n      swap1\n      0x00\n      mstore\n      keccak256(0x00, 0x20)\n      add\n      0x00\n      swap1\n      swap2\n      swap1\n      swap2\n      swap1\n      swap2\n      pop\n      0x00\n      dup3\n      add\n      mload\n      dup2\n      0x00\n      add\n      exp(0x0100, 0x00)\n      dup2\n      sload\n      dup2\n      0xffffffffffffffffffffffffffffffffffffffff\n      mul\n      not\n      and\n      swap1\n      dup4\n      0xffffffffffffffffffffffffffffffffffffffff\n      and\n      mul\n      or\n      swap1\n      sstore\n      pop\n      0x20\n      dup3\n      add\n      mload\n      dup2\n      0x00\n      add\n      exp(0x0100, 0x14)\n      dup2\n      sload\n      dup2\n      0xff\n      mul\n      not\n      and\n      swap1\n      dup4\n      iszero\n      iszero\n      mul\n      or\n      swap1\n      sstore\n      pop\n      pop\n      pop\n        /* \"src/VotingPower.sol\":3200:3510  {... */\n      pop\n        /* \"src/VotingPower.sol\":3092:3510  function vote(... */\n      pop\n      pop\n      pop\n      jump\t// out\n        /* \"src/VotingPower.sol\":3516:4100  function allowed(string memory _biometricalData) public returns (bool) {... */\n    tag_25:\n        /* \"src/VotingPower.sol\":3581:3585  bool */\n      0x00\n        /* \"src/VotingPower.sol\":3597:3619  address addressToCheck */\n      dup1\n        /* \"src/VotingPower.sol\":3622:3635  fakeWorldCoin */\n      0x05\n      0x00\n      swap1\n      sload\n      swap1\n      0x0100\n      exp\n      swap1\n      div\n      0xffffffffffffffffffffffffffffffffffffffff\n      and\n        /* \"src/VotingPower.sol\":3622:3651  fakeWorldCoin.biometricalData */\n      0xffffffffffffffffffffffffffffffffffffffff\n      and\n      0x889f1d69\n        /* \"src/VotingPower.sol\":3665:3681  _biometricalData */\n      dup5\n        /* \"src/VotingPower.sol\":3622:3691  fakeWorldCoin.biometricalData(... */\n      mload(0x40)\n      dup3\n      0xffffffff\n      and\n      0xe0\n      shl\n      dup2\n      mstore\n      0x04\n      add\n      tag_88\n      swap2\n      swap1\n      tag_89\n      jump\t// in\n    tag_88:\n      0x20\n      mload(0x40)\n      dup1\n      dup4\n      sub\n      dup2\n      0x00\n      dup8\n      gas\n      call\n      iszero\n      dup1\n      iszero\n      tag_91\n      jumpi\n      returndatasize\n      0x00\n      dup1\n      returndatacopy\n      revert(0x00, returndatasize)\n    tag_91:\n      pop\n      pop\n      pop\n      pop\n      mload(0x40)\n      returndatasize\n      not(0x1f)\n      0x1f\n      dup3\n      add\n      and\n      dup3\n      add\n      dup1\n      0x40\n      mstore\n      pop\n      dup2\n      add\n      swap1\n      tag_92\n      swap2\n      swap1\n      tag_93\n      jump\t// in\n    tag_92:\n        /* \"src/VotingPower.sol\":3597:3691  address addressToCheck = fakeWorldCoin.biometricalData(... */\n      swap1\n      pop\n        /* \"src/VotingPower.sol\":3701:3720  Vote[] memory votes */\n      0x00\n        /* \"src/VotingPower.sol\":3723:3740  requirementsVoted */\n      0x02\n        /* \"src/VotingPower.sol\":3723:3756  requirementsVoted[addressToCheck] */\n      0x00\n        /* \"src/VotingPower.sol\":3741:3755  addressToCheck */\n      dup4\n        /* \"src/VotingPower.sol\":3723:3756  requirementsVoted[addressToCheck] */\n      0xffffffffffffffffffffffffffffffffffffffff\n      and\n      0xffffffffffffffffffffffffffffffffffffffff\n      and\n      dup2\n      mstore\n      0x20\n      add\n      swap1\n      dup2\n      mstore\n      0x20\n      add\n      0x00\n      keccak256\n        /* \"src/VotingPower.sol\":3701:3756  Vote[] memory votes = requirementsVoted[addressToCheck] */\n      dup1\n      sload\n      dup1\n      0x20\n      mul\n      0x20\n      add\n      mload(0x40)\n      swap1\n      dup2\n      add\n      0x40\n      mstore\n      dup1\n      swap3\n      swap2\n      swap1\n      dup2\n      dup2\n      mstore\n      0x20\n      add\n      0x00\n      swap1\n    tag_94:\n      dup3\n      dup3\n      lt\n      iszero\n      tag_95\n      jumpi\n      dup4\n      dup3\n      swap1\n      0x00\n      mstore\n      keccak256(0x00, 0x20)\n      add\n      mload(0x40)\n      dup1\n      0x40\n      add\n      0x40\n      mstore\n      swap1\n      dup2\n      0x00\n      dup3\n      add\n      0x00\n      swap1\n      sload\n      swap1\n      0x0100\n      exp\n      swap1\n      div\n      0xffffffffffffffffffffffffffffffffffffffff\n      and\n      0xffffffffffffffffffffffffffffffffffffffff\n      and\n      0xffffffffffffffffffffffffffffffffffffffff\n      and\n      dup2\n      mstore\n      0x20\n      add\n      0x00\n      dup3\n      add\n      0x14\n      swap1\n      sload\n      swap1\n      0x0100\n      exp\n      swap1\n      div\n      0xff\n      and\n      iszero\n      iszero\n      iszero\n      iszero\n      dup2\n      mstore\n      pop\n      pop\n      dup2\n      mstore\n      0x20\n      add\n      swap1\n      0x01\n      add\n      swap1\n      jump(tag_94)\n    tag_95:\n      pop\n      pop\n      pop\n      pop\n      swap1\n      pop\n        /* \"src/VotingPower.sol\":3766:3784  uint256 totalCount */\n      0x00\n        /* \"src/VotingPower.sol\":3803:3812  uint256 i */\n      dup1\n        /* \"src/VotingPower.sol\":3798:3969  for (uint256 i = 0; i < votes.length; i++) {... */\n    tag_97:\n        /* \"src/VotingPower.sol\":3822:3827  votes */\n      dup3\n        /* \"src/VotingPower.sol\":3822:3834  votes.length */\n      mload\n        /* \"src/VotingPower.sol\":3818:3819  i */\n      dup2\n        /* \"src/VotingPower.sol\":3818:3834  i < votes.length */\n      lt\n        /* \"src/VotingPower.sol\":3798:3969  for (uint256 i = 0; i < votes.length; i++) {... */\n      iszero\n      tag_98\n      jumpi\n        /* \"src/VotingPower.sol\":3855:3871  Vote memory vote */\n      0x00\n        /* \"src/VotingPower.sol\":3874:3879  votes */\n      dup4\n        /* \"src/VotingPower.sol\":3880:3881  i */\n      dup3\n        /* \"src/VotingPower.sol\":3874:3882  votes[i] */\n      dup2\n      mload\n      dup2\n      lt\n      tag_100\n      jumpi\n      tag_101\n      tag_102\n      jump\t// in\n    tag_101:\n    tag_100:\n      0x20\n      mul\n      0x20\n      add\n      add\n      mload\n        /* \"src/VotingPower.sol\":3855:3882  Vote memory vote = votes[i] */\n      swap1\n      pop\n        /* \"src/VotingPower.sol\":3900:3904  vote */\n      dup1\n        /* \"src/VotingPower.sol\":3900:3909  vote.vote */\n      0x20\n      add\n      mload\n        /* \"src/VotingPower.sol\":3896:3959  if (vote.vote) {... */\n      iszero\n      tag_103\n      jumpi\n        /* \"src/VotingPower.sol\":3943:3944  1 */\n      0x01\n        /* \"src/VotingPower.sol\":3929:3944  totalCount += 1 */\n      dup4\n      tag_104\n      swap2\n      swap1\n      tag_105\n      jump\t// in\n    tag_104:\n      swap3\n      pop\n        /* \"src/VotingPower.sol\":3896:3959  if (vote.vote) {... */\n    tag_103:\n        /* \"src/VotingPower.sol\":3841:3969  {... */\n      pop\n        /* \"src/VotingPower.sol\":3836:3839  i++ */\n      dup1\n      dup1\n      tag_106\n      swap1\n      tag_107\n      jump\t// in\n    tag_106:\n      swap2\n      pop\n      pop\n        /* \"src/VotingPower.sol\":3798:3969  for (uint256 i = 0; i < votes.length; i++) {... */\n      jump(tag_97)\n    tag_98:\n      pop\n        /* \"src/VotingPower.sol\":3996:4013  neededVoteToAllow */\n      sload(0x04)\n        /* \"src/VotingPower.sol\":3982:3992  totalCount */\n      dup2\n        /* \"src/VotingPower.sol\":3982:4013  totalCount >= neededVoteToAllow */\n      lt\n        /* \"src/VotingPower.sol\":3978:4094  if (totalCount >= neededVoteToAllow) {... */\n      tag_108\n      jumpi\n        /* \"src/VotingPower.sol\":4036:4040  true */\n      0x01\n        /* \"src/VotingPower.sol\":4029:4040  return true */\n      swap4\n      pop\n      pop\n      pop\n      pop\n      jump(tag_87)\n        /* \"src/VotingPower.sol\":3978:4094  if (totalCount >= neededVoteToAllow) {... */\n    tag_108:\n        /* \"src/VotingPower.sol\":4078:4083  false */\n      0x00\n        /* \"src/VotingPower.sol\":4071:4083  return false */\n      swap4\n      pop\n      pop\n      pop\n      pop\n        /* \"src/VotingPower.sol\":3516:4100  function allowed(string memory _biometricalData) public returns (bool) {... */\n    tag_87:\n      swap2\n      swap1\n      pop\n      jump\t// out\n        /* \"src/VotingPower.sol\":1564:1728  function getRequirements(address _toCheck)... */\n    tag_31:\n        /* \"src/VotingPower.sol\":1652:1676  SubmitRequirement memory */\n      tag_110\n      tag_111\n      jump\t// in\n    tag_110:\n        /* \"src/VotingPower.sol\":1699:1711  requirements */\n      0x01\n        /* \"src/VotingPower.sol\":1699:1721  requirements[_toCheck] */\n      0x00\n        /* \"src/VotingPower.sol\":1712:1720  _toCheck */\n      dup4\n        /* \"src/VotingPower.sol\":1699:1721  requirements[_toCheck] */\n      0xffffffffffffffffffffffffffffffffffffffff\n      and\n      0xffffffffffffffffffffffffffffffffffffffff\n      and\n      dup2\n      mstore\n      0x20\n      add\n      swap1\n      dup2\n      mstore\n      0x20\n      add\n      0x00\n      keccak256\n        /* \"src/VotingPower.sol\":1692:1721  return requirements[_toCheck] */\n      mload(0x40)\n      dup1\n      0x60\n      add\n      0x40\n      mstore\n      swap1\n      dup2\n      0x00\n      dup3\n      add\n      dup1\n      sload\n      tag_113\n      swap1\n      tag_114\n      jump\t// in\n    tag_113:\n      dup1\n      0x1f\n      add\n      0x20\n      dup1\n      swap2\n      div\n      mul\n      0x20\n      add\n      mload(0x40)\n      swap1\n      dup2\n      add\n      0x40\n      mstore\n      dup1\n      swap3\n      swap2\n      swap1\n      dup2\n      dup2\n      mstore\n      0x20\n      add\n      dup3\n      dup1\n      sload\n      tag_115\n      swap1\n      tag_114\n      jump\t// in\n    tag_115:\n      dup1\n      iszero\n      tag_116\n      jumpi\n      dup1\n      0x1f\n      lt\n      tag_117\n      jumpi\n      0x0100\n      dup1\n      dup4\n      sload\n      div\n      mul\n      dup4\n      mstore\n      swap2\n      0x20\n      add\n      swap2\n      jump(tag_116)\n    tag_117:\n      dup3\n      add\n      swap2\n      swap1\n      0x00\n      mstore\n      keccak256(0x00, 0x20)\n      swap1\n    tag_118:\n      dup2\n      sload\n      dup2\n      mstore\n      swap1\n      0x01\n      add\n      swap1\n      0x20\n      add\n      dup1\n      dup4\n      gt\n      tag_118\n      jumpi\n      dup3\n      swap1\n      sub\n      0x1f\n      and\n      dup3\n      add\n      swap2\n    tag_116:\n      pop\n      pop\n      pop\n      pop\n      pop\n      dup2\n      mstore\n      0x20\n      add\n      0x01\n      dup3\n      add\n      0x00\n      swap1\n      sload\n      swap1\n      0x0100\n      exp\n      swap1\n      div\n      0xff\n      and\n      iszero\n      iszero\n      iszero\n      iszero\n      dup2\n      mstore\n      0x20\n      add\n      0x02\n      dup3\n      add\n      dup1\n      sload\n      dup1\n      0x20\n      mul\n      0x20\n      add\n      mload(0x40)\n      swap1\n      dup2\n      add\n      0x40\n      mstore\n      dup1\n      swap3\n      swap2\n      swap1\n      dup2\n      dup2\n      mstore\n      0x20\n      add\n      0x00\n      swap1\n    tag_119:\n      dup3\n      dup3\n      lt\n      iszero\n      tag_120\n      jumpi\n      dup4\n      dup3\n      swap1\n      0x00\n      mstore\n      keccak256(0x00, 0x20)\n      add\n      dup1\n      sload\n      tag_122\n      swap1\n      tag_114\n      jump\t// in\n    tag_122:\n      dup1\n      0x1f\n      add\n      0x20\n      dup1\n      swap2\n      div\n      mul\n      0x20\n      add\n      mload(0x40)\n      swap1\n      dup2\n      add\n      0x40\n      mstore\n      dup1\n      swap3\n      swap2\n      swap1\n      dup2\n      dup2\n      mstore\n      0x20\n      add\n      dup3\n      dup1\n      sload\n      tag_123\n      swap1\n      tag_114\n      jump\t// in\n    tag_123:\n      dup1\n      iszero\n      tag_124\n      jumpi\n      dup1\n      0x1f\n      lt\n      tag_125\n      jumpi\n      0x0100\n      dup1\n      dup4\n      sload\n      div\n      mul\n      dup4\n      mstore\n      swap2\n      0x20\n      add\n      swap2\n      jump(tag_124)\n    tag_125:\n      dup3\n      add\n      swap2\n      swap1\n      0x00\n      mstore\n      keccak256(0x00, 0x20)\n      swap1\n    tag_126:\n      dup2\n      sload\n      dup2\n      mstore\n      swap1\n      0x01\n      add\n      swap1\n      0x20\n      add\n      dup1\n      dup4\n      gt\n      tag_126\n      jumpi\n      dup3\n      swap1\n      sub\n      0x1f\n      and\n      dup3\n      add\n      swap2\n    tag_124:\n      pop\n      pop\n      pop\n      pop\n      pop\n      dup2\n      mstore\n      0x20\n      add\n      swap1\n      0x01\n      add\n      swap1\n      jump(tag_119)\n    tag_120:\n      pop\n      pop\n      pop\n      pop\n      dup2\n      mstore\n      pop\n      pop\n      swap1\n      pop\n        /* \"src/VotingPower.sol\":1564:1728  function getRequirements(address _toCheck)... */\n      swap2\n      swap1\n      pop\n      jump\t// out\n        /* \"src/VotingPower.sol\":785:830  mapping(address => bool) public allowedToVote */\n    tag_36:\n      mstore(0x20, 0x00)\n      dup1\n      0x00\n      mstore\n      keccak256(0x00, 0x40)\n      0x00\n      swap2\n      pop\n      sload\n      swap1\n      0x0100\n      exp\n      swap1\n      div\n      0xff\n      and\n      dup2\n      jump\t// out\n        /* \"src/VotingPower.sol\":996:1028  uint256 public neededVoteToAllow */\n    tag_39:\n      sload(0x04)\n      dup2\n      jump\t// out\n        /* \"src/VotingPower.sol\":836:893  mapping(address => SubmitRequirement) public requirements */\n    tag_44:\n      mstore(0x20, 0x01)\n      dup1\n      0x00\n      mstore\n      keccak256(0x00, 0x40)\n      0x00\n      swap2\n      pop\n      swap1\n      pop\n      dup1\n      0x00\n      add\n      dup1\n      sload\n      tag_127\n      swap1\n      tag_114\n      jump\t// in\n    tag_127:\n      dup1\n      0x1f\n      add\n      0x20\n      dup1\n      swap2\n      div\n      mul\n      0x20\n      add\n      mload(0x40)\n      swap1\n      dup2\n      add\n      0x40\n      mstore\n      dup1\n      swap3\n      swap2\n      swap1\n      dup2\n      dup2\n      mstore\n      0x20\n      add\n      dup3\n      dup1\n      sload\n      tag_128\n      swap1\n      tag_114\n      jump\t// in\n    tag_128:\n      dup1\n      iszero\n      tag_129\n      jumpi\n      dup1\n      0x1f\n      lt\n      tag_130\n      jumpi\n      0x0100\n      dup1\n      dup4\n      sload\n      div\n      mul\n      dup4\n      mstore\n      swap2\n      0x20\n      add\n      swap2\n      jump(tag_129)\n    tag_130:\n      dup3\n      add\n      swap2\n      swap1\n      0x00\n      mstore\n      keccak256(0x00, 0x20)\n      swap1\n    tag_131:\n      dup2\n      sload\n      dup2\n      mstore\n      swap1\n      0x01\n      add\n      swap1\n      0x20\n      add\n      dup1\n      dup4\n      gt\n      tag_131\n      jumpi\n      dup3\n      swap1\n      sub\n      0x1f\n      and\n      dup3\n      add\n      swap2\n    tag_129:\n      pop\n      pop\n      pop\n      pop\n      pop\n      swap1\n      dup1\n      0x01\n      add\n      0x00\n      swap1\n      sload\n      swap1\n      0x0100\n      exp\n      swap1\n      div\n      0xff\n      and\n      swap1\n      pop\n      dup3\n      jump\t// out\n        /* \"src/VotingPower.sol\":2145:2588  function alreadyVoted(address _voterToCheck, address _requirementWallet)... */\n    tag_50:\n        /* \"src/VotingPower.sol\":2263:2267  bool */\n      0x00\n        /* \"src/VotingPower.sol\":2283:2309  Vote[] memory votesToCheck */\n      dup1\n        /* \"src/VotingPower.sol\":2312:2329  requirementsVoted */\n      0x02\n        /* \"src/VotingPower.sol\":2312:2349  requirementsVoted[_requirementWallet] */\n      0x00\n        /* \"src/VotingPower.sol\":2330:2348  _requirementWallet */\n      dup5\n        /* \"src/VotingPower.sol\":2312:2349  requirementsVoted[_requirementWallet] */\n      0xffffffffffffffffffffffffffffffffffffffff\n      and\n      0xffffffffffffffffffffffffffffffffffffffff\n      and\n      dup2\n      mstore\n      0x20\n      add\n      swap1\n      dup2\n      mstore\n      0x20\n      add\n      0x00\n      keccak256\n        /* \"src/VotingPower.sol\":2283:2349  Vote[] memory votesToCheck = requirementsVoted[_requirementWallet] */\n      dup1\n      sload\n      dup1\n      0x20\n      mul\n      0x20\n      add\n      mload(0x40)\n      swap1\n      dup2\n      add\n      0x40\n      mstore\n      dup1\n      swap3\n      swap2\n      swap1\n      dup2\n      dup2\n      mstore\n      0x20\n      add\n      0x00\n      swap1\n    tag_133:\n      dup3\n      dup3\n      lt\n      iszero\n      tag_134\n      jumpi\n      dup4\n      dup3\n      swap1\n      0x00\n      mstore\n      keccak256(0x00, 0x20)\n      add\n      mload(0x40)\n      dup1\n      0x40\n      add\n      0x40\n      mstore\n      swap1\n      dup2\n      0x00\n      dup3\n      add\n      0x00\n      swap1\n      sload\n      swap1\n      0x0100\n      exp\n      swap1\n      div\n      0xffffffffffffffffffffffffffffffffffffffff\n      and\n      0xffffffffffffffffffffffffffffffffffffffff\n      and\n      0xffffffffffffffffffffffffffffffffffffffff\n      and\n      dup2\n      mstore\n      0x20\n      add\n      0x00\n      dup3\n      add\n      0x14\n      swap1\n      sload\n      swap1\n      0x0100\n      exp\n      swap1\n      div\n      0xff\n      and\n      iszero\n      iszero\n      iszero\n      iszero\n      dup2\n      mstore\n      pop\n      pop\n      dup2\n      mstore\n      0x20\n      add\n      swap1\n      0x01\n      add\n      swap1\n      jump(tag_133)\n    tag_134:\n      pop\n      pop\n      pop\n      pop\n      swap1\n      pop\n        /* \"src/VotingPower.sol\":2364:2373  uint256 i */\n      0x00\n        /* \"src/VotingPower.sol\":2359:2560  for (uint256 i = 0; i < votesToCheck.length; i++) {... */\n    tag_136:\n        /* \"src/VotingPower.sol\":2383:2395  votesToCheck */\n      dup2\n        /* \"src/VotingPower.sol\":2383:2402  votesToCheck.length */\n      mload\n        /* \"src/VotingPower.sol\":2379:2380  i */\n      dup2\n        /* \"src/VotingPower.sol\":2379:2402  i < votesToCheck.length */\n      lt\n        /* \"src/VotingPower.sol\":2359:2560  for (uint256 i = 0; i < votesToCheck.length; i++) {... */\n      iszero\n      tag_137\n      jumpi\n        /* \"src/VotingPower.sol\":2423:2439  Vote memory vote */\n      0x00\n        /* \"src/VotingPower.sol\":2442:2454  votesToCheck */\n      dup3\n        /* \"src/VotingPower.sol\":2455:2456  i */\n      dup3\n        /* \"src/VotingPower.sol\":2442:2457  votesToCheck[i] */\n      dup2\n      mload\n      dup2\n      lt\n      tag_139\n      jumpi\n      tag_140\n      tag_102\n      jump\t// in\n    tag_140:\n    tag_139:\n      0x20\n      mul\n      0x20\n      add\n      add\n      mload\n        /* \"src/VotingPower.sol\":2423:2457  Vote memory vote = votesToCheck[i] */\n      swap1\n      pop\n        /* \"src/VotingPower.sol\":2491:2504  _voterToCheck */\n      dup6\n        /* \"src/VotingPower.sol\":2475:2504  vote.votedBy == _voterToCheck */\n      0xffffffffffffffffffffffffffffffffffffffff\n      and\n        /* \"src/VotingPower.sol\":2475:2479  vote */\n      dup2\n        /* \"src/VotingPower.sol\":2475:2487  vote.votedBy */\n      0x00\n      add\n      mload\n        /* \"src/VotingPower.sol\":2475:2504  vote.votedBy == _voterToCheck */\n      0xffffffffffffffffffffffffffffffffffffffff\n      and\n      sub\n        /* \"src/VotingPower.sol\":2471:2550  if (vote.votedBy == _voterToCheck) {... */\n      tag_141\n      jumpi\n        /* \"src/VotingPower.sol\":2531:2535  true */\n      0x01\n        /* \"src/VotingPower.sol\":2524:2535  return true */\n      swap4\n      pop\n      pop\n      pop\n      pop\n      jump(tag_132)\n        /* \"src/VotingPower.sol\":2471:2550  if (vote.votedBy == _voterToCheck) {... */\n    tag_141:\n        /* \"src/VotingPower.sol\":2409:2560  {... */\n      pop\n        /* \"src/VotingPower.sol\":2404:2407  i++ */\n      dup1\n      dup1\n      tag_142\n      swap1\n      tag_107\n      jump\t// in\n    tag_142:\n      swap2\n      pop\n      pop\n        /* \"src/VotingPower.sol\":2359:2560  for (uint256 i = 0; i < votesToCheck.length; i++) {... */\n      jump(tag_136)\n    tag_137:\n      pop\n        /* \"src/VotingPower.sol\":2576:2581  false */\n      0x00\n        /* \"src/VotingPower.sol\":2569:2581  return false */\n      swap2\n      pop\n      pop\n        /* \"src/VotingPower.sol\":2145:2588  function alreadyVoted(address _voterToCheck, address _requirementWallet)... */\n    tag_132:\n      swap3\n      swap2\n      pop\n      pop\n      jump\t// out\n        /* \"src/VotingPower.sol\":1903:2020  function checkAlreadyVoted(address _requiredUser, address _voterToCheck)... */\n    tag_54:\n        /* \"src/VotingPower.sol\":2008:2012  bool */\n      0x00\n        /* \"src/VotingPower.sol\":1903:2020  function checkAlreadyVoted(address _requiredUser, address _voterToCheck)... */\n      swap3\n      swap2\n      pop\n      pop\n      jump\t// out\n        /* \"src/VotingPower.sol\":1734:1897  function getRequirementsVotes(address _toCheck)... */\n    tag_58:\n        /* \"src/VotingPower.sol\":1827:1840  Vote[] memory */\n      0x60\n        /* \"src/VotingPower.sol\":1863:1880  requirementsVoted */\n      0x02\n        /* \"src/VotingPower.sol\":1863:1890  requirementsVoted[_toCheck] */\n      0x00\n        /* \"src/VotingPower.sol\":1881:1889  _toCheck */\n      dup4\n        /* \"src/VotingPower.sol\":1863:1890  requirementsVoted[_toCheck] */\n      0xffffffffffffffffffffffffffffffffffffffff\n      and\n      0xffffffffffffffffffffffffffffffffffffffff\n      and\n      dup2\n      mstore\n      0x20\n      add\n      swap1\n      dup2\n      mstore\n      0x20\n      add\n      0x00\n      keccak256\n        /* \"src/VotingPower.sol\":1856:1890  return requirementsVoted[_toCheck] */\n      dup1\n      sload\n      dup1\n      0x20\n      mul\n      0x20\n      add\n      mload(0x40)\n      swap1\n      dup2\n      add\n      0x40\n      mstore\n      dup1\n      swap3\n      swap2\n      swap1\n      dup2\n      dup2\n      mstore\n      0x20\n      add\n      0x00\n      swap1\n    tag_145:\n      dup3\n      dup3\n      lt\n      iszero\n      tag_146\n      jumpi\n      dup4\n      dup3\n      swap1\n      0x00\n      mstore\n      keccak256(0x00, 0x20)\n      add\n      mload(0x40)\n      dup1\n      0x40\n      add\n      0x40\n      mstore\n      swap1\n      dup2\n      0x00\n      dup3\n      add\n      0x00\n      swap1\n      sload\n      swap1\n      0x0100\n      exp\n      swap1\n      div\n      0xffffffffffffffffffffffffffffffffffffffff\n      and\n      0xffffffffffffffffffffffffffffffffffffffff\n      and\n      0xffffffffffffffffffffffffffffffffffffffff\n      and\n      dup2\n      mstore\n      0x20\n      add\n      0x00\n      dup3\n      add\n      0x14\n      swap1\n      sload\n      swap1\n      0x0100\n      exp\n      swap1\n      div\n      0xff\n      and\n      iszero\n      iszero\n      iszero\n      iszero\n      dup2\n      mstore\n      pop\n      pop\n      dup2\n      mstore\n      0x20\n      add\n      swap1\n      0x01\n      add\n      swap1\n      jump(tag_145)\n    tag_146:\n      pop\n      pop\n      pop\n      pop\n      swap1\n      pop\n        /* \"src/VotingPower.sol\":1734:1897  function getRequirementsVotes(address _toCheck)... */\n      swap2\n      swap1\n      pop\n      jump\t// out\n        /* \"src/VotingPower.sol\":2026:2139  function getAllRequirementsList() public view returns (address[] memory) {... */\n    tag_62:\n        /* \"src/VotingPower.sol\":2081:2097  address[] memory */\n      0x60\n        /* \"src/VotingPower.sol\":2116:2132  requirementsList */\n      0x03\n        /* \"src/VotingPower.sol\":2109:2132  return requirementsList */\n      dup1\n      sload\n      dup1\n      0x20\n      mul\n      0x20\n      add\n      mload(0x40)\n      swap1\n      dup2\n      add\n      0x40\n      mstore\n      dup1\n      swap3\n      swap2\n      swap1\n      dup2\n      dup2\n      mstore\n      0x20\n      add\n      dup3\n      dup1\n      sload\n      dup1\n      iszero\n      tag_149\n      jumpi\n      0x20\n      mul\n      dup3\n      add\n      swap2\n      swap1\n      0x00\n      mstore\n      keccak256(0x00, 0x20)\n      swap1\n    tag_150:\n      dup2\n      0x00\n      swap1\n      sload\n      swap1\n      0x0100\n      exp\n      swap1\n      div\n      0xffffffffffffffffffffffffffffffffffffffff\n      and\n      0xffffffffffffffffffffffffffffffffffffffff\n      and\n      dup2\n      mstore\n      0x20\n      add\n      swap1\n      0x01\n      add\n      swap1\n      dup1\n      dup4\n      gt\n      tag_150\n      jumpi\n    tag_149:\n      pop\n      pop\n      pop\n      pop\n      pop\n      swap1\n      pop\n        /* \"src/VotingPower.sol\":2026:2139  function getAllRequirementsList() public view returns (address[] memory) {... */\n      swap1\n      jump\t// out\n        /* \"src/VotingPower.sol\":2594:3086  function submitRequirement(... */\n    tag_68:\n        /* \"src/VotingPower.sol\":2740:2752  requirements */\n      0x01\n        /* \"src/VotingPower.sol\":2740:2770  requirements[_fromRequirement] */\n      0x00\n        /* \"src/VotingPower.sol\":2753:2769  _fromRequirement */\n      dup4\n        /* \"src/VotingPower.sol\":2740:2770  requirements[_fromRequirement] */\n      0xffffffffffffffffffffffffffffffffffffffff\n      and\n      0xffffffffffffffffffffffffffffffffffffffff\n      and\n      dup2\n      mstore\n      0x20\n      add\n      swap1\n      dup2\n      mstore\n      0x20\n      add\n      0x00\n      keccak256\n        /* \"src/VotingPower.sol\":2740:2779  requirements[_fromRequirement].subimted */\n      0x01\n      add\n      0x00\n      swap1\n      sload\n      swap1\n      0x0100\n      exp\n      swap1\n      div\n      0xff\n      and\n        /* \"src/VotingPower.sol\":2739:2779  !requirements[_fromRequirement].subimted */\n      iszero\n        /* \"src/VotingPower.sol\":2731:2780  require(!requirements[_fromRequirement].subimted) */\n      tag_152\n      jumpi\n      0x00\n      dup1\n      revert\n    tag_152:\n        /* \"src/VotingPower.sol\":2856:2857  1 */\n      0x01\n        /* \"src/VotingPower.sol\":2811:2824  fakeWorldCoin */\n      0x05\n      0x00\n      swap1\n      sload\n      swap1\n      0x0100\n      exp\n      swap1\n      div\n      0xffffffffffffffffffffffffffffffffffffffff\n      and\n        /* \"src/VotingPower.sol\":2811:2834  fakeWorldCoin.balanceOf */\n      0xffffffffffffffffffffffffffffffffffffffff\n      and\n      0x70a08231\n        /* \"src/VotingPower.sol\":2835:2851  _fromRequirement */\n      dup5\n        /* \"src/VotingPower.sol\":2811:2852  fakeWorldCoin.balanceOf(_fromRequirement) */\n      mload(0x40)\n      dup3\n      0xffffffff\n      and\n      0xe0\n      shl\n      dup2\n      mstore\n      0x04\n      add\n      tag_153\n      swap2\n      swap1\n      tag_154\n      jump\t// in\n    tag_153:\n      0x20\n      mload(0x40)\n      dup1\n      dup4\n      sub\n      dup2\n      dup7\n      gas\n      staticcall\n      iszero\n      dup1\n      iszero\n      tag_156\n      jumpi\n      returndatasize\n      0x00\n      dup1\n      returndatacopy\n      revert(0x00, returndatasize)\n    tag_156:\n      pop\n      pop\n      pop\n      pop\n      mload(0x40)\n      returndatasize\n      not(0x1f)\n      0x1f\n      dup3\n      add\n      and\n      dup3\n      add\n      dup1\n      0x40\n      mstore\n      pop\n      dup2\n      add\n      swap1\n      tag_157\n      swap2\n      swap1\n      tag_158\n      jump\t// in\n    tag_157:\n        /* \"src/VotingPower.sol\":2811:2857  fakeWorldCoin.balanceOf(_fromRequirement) == 1 */\n      eq\n        /* \"src/VotingPower.sol\":2790:2925  require(... */\n      tag_159\n      jumpi\n      mload(0x40)\n      0x08c379a000000000000000000000000000000000000000000000000000000000\n      dup2\n      mstore\n      0x04\n      add\n      tag_160\n      swap1\n      tag_161\n      jump\t// in\n    tag_160:\n      mload(0x40)\n      dup1\n      swap2\n      sub\n      swap1\n      revert\n    tag_159:\n        /* \"src/VotingPower.sol\":2965:2969  true */\n      0x01\n        /* \"src/VotingPower.sol\":2935:2953  _submitRequirement */\n      dup2\n        /* \"src/VotingPower.sol\":2935:2962  _submitRequirement.subimted */\n      0x20\n      add\n        /* \"src/VotingPower.sol\":2935:2969  _submitRequirement.subimted = true */\n      swap1\n      iszero\n      iszero\n      swap1\n      dup2\n      iszero\n      iszero\n      dup2\n      mstore\n      pop\n      pop\n        /* \"src/VotingPower.sol\":3012:3030  _submitRequirement */\n      dup1\n        /* \"src/VotingPower.sol\":2979:2991  requirements */\n      0x01\n        /* \"src/VotingPower.sol\":2979:3009  requirements[_fromRequirement] */\n      0x00\n        /* \"src/VotingPower.sol\":2992:3008  _fromRequirement */\n      dup5\n        /* \"src/VotingPower.sol\":2979:3009  requirements[_fromRequirement] */\n      0xffffffffffffffffffffffffffffffffffffffff\n      and\n      0xffffffffffffffffffffffffffffffffffffffff\n      and\n      dup2\n      mstore\n      0x20\n      add\n      swap1\n      dup2\n      mstore\n      0x20\n      add\n      0x00\n      keccak256\n        /* \"src/VotingPower.sol\":2979:3030  requirements[_fromRequirement] = _submitRequirement */\n      0x00\n      dup3\n      add\n      mload\n      dup2\n      0x00\n      add\n      swap1\n      dup2\n      tag_162\n      swap2\n      swap1\n      tag_163\n      jump\t// in\n    tag_162:\n      pop\n      0x20\n      dup3\n      add\n      mload\n      dup2\n      0x01\n      add\n      exp(0x0100, 0x00)\n      dup2\n      sload\n      dup2\n      0xff\n      mul\n      not\n      and\n      swap1\n      dup4\n      iszero\n      iszero\n      mul\n      or\n      swap1\n      sstore\n      pop\n      0x40\n      dup3\n      add\n      mload\n      dup2\n      0x02\n      add\n      swap1\n      dup1\n      mload\n      swap1\n      0x20\n      add\n      swap1\n      tag_164\n      swap3\n      swap2\n      swap1\n      tag_165\n      jump\t// in\n    tag_164:\n      pop\n      swap1\n      pop\n      pop\n        /* \"src/VotingPower.sol\":3040:3056  requirementsList */\n      0x03\n        /* \"src/VotingPower.sol\":3062:3078  _fromRequirement */\n      dup3\n        /* \"src/VotingPower.sol\":3040:3079  requirementsList.push(_fromRequirement) */\n      swap1\n      dup1\n      0x01\n      dup2\n      sload\n      add\n      dup1\n      dup3\n      sstore\n      dup1\n      swap2\n      pop\n      pop\n      0x01\n      swap1\n      sub\n      swap1\n      0x00\n      mstore\n      keccak256(0x00, 0x20)\n      add\n      0x00\n      swap1\n      swap2\n      swap1\n      swap2\n      swap1\n      swap2\n      0x0100\n      exp\n      dup2\n      sload\n      dup2\n      0xffffffffffffffffffffffffffffffffffffffff\n      mul\n      not\n      and\n      swap1\n      dup4\n      0xffffffffffffffffffffffffffffffffffffffff\n      and\n      mul\n      or\n      swap1\n      sstore\n      pop\n        /* \"src/VotingPower.sol\":2594:3086  function submitRequirement(... */\n      pop\n      pop\n      jump\t// out\n        /* \"src/VotingPower.sol\":1034:1069  IFakeWorldCoin public fakeWorldCoin */\n    tag_70:\n      0x05\n      0x00\n      swap1\n      sload\n      swap1\n      0x0100\n      exp\n      swap1\n      div\n      0xffffffffffffffffffffffffffffffffffffffff\n      and\n      dup2\n      jump\t// out\n        /* \"src/VotingPower.sol\":899:950  mapping(address => Vote[]) public requirementsVoted */\n    tag_76:\n      mstore(0x20, 0x02)\n      dup2\n      0x00\n      mstore\n      keccak256(0x00, 0x40)\n      dup2\n      dup2\n      sload\n      dup2\n      lt\n      tag_167\n      jumpi\n      0x00\n      dup1\n      revert\n    tag_167:\n      swap1\n      0x00\n      mstore\n      keccak256(0x00, 0x20)\n      add\n      0x00\n      swap2\n      pop\n      swap2\n      pop\n      pop\n      dup1\n      0x00\n      add\n      0x00\n      swap1\n      sload\n      swap1\n      0x0100\n      exp\n      swap1\n      div\n      0xffffffffffffffffffffffffffffffffffffffff\n      and\n      swap1\n      dup1\n      0x00\n      add\n      0x14\n      swap1\n      sload\n      swap1\n      0x0100\n      exp\n      swap1\n      div\n      0xff\n      and\n      swap1\n      pop\n      dup3\n      jump\t// out\n    tag_111:\n      mload(0x40)\n      dup1\n      0x60\n      add\n      0x40\n      mstore\n      dup1\n      0x60\n      dup2\n      mstore\n      0x20\n      add\n      iszero(iszero(0x00))\n      dup2\n      mstore\n      0x20\n      add\n      0x60\n      dup2\n      mstore\n      pop\n      swap1\n      jump\t// out\n    tag_165:\n      dup3\n      dup1\n      sload\n      dup3\n      dup3\n      sstore\n      swap1\n      0x00\n      mstore\n      keccak256(0x00, 0x20)\n      swap1\n      dup2\n      add\n      swap3\n      dup3\n      iszero\n      tag_169\n      jumpi\n      swap2\n      0x20\n      mul\n      dup3\n      add\n    tag_170:\n      dup3\n      dup2\n      gt\n      iszero\n      tag_171\n      jumpi\n      dup3\n      mload\n      dup3\n      swap1\n      dup2\n      tag_172\n      swap2\n      swap1\n      tag_163\n      jump\t// in\n    tag_172:\n      pop\n      swap2\n      0x20\n      add\n      swap2\n      swap1\n      0x01\n      add\n      swap1\n      jump(tag_170)\n    tag_171:\n    tag_169:\n      pop\n      swap1\n      pop\n      tag_173\n      swap2\n      swap1\n      tag_174\n      jump\t// in\n    tag_173:\n      pop\n      swap1\n      jump\t// out\n    tag_174:\n    tag_175:\n      dup1\n      dup3\n      gt\n      iszero\n      tag_176\n      jumpi\n      0x00\n      dup2\n      dup2\n      tag_177\n      swap2\n      swap1\n      tag_178\n      jump\t// in\n    tag_177:\n      pop\n      0x01\n      add\n      jump(tag_175)\n    tag_176:\n      pop\n      swap1\n      jump\t// out\n    tag_178:\n      pop\n      dup1\n      sload\n      tag_179\n      swap1\n      tag_114\n      jump\t// in\n    tag_179:\n      0x00\n      dup3\n      sstore\n      dup1\n      0x1f\n      lt\n      tag_181\n      jumpi\n      pop\n      jump(tag_180)\n    tag_181:\n      0x1f\n      add\n      0x20\n      swap1\n      div\n      swap1\n      0x00\n      mstore\n      keccak256(0x00, 0x20)\n      swap1\n      dup2\n      add\n      swap1\n      tag_182\n      swap2\n      swap1\n      tag_183\n      jump\t// in\n    tag_182:\n    tag_180:\n      pop\n      jump\t// out\n    tag_183:\n    tag_184:\n      dup1\n      dup3\n      gt\n      iszero\n      tag_185\n      jumpi\n      0x00\n      dup2\n      0x00\n      swap1\n      sstore\n      pop\n      0x01\n      add\n      jump(tag_184)\n    tag_185:\n      pop\n      swap1\n      jump\t// out\n        /* \"#utility.yul\":7:82   */\n    tag_186:\n        /* \"#utility.yul\":40:46   */\n      0x00\n        /* \"#utility.yul\":73:75   */\n      0x40\n        /* \"#utility.yul\":67:76   */\n      mload\n        /* \"#utility.yul\":57:76   */\n      swap1\n      pop\n        /* \"#utility.yul\":7:82   */\n      swap1\n      jump\t// out\n        /* \"#utility.yul\":88:205   */\n    tag_187:\n        /* \"#utility.yul\":197:198   */\n      0x00\n        /* \"#utility.yul\":194:195   */\n      dup1\n        /* \"#utility.yul\":187:199   */\n      revert\n        /* \"#utility.yul\":211:328   */\n    tag_188:\n        /* \"#utility.yul\":320:321   */\n      0x00\n        /* \"#utility.yul\":317:318   */\n      dup1\n        /* \"#utility.yul\":310:322   */\n      revert\n        /* \"#utility.yul\":334:460   */\n    tag_189:\n        /* \"#utility.yul\":371:378   */\n      0x00\n        /* \"#utility.yul\":411:453   */\n      0xffffffffffffffffffffffffffffffffffffffff\n        /* \"#utility.yul\":404:409   */\n      dup3\n        /* \"#utility.yul\":400:454   */\n      and\n        /* \"#utility.yul\":389:454   */\n      swap1\n      pop\n        /* \"#utility.yul\":334:460   */\n      swap2\n      swap1\n      pop\n      jump\t// out\n        /* \"#utility.yul\":466:562   */\n    tag_190:\n        /* \"#utility.yul\":503:510   */\n      0x00\n        /* \"#utility.yul\":532:556   */\n      tag_282\n        /* \"#utility.yul\":550:555   */\n      dup3\n        /* \"#utility.yul\":532:556   */\n      tag_189\n      jump\t// in\n    tag_282:\n        /* \"#utility.yul\":521:556   */\n      swap1\n      pop\n        /* \"#utility.yul\":466:562   */\n      swap2\n      swap1\n      pop\n      jump\t// out\n        /* \"#utility.yul\":568:690   */\n    tag_191:\n        /* \"#utility.yul\":641:665   */\n      tag_284\n        /* \"#utility.yul\":659:664   */\n      dup2\n        /* \"#utility.yul\":641:665   */\n      tag_190\n      jump\t// in\n    tag_284:\n        /* \"#utility.yul\":634:639   */\n      dup2\n        /* \"#utility.yul\":631:666   */\n      eq\n        /* \"#utility.yul\":621:684   */\n      tag_285\n      jumpi\n        /* \"#utility.yul\":680:681   */\n      0x00\n        /* \"#utility.yul\":677:678   */\n      dup1\n        /* \"#utility.yul\":670:682   */\n      revert\n        /* \"#utility.yul\":621:684   */\n    tag_285:\n        /* \"#utility.yul\":568:690   */\n      pop\n      jump\t// out\n        /* \"#utility.yul\":696:835   */\n    tag_192:\n        /* \"#utility.yul\":742:747   */\n      0x00\n        /* \"#utility.yul\":780:786   */\n      dup2\n        /* \"#utility.yul\":767:787   */\n      calldataload\n        /* \"#utility.yul\":758:787   */\n      swap1\n      pop\n        /* \"#utility.yul\":796:829   */\n      tag_287\n        /* \"#utility.yul\":823:828   */\n      dup2\n        /* \"#utility.yul\":796:829   */\n      tag_191\n      jump\t// in\n    tag_287:\n        /* \"#utility.yul\":696:835   */\n      swap3\n      swap2\n      pop\n      pop\n      jump\t// out\n        /* \"#utility.yul\":841:931   */\n    tag_193:\n        /* \"#utility.yul\":875:882   */\n      0x00\n        /* \"#utility.yul\":918:923   */\n      dup2\n        /* \"#utility.yul\":911:924   */\n      iszero\n        /* \"#utility.yul\":904:925   */\n      iszero\n        /* \"#utility.yul\":893:925   */\n      swap1\n      pop\n        /* \"#utility.yul\":841:931   */\n      swap2\n      swap1\n      pop\n      jump\t// out\n        /* \"#utility.yul\":937:1053   */\n    tag_194:\n        /* \"#utility.yul\":1007:1028   */\n      tag_290\n        /* \"#utility.yul\":1022:1027   */\n      dup2\n        /* \"#utility.yul\":1007:1028   */\n      tag_193\n      jump\t// in\n    tag_290:\n        /* \"#utility.yul\":1000:1005   */\n      dup2\n        /* \"#utility.yul\":997:1029   */\n      eq\n        /* \"#utility.yul\":987:1047   */\n      tag_291\n      jumpi\n        /* \"#utility.yul\":1043:1044   */\n      0x00\n        /* \"#utility.yul\":1040:1041   */\n      dup1\n        /* \"#utility.yul\":1033:1045   */\n      revert\n        /* \"#utility.yul\":987:1047   */\n    tag_291:\n        /* \"#utility.yul\":937:1053   */\n      pop\n      jump\t// out\n        /* \"#utility.yul\":1059:1192   */\n    tag_195:\n        /* \"#utility.yul\":1102:1107   */\n      0x00\n        /* \"#utility.yul\":1140:1146   */\n      dup2\n        /* \"#utility.yul\":1127:1147   */\n      calldataload\n        /* \"#utility.yul\":1118:1147   */\n      swap1\n      pop\n        /* \"#utility.yul\":1156:1186   */\n      tag_293\n        /* \"#utility.yul\":1180:1185   */\n      dup2\n        /* \"#utility.yul\":1156:1186   */\n      tag_194\n      jump\t// in\n    tag_293:\n        /* \"#utility.yul\":1059:1192   */\n      swap3\n      swap2\n      pop\n      pop\n      jump\t// out\n        /* \"#utility.yul\":1198:1811   */\n    tag_20:\n        /* \"#utility.yul\":1272:1278   */\n      0x00\n        /* \"#utility.yul\":1280:1286   */\n      dup1\n        /* \"#utility.yul\":1288:1294   */\n      0x00\n        /* \"#utility.yul\":1337:1339   */\n      0x60\n        /* \"#utility.yul\":1325:1334   */\n      dup5\n        /* \"#utility.yul\":1316:1323   */\n      dup7\n        /* \"#utility.yul\":1312:1335   */\n      sub\n        /* \"#utility.yul\":1308:1340   */\n      slt\n        /* \"#utility.yul\":1305:1424   */\n      iszero\n      tag_295\n      jumpi\n        /* \"#utility.yul\":1343:1422   */\n      tag_296\n      tag_187\n      jump\t// in\n    tag_296:\n        /* \"#utility.yul\":1305:1424   */\n    tag_295:\n        /* \"#utility.yul\":1463:1464   */\n      0x00\n        /* \"#utility.yul\":1488:1541   */\n      tag_297\n        /* \"#utility.yul\":1533:1540   */\n      dup7\n        /* \"#utility.yul\":1524:1530   */\n      dup3\n        /* \"#utility.yul\":1513:1522   */\n      dup8\n        /* \"#utility.yul\":1509:1531   */\n      add\n        /* \"#utility.yul\":1488:1541   */\n      tag_192\n      jump\t// in\n    tag_297:\n        /* \"#utility.yul\":1478:1541   */\n      swap4\n      pop\n        /* \"#utility.yul\":1434:1551   */\n      pop\n        /* \"#utility.yul\":1590:1592   */\n      0x20\n        /* \"#utility.yul\":1616:1669   */\n      tag_298\n        /* \"#utility.yul\":1661:1668   */\n      dup7\n        /* \"#utility.yul\":1652:1658   */\n      dup3\n        /* \"#utility.yul\":1641:1650   */\n      dup8\n        /* \"#utility.yul\":1637:1659   */\n      add\n        /* \"#utility.yul\":1616:1669   */\n      tag_192\n      jump\t// in\n    tag_298:\n        /* \"#utility.yul\":1606:1669   */\n      swap3\n      pop\n        /* \"#utility.yul\":1561:1679   */\n      pop\n        /* \"#utility.yul\":1718:1720   */\n      0x40\n        /* \"#utility.yul\":1744:1794   */\n      tag_299\n        /* \"#utility.yul\":1786:1793   */\n      dup7\n        /* \"#utility.yul\":1777:1783   */\n      dup3\n        /* \"#utility.yul\":1766:1775   */\n      dup8\n        /* \"#utility.yul\":1762:1784   */\n      add\n        /* \"#utility.yul\":1744:1794   */\n      tag_195\n      jump\t// in\n    tag_299:\n        /* \"#utility.yul\":1734:1794   */\n      swap2\n      pop\n        /* \"#utility.yul\":1689:1804   */\n      pop\n        /* \"#utility.yul\":1198:1811   */\n      swap3\n      pop\n      swap3\n      pop\n      swap3\n      jump\t// out\n        /* \"#utility.yul\":1817:1934   */\n    tag_196:\n        /* \"#utility.yul\":1926:1927   */\n      0x00\n        /* \"#utility.yul\":1923:1924   */\n      dup1\n        /* \"#utility.yul\":1916:1928   */\n      revert\n        /* \"#utility.yul\":1940:2057   */\n    tag_197:\n        /* \"#utility.yul\":2049:2050   */\n      0x00\n        /* \"#utility.yul\":2046:2047   */\n      dup1\n        /* \"#utility.yul\":2039:2051   */\n      revert\n        /* \"#utility.yul\":2063:2165   */\n    tag_198:\n        /* \"#utility.yul\":2104:2110   */\n      0x00\n        /* \"#utility.yul\":2155:2157   */\n      0x1f\n        /* \"#utility.yul\":2151:2158   */\n      not\n        /* \"#utility.yul\":2146:2148   */\n      0x1f\n        /* \"#utility.yul\":2139:2144   */\n      dup4\n        /* \"#utility.yul\":2135:2149   */\n      add\n        /* \"#utility.yul\":2131:2159   */\n      and\n        /* \"#utility.yul\":2121:2159   */\n      swap1\n      pop\n        /* \"#utility.yul\":2063:2165   */\n      swap2\n      swap1\n      pop\n      jump\t// out\n        /* \"#utility.yul\":2171:2351   */\n    tag_199:\n        /* \"#utility.yul\":2219:2296   */\n      0x4e487b7100000000000000000000000000000000000000000000000000000000\n        /* \"#utility.yul\":2216:2217   */\n      0x00\n        /* \"#utility.yul\":2209:2297   */\n      mstore\n        /* \"#utility.yul\":2316:2320   */\n      0x41\n        /* \"#utility.yul\":2313:2314   */\n      0x04\n        /* \"#utility.yul\":2306:2321   */\n      mstore\n        /* \"#utility.yul\":2340:2344   */\n      0x24\n        /* \"#utility.yul\":2337:2338   */\n      0x00\n        /* \"#utility.yul\":2330:2345   */\n      revert\n        /* \"#utility.yul\":2357:2638   */\n    tag_200:\n        /* \"#utility.yul\":2440:2467   */\n      tag_305\n        /* \"#utility.yul\":2462:2466   */\n      dup3\n        /* \"#utility.yul\":2440:2467   */\n      tag_198\n      jump\t// in\n    tag_305:\n        /* \"#utility.yul\":2432:2438   */\n      dup2\n        /* \"#utility.yul\":2428:2468   */\n      add\n        /* \"#utility.yul\":2570:2576   */\n      dup2\n        /* \"#utility.yul\":2558:2568   */\n      dup2\n        /* \"#utility.yul\":2555:2577   */\n      lt\n        /* \"#utility.yul\":2534:2552   */\n      0xffffffffffffffff\n        /* \"#utility.yul\":2522:2532   */\n      dup3\n        /* \"#utility.yul\":2519:2553   */\n      gt\n        /* \"#utility.yul\":2516:2578   */\n      or\n        /* \"#utility.yul\":2513:2601   */\n      iszero\n      tag_306\n      jumpi\n        /* \"#utility.yul\":2581:2599   */\n      tag_307\n      tag_199\n      jump\t// in\n    tag_307:\n        /* \"#utility.yul\":2513:2601   */\n    tag_306:\n        /* \"#utility.yul\":2621:2631   */\n      dup1\n        /* \"#utility.yul\":2617:2619   */\n      0x40\n        /* \"#utility.yul\":2610:2632   */\n      mstore\n        /* \"#utility.yul\":2400:2638   */\n      pop\n        /* \"#utility.yul\":2357:2638   */\n      pop\n      pop\n      jump\t// out\n        /* \"#utility.yul\":2644:2773   */\n    tag_201:\n        /* \"#utility.yul\":2678:2684   */\n      0x00\n        /* \"#utility.yul\":2705:2725   */\n      tag_309\n      tag_186\n      jump\t// in\n    tag_309:\n        /* \"#utility.yul\":2695:2725   */\n      swap1\n      pop\n        /* \"#utility.yul\":2734:2767   */\n      tag_310\n        /* \"#utility.yul\":2762:2766   */\n      dup3\n        /* \"#utility.yul\":2754:2760   */\n      dup3\n        /* \"#utility.yul\":2734:2767   */\n      tag_200\n      jump\t// in\n    tag_310:\n        /* \"#utility.yul\":2644:2773   */\n      swap2\n      swap1\n      pop\n      jump\t// out\n        /* \"#utility.yul\":2779:3087   */\n    tag_202:\n        /* \"#utility.yul\":2841:2845   */\n      0x00\n        /* \"#utility.yul\":2931:2949   */\n      0xffffffffffffffff\n        /* \"#utility.yul\":2923:2929   */\n      dup3\n        /* \"#utility.yul\":2920:2950   */\n      gt\n        /* \"#utility.yul\":2917:2973   */\n      iszero\n      tag_312\n      jumpi\n        /* \"#utility.yul\":2953:2971   */\n      tag_313\n      tag_199\n      jump\t// in\n    tag_313:\n        /* \"#utility.yul\":2917:2973   */\n    tag_312:\n        /* \"#utility.yul\":2991:3020   */\n      tag_314\n        /* \"#utility.yul\":3013:3019   */\n      dup3\n        /* \"#utility.yul\":2991:3020   */\n      tag_198\n      jump\t// in\n    tag_314:\n        /* \"#utility.yul\":2983:3020   */\n      swap1\n      pop\n        /* \"#utility.yul\":3075:3079   */\n      0x20\n        /* \"#utility.yul\":3069:3073   */\n      dup2\n        /* \"#utility.yul\":3065:3080   */\n      add\n        /* \"#utility.yul\":3057:3080   */\n      swap1\n      pop\n        /* \"#utility.yul\":2779:3087   */\n      swap2\n      swap1\n      pop\n      jump\t// out\n        /* \"#utility.yul\":3093:3239   */\n    tag_203:\n        /* \"#utility.yul\":3190:3196   */\n      dup3\n        /* \"#utility.yul\":3185:3188   */\n      dup2\n        /* \"#utility.yul\":3180:3183   */\n      dup4\n        /* \"#utility.yul\":3167:3197   */\n      calldatacopy\n        /* \"#utility.yul\":3231:3232   */\n      0x00\n        /* \"#utility.yul\":3222:3228   */\n      dup4\n        /* \"#utility.yul\":3217:3220   */\n      dup4\n        /* \"#utility.yul\":3213:3229   */\n      add\n        /* \"#utility.yul\":3206:3233   */\n      mstore\n        /* \"#utility.yul\":3093:3239   */\n      pop\n      pop\n      pop\n      jump\t// out\n        /* \"#utility.yul\":3245:3670   */\n    tag_204:\n        /* \"#utility.yul\":3323:3328   */\n      0x00\n        /* \"#utility.yul\":3348:3414   */\n      tag_317\n        /* \"#utility.yul\":3364:3413   */\n      tag_318\n        /* \"#utility.yul\":3406:3412   */\n      dup5\n        /* \"#utility.yul\":3364:3413   */\n      tag_202\n      jump\t// in\n    tag_318:\n        /* \"#utility.yul\":3348:3414   */\n      tag_201\n      jump\t// in\n    tag_317:\n        /* \"#utility.yul\":3339:3414   */\n      swap1\n      pop\n        /* \"#utility.yul\":3437:3443   */\n      dup3\n        /* \"#utility.yul\":3430:3435   */\n      dup2\n        /* \"#utility.yul\":3423:3444   */\n      mstore\n        /* \"#utility.yul\":3475:3479   */\n      0x20\n        /* \"#utility.yul\":3468:3473   */\n      dup2\n        /* \"#utility.yul\":3464:3480   */\n      add\n        /* \"#utility.yul\":3513:3516   */\n      dup5\n        /* \"#utility.yul\":3504:3510   */\n      dup5\n        /* \"#utility.yul\":3499:3502   */\n      dup5\n        /* \"#utility.yul\":3495:3511   */\n      add\n        /* \"#utility.yul\":3492:3517   */\n      gt\n        /* \"#utility.yul\":3489:3601   */\n      iszero\n      tag_319\n      jumpi\n        /* \"#utility.yul\":3520:3599   */\n      tag_320\n      tag_197\n      jump\t// in\n    tag_320:\n        /* \"#utility.yul\":3489:3601   */\n    tag_319:\n        /* \"#utility.yul\":3610:3664   */\n      tag_321\n        /* \"#utility.yul\":3657:3663   */\n      dup5\n        /* \"#utility.yul\":3652:3655   */\n      dup3\n        /* \"#utility.yul\":3647:3650   */\n      dup6\n        /* \"#utility.yul\":3610:3664   */\n      tag_203\n      jump\t// in\n    tag_321:\n        /* \"#utility.yul\":3329:3670   */\n      pop\n        /* \"#utility.yul\":3245:3670   */\n      swap4\n      swap3\n      pop\n      pop\n      pop\n      jump\t// out\n        /* \"#utility.yul\":3690:4030   */\n    tag_205:\n        /* \"#utility.yul\":3746:3751   */\n      0x00\n        /* \"#utility.yul\":3795:3798   */\n      dup3\n        /* \"#utility.yul\":3788:3792   */\n      0x1f\n        /* \"#utility.yul\":3780:3786   */\n      dup4\n        /* \"#utility.yul\":3776:3793   */\n      add\n        /* \"#utility.yul\":3772:3799   */\n      slt\n        /* \"#utility.yul\":3762:3884   */\n      tag_323\n      jumpi\n        /* \"#utility.yul\":3803:3882   */\n      tag_324\n      tag_196\n      jump\t// in\n    tag_324:\n        /* \"#utility.yul\":3762:3884   */\n    tag_323:\n        /* \"#utility.yul\":3920:3926   */\n      dup2\n        /* \"#utility.yul\":3907:3927   */\n      calldataload\n        /* \"#utility.yul\":3945:4024   */\n      tag_325\n        /* \"#utility.yul\":4020:4023   */\n      dup5\n        /* \"#utility.yul\":4012:4018   */\n      dup3\n        /* \"#utility.yul\":4005:4009   */\n      0x20\n        /* \"#utility.yul\":3997:4003   */\n      dup7\n        /* \"#utility.yul\":3993:4010   */\n      add\n        /* \"#utility.yul\":3945:4024   */\n      tag_204\n      jump\t// in\n    tag_325:\n        /* \"#utility.yul\":3936:4024   */\n      swap2\n      pop\n        /* \"#utility.yul\":3752:4030   */\n      pop\n        /* \"#utility.yul\":3690:4030   */\n      swap3\n      swap2\n      pop\n      pop\n      jump\t// out\n        /* \"#utility.yul\":4036:4545   */\n    tag_24:\n        /* \"#utility.yul\":4105:4111   */\n      0x00\n        /* \"#utility.yul\":4154:4156   */\n      0x20\n        /* \"#utility.yul\":4142:4151   */\n      dup3\n        /* \"#utility.yul\":4133:4140   */\n      dup5\n        /* \"#utility.yul\":4129:4152   */\n      sub\n        /* \"#utility.yul\":4125:4157   */\n      slt\n        /* \"#utility.yul\":4122:4241   */\n      iszero\n      tag_327\n      jumpi\n        /* \"#utility.yul\":4160:4239   */\n      tag_328\n      tag_187\n      jump\t// in\n    tag_328:\n        /* \"#utility.yul\":4122:4241   */\n    tag_327:\n        /* \"#utility.yul\":4308:4309   */\n      0x00\n        /* \"#utility.yul\":4297:4306   */\n      dup3\n        /* \"#utility.yul\":4293:4310   */\n      add\n        /* \"#utility.yul\":4280:4311   */\n      calldataload\n        /* \"#utility.yul\":4338:4356   */\n      0xffffffffffffffff\n        /* \"#utility.yul\":4330:4336   */\n      dup2\n        /* \"#utility.yul\":4327:4357   */\n      gt\n        /* \"#utility.yul\":4324:4441   */\n      iszero\n      tag_329\n      jumpi\n        /* \"#utility.yul\":4360:4439   */\n      tag_330\n      tag_188\n      jump\t// in\n    tag_330:\n        /* \"#utility.yul\":4324:4441   */\n    tag_329:\n        /* \"#utility.yul\":4465:4528   */\n      tag_331\n        /* \"#utility.yul\":4520:4527   */\n      dup5\n        /* \"#utility.yul\":4511:4517   */\n      dup3\n        /* \"#utility.yul\":4500:4509   */\n      dup6\n        /* \"#utility.yul\":4496:4518   */\n      add\n        /* \"#utility.yul\":4465:4528   */\n      tag_205\n      jump\t// in\n    tag_331:\n        /* \"#utility.yul\":4455:4528   */\n      swap2\n      pop\n        /* \"#utility.yul\":4251:4538   */\n      pop\n        /* \"#utility.yul\":4036:4545   */\n      swap3\n      swap2\n      pop\n      pop\n      jump\t// out\n        /* \"#utility.yul\":4551:4660   */\n    tag_206:\n        /* \"#utility.yul\":4632:4653   */\n      tag_333\n        /* \"#utility.yul\":4647:4652   */\n      dup2\n        /* \"#utility.yul\":4632:4653   */\n      tag_193\n      jump\t// in\n    tag_333:\n        /* \"#utility.yul\":4627:4630   */\n      dup3\n        /* \"#utility.yul\":4620:4654   */\n      mstore\n        /* \"#utility.yul\":4551:4660   */\n      pop\n      pop\n      jump\t// out\n        /* \"#utility.yul\":4666:4876   */\n    tag_27:\n        /* \"#utility.yul\":4753:4757   */\n      0x00\n        /* \"#utility.yul\":4791:4793   */\n      0x20\n        /* \"#utility.yul\":4780:4789   */\n      dup3\n        /* \"#utility.yul\":4776:4794   */\n      add\n        /* \"#utility.yul\":4768:4794   */\n      swap1\n      pop\n        /* \"#utility.yul\":4804:4869   */\n      tag_335\n        /* \"#utility.yul\":4866:4867   */\n      0x00\n        /* \"#utility.yul\":4855:4864   */\n      dup4\n        /* \"#utility.yul\":4851:4868   */\n      add\n        /* \"#utility.yul\":4842:4848   */\n      dup5\n        /* \"#utility.yul\":4804:4869   */\n      tag_206\n      jump\t// in\n    tag_335:\n        /* \"#utility.yul\":4666:4876   */\n      swap3\n      swap2\n      pop\n      pop\n      jump\t// out\n        /* \"#utility.yul\":4882:5211   */\n    tag_30:\n        /* \"#utility.yul\":4941:4947   */\n      0x00\n        /* \"#utility.yul\":4990:4992   */\n      0x20\n        /* \"#utility.yul\":4978:4987   */\n      dup3\n        /* \"#utility.yul\":4969:4976   */\n      dup5\n        /* \"#utility.yul\":4965:4988   */\n      sub\n        /* \"#utility.yul\":4961:4993   */\n      slt\n        /* \"#utility.yul\":4958:5077   */\n      iszero\n      tag_337\n      jumpi\n        /* \"#utility.yul\":4996:5075   */\n      tag_338\n      tag_187\n      jump\t// in\n    tag_338:\n        /* \"#utility.yul\":4958:5077   */\n    tag_337:\n        /* \"#utility.yul\":5116:5117   */\n      0x00\n        /* \"#utility.yul\":5141:5194   */\n      tag_339\n        /* \"#utility.yul\":5186:5193   */\n      dup5\n        /* \"#utility.yul\":5177:5183   */\n      dup3\n        /* \"#utility.yul\":5166:5175   */\n      dup6\n        /* \"#utility.yul\":5162:5184   */\n      add\n        /* \"#utility.yul\":5141:5194   */\n      tag_192\n      jump\t// in\n    tag_339:\n        /* \"#utility.yul\":5131:5194   */\n      swap2\n      pop\n        /* \"#utility.yul\":5087:5204   */\n      pop\n        /* \"#utility.yul\":4882:5211   */\n      swap3\n      swap2\n      pop\n      pop\n      jump\t// out\n        /* \"#utility.yul\":5217:5316   */\n    tag_207:\n        /* \"#utility.yul\":5269:5275   */\n      0x00\n        /* \"#utility.yul\":5303:5308   */\n      dup2\n        /* \"#utility.yul\":5297:5309   */\n      mload\n        /* \"#utility.yul\":5287:5309   */\n      swap1\n      pop\n        /* \"#utility.yul\":5217:5316   */\n      swap2\n      swap1\n      pop\n      jump\t// out\n        /* \"#utility.yul\":5322:5481   */\n    tag_208:\n        /* \"#utility.yul\":5396:5407   */\n      0x00\n        /* \"#utility.yul\":5430:5436   */\n      dup3\n        /* \"#utility.yul\":5425:5428   */\n      dup3\n        /* \"#utility.yul\":5418:5437   */\n      mstore\n        /* \"#utility.yul\":5470:5474   */\n      0x20\n        /* \"#utility.yul\":5465:5468   */\n      dup3\n        /* \"#utility.yul\":5461:5475   */\n      add\n        /* \"#utility.yul\":5446:5475   */\n      swap1\n      pop\n        /* \"#utility.yul\":5322:5481   */\n      swap3\n      swap2\n      pop\n      pop\n      jump\t// out\n        /* \"#utility.yul\":5487:5733   */\n    tag_209:\n        /* \"#utility.yul\":5568:5569   */\n      0x00\n        /* \"#utility.yul\":5578:5691   */\n    tag_343:\n        /* \"#utility.yul\":5592:5598   */\n      dup4\n        /* \"#utility.yul\":5589:5590   */\n      dup2\n        /* \"#utility.yul\":5586:5599   */\n      lt\n        /* \"#utility.yul\":5578:5691   */\n      iszero\n      tag_345\n      jumpi\n        /* \"#utility.yul\":5677:5678   */\n      dup1\n        /* \"#utility.yul\":5672:5675   */\n      dup3\n        /* \"#utility.yul\":5668:5679   */\n      add\n        /* \"#utility.yul\":5662:5680   */\n      mload\n        /* \"#utility.yul\":5658:5659   */\n      dup2\n        /* \"#utility.yul\":5653:5656   */\n      dup5\n        /* \"#utility.yul\":5649:5660   */\n      add\n        /* \"#utility.yul\":5642:5681   */\n      mstore\n        /* \"#utility.yul\":5614:5616   */\n      0x20\n        /* \"#utility.yul\":5611:5612   */\n      dup2\n        /* \"#utility.yul\":5607:5617   */\n      add\n        /* \"#utility.yul\":5602:5617   */\n      swap1\n      pop\n        /* \"#utility.yul\":5578:5691   */\n      jump(tag_343)\n    tag_345:\n        /* \"#utility.yul\":5725:5726   */\n      0x00\n        /* \"#utility.yul\":5716:5722   */\n      dup5\n        /* \"#utility.yul\":5711:5714   */\n      dup5\n        /* \"#utility.yul\":5707:5723   */\n      add\n        /* \"#utility.yul\":5700:5727   */\n      mstore\n        /* \"#utility.yul\":5549:5733   */\n      pop\n        /* \"#utility.yul\":5487:5733   */\n      pop\n      pop\n      pop\n      jump\t// out\n        /* \"#utility.yul\":5739:6096   */\n    tag_210:\n        /* \"#utility.yul\":5817:5820   */\n      0x00\n        /* \"#utility.yul\":5845:5884   */\n      tag_347\n        /* \"#utility.yul\":5878:5883   */\n      dup3\n        /* \"#utility.yul\":5845:5884   */\n      tag_207\n      jump\t// in\n    tag_347:\n        /* \"#utility.yul\":5900:5961   */\n      tag_348\n        /* \"#utility.yul\":5954:5960   */\n      dup2\n        /* \"#utility.yul\":5949:5952   */\n      dup6\n        /* \"#utility.yul\":5900:5961   */\n      tag_208\n      jump\t// in\n    tag_348:\n        /* \"#utility.yul\":5893:5961   */\n      swap4\n      pop\n        /* \"#utility.yul\":5970:6035   */\n      tag_349\n        /* \"#utility.yul\":6028:6034   */\n      dup2\n        /* \"#utility.yul\":6023:6026   */\n      dup6\n        /* \"#utility.yul\":6016:6020   */\n      0x20\n        /* \"#utility.yul\":6009:6014   */\n      dup7\n        /* \"#utility.yul\":6005:6021   */\n      add\n        /* \"#utility.yul\":5970:6035   */\n      tag_209\n      jump\t// in\n    tag_349:\n        /* \"#utility.yul\":6060:6089   */\n      tag_350\n        /* \"#utility.yul\":6082:6088   */\n      dup2\n        /* \"#utility.yul\":6060:6089   */\n      tag_198\n      jump\t// in\n    tag_350:\n        /* \"#utility.yul\":6055:6058   */\n      dup5\n        /* \"#utility.yul\":6051:6090   */\n      add\n        /* \"#utility.yul\":6044:6090   */\n      swap2\n      pop\n        /* \"#utility.yul\":5821:6096   */\n      pop\n        /* \"#utility.yul\":5739:6096   */\n      swap3\n      swap2\n      pop\n      pop\n      jump\t// out\n        /* \"#utility.yul\":6102:6201   */\n    tag_211:\n        /* \"#utility.yul\":6173:6194   */\n      tag_352\n        /* \"#utility.yul\":6188:6193   */\n      dup2\n        /* \"#utility.yul\":6173:6194   */\n      tag_193\n      jump\t// in\n    tag_352:\n        /* \"#utility.yul\":6168:6171   */\n      dup3\n        /* \"#utility.yul\":6161:6195   */\n      mstore\n        /* \"#utility.yul\":6102:6201   */\n      pop\n      pop\n      jump\t// out\n        /* \"#utility.yul\":6207:6331   */\n    tag_212:\n        /* \"#utility.yul\":6284:6290   */\n      0x00\n        /* \"#utility.yul\":6318:6323   */\n      dup2\n        /* \"#utility.yul\":6312:6324   */\n      mload\n        /* \"#utility.yul\":6302:6324   */\n      swap1\n      pop\n        /* \"#utility.yul\":6207:6331   */\n      swap2\n      swap1\n      pop\n      jump\t// out\n        /* \"#utility.yul\":6337:6521   */\n    tag_213:\n        /* \"#utility.yul\":6436:6447   */\n      0x00\n        /* \"#utility.yul\":6470:6476   */\n      dup3\n        /* \"#utility.yul\":6465:6468   */\n      dup3\n        /* \"#utility.yul\":6458:6477   */\n      mstore\n        /* \"#utility.yul\":6510:6514   */\n      0x20\n        /* \"#utility.yul\":6505:6508   */\n      dup3\n        /* \"#utility.yul\":6501:6515   */\n      add\n        /* \"#utility.yul\":6486:6515   */\n      swap1\n      pop\n        /* \"#utility.yul\":6337:6521   */\n      swap3\n      swap2\n      pop\n      pop\n      jump\t// out\n        /* \"#utility.yul\":6527:6669   */\n    tag_214:\n        /* \"#utility.yul\":6604:6608   */\n      0x00\n        /* \"#utility.yul\":6627:6630   */\n      dup2\n        /* \"#utility.yul\":6619:6630   */\n      swap1\n      pop\n        /* \"#utility.yul\":6657:6661   */\n      0x20\n        /* \"#utility.yul\":6652:6655   */\n      dup3\n        /* \"#utility.yul\":6648:6662   */\n      add\n        /* \"#utility.yul\":6640:6662   */\n      swap1\n      pop\n        /* \"#utility.yul\":6527:6669   */\n      swap2\n      swap1\n      pop\n      jump\t// out\n        /* \"#utility.yul\":6675:6871   */\n    tag_215:\n        /* \"#utility.yul\":6764:6774   */\n      0x00\n        /* \"#utility.yul\":6799:6865   */\n      tag_357\n        /* \"#utility.yul\":6861:6864   */\n      dup4\n        /* \"#utility.yul\":6853:6859   */\n      dup4\n        /* \"#utility.yul\":6799:6865   */\n      tag_210\n      jump\t// in\n    tag_357:\n        /* \"#utility.yul\":6785:6865   */\n      swap1\n      pop\n        /* \"#utility.yul\":6675:6871   */\n      swap3\n      swap2\n      pop\n      pop\n      jump\t// out\n        /* \"#utility.yul\":6877:7000   */\n    tag_216:\n        /* \"#utility.yul\":6957:6961   */\n      0x00\n        /* \"#utility.yul\":6989:6993   */\n      0x20\n        /* \"#utility.yul\":6984:6987   */\n      dup3\n        /* \"#utility.yul\":6980:6994   */\n      add\n        /* \"#utility.yul\":6972:6994   */\n      swap1\n      pop\n        /* \"#utility.yul\":6877:7000   */\n      swap2\n      swap1\n      pop\n      jump\t// out\n        /* \"#utility.yul\":7034:8005   */\n    tag_217:\n        /* \"#utility.yul\":7163:7166   */\n      0x00\n        /* \"#utility.yul\":7192:7256   */\n      tag_360\n        /* \"#utility.yul\":7250:7255   */\n      dup3\n        /* \"#utility.yul\":7192:7256   */\n      tag_212\n      jump\t// in\n    tag_360:\n        /* \"#utility.yul\":7272:7358   */\n      tag_361\n        /* \"#utility.yul\":7351:7357   */\n      dup2\n        /* \"#utility.yul\":7346:7349   */\n      dup6\n        /* \"#utility.yul\":7272:7358   */\n      tag_213\n      jump\t// in\n    tag_361:\n        /* \"#utility.yul\":7265:7358   */\n      swap4\n      pop\n        /* \"#utility.yul\":7384:7387   */\n      dup4\n        /* \"#utility.yul\":7429:7433   */\n      0x20\n        /* \"#utility.yul\":7421:7427   */\n      dup3\n        /* \"#utility.yul\":7417:7434   */\n      mul\n        /* \"#utility.yul\":7412:7415   */\n      dup6\n        /* \"#utility.yul\":7408:7435   */\n      add\n        /* \"#utility.yul\":7459:7525   */\n      tag_362\n        /* \"#utility.yul\":7519:7524   */\n      dup6\n        /* \"#utility.yul\":7459:7525   */\n      tag_214\n      jump\t// in\n    tag_362:\n        /* \"#utility.yul\":7548:7555   */\n      dup1\n        /* \"#utility.yul\":7579:7580   */\n      0x00\n        /* \"#utility.yul\":7564:7960   */\n    tag_363:\n        /* \"#utility.yul\":7589:7595   */\n      dup6\n        /* \"#utility.yul\":7586:7587   */\n      dup2\n        /* \"#utility.yul\":7583:7596   */\n      lt\n        /* \"#utility.yul\":7564:7960   */\n      iszero\n      tag_365\n      jumpi\n        /* \"#utility.yul\":7660:7669   */\n      dup5\n        /* \"#utility.yul\":7654:7658   */\n      dup5\n        /* \"#utility.yul\":7650:7670   */\n      sub\n        /* \"#utility.yul\":7645:7648   */\n      dup10\n        /* \"#utility.yul\":7638:7671   */\n      mstore\n        /* \"#utility.yul\":7711:7717   */\n      dup2\n        /* \"#utility.yul\":7705:7718   */\n      mload\n        /* \"#utility.yul\":7739:7823   */\n      tag_366\n        /* \"#utility.yul\":7818:7822   */\n      dup6\n        /* \"#utility.yul\":7803:7816   */\n      dup3\n        /* \"#utility.yul\":7739:7823   */\n      tag_215\n      jump\t// in\n    tag_366:\n        /* \"#utility.yul\":7731:7823   */\n      swap5\n      pop\n        /* \"#utility.yul\":7846:7916   */\n      tag_367\n        /* \"#utility.yul\":7909:7915   */\n      dup4\n        /* \"#utility.yul\":7846:7916   */\n      tag_216\n      jump\t// in\n    tag_367:\n        /* \"#utility.yul\":7836:7916   */\n      swap3\n      pop\n        /* \"#utility.yul\":7945:7949   */\n      0x20\n        /* \"#utility.yul\":7940:7943   */\n      dup11\n        /* \"#utility.yul\":7936:7950   */\n      add\n        /* \"#utility.yul\":7929:7950   */\n      swap10\n      pop\n        /* \"#utility.yul\":7624:7960   */\n      pop\n        /* \"#utility.yul\":7611:7612   */\n      0x01\n        /* \"#utility.yul\":7608:7609   */\n      dup2\n        /* \"#utility.yul\":7604:7613   */\n      add\n        /* \"#utility.yul\":7599:7613   */\n      swap1\n      pop\n        /* \"#utility.yul\":7564:7960   */\n      jump(tag_363)\n    tag_365:\n        /* \"#utility.yul\":7568:7582   */\n      pop\n        /* \"#utility.yul\":7976:7980   */\n      dup3\n        /* \"#utility.yul\":7969:7980   */\n      swap8\n      pop\n        /* \"#utility.yul\":7996:7999   */\n      dup8\n        /* \"#utility.yul\":7989:7999   */\n      swap6\n      pop\n        /* \"#utility.yul\":7168:8005   */\n      pop\n      pop\n      pop\n      pop\n      pop\n        /* \"#utility.yul\":7034:8005   */\n      swap3\n      swap2\n      pop\n      pop\n      jump\t// out\n        /* \"#utility.yul\":8071:8993   */\n    tag_218:\n        /* \"#utility.yul\":8204:8207   */\n      0x00\n        /* \"#utility.yul\":8240:8244   */\n      0x60\n        /* \"#utility.yul\":8235:8238   */\n      dup4\n        /* \"#utility.yul\":8231:8245   */\n      add\n        /* \"#utility.yul\":8331:8335   */\n      0x00\n        /* \"#utility.yul\":8324:8329   */\n      dup4\n        /* \"#utility.yul\":8320:8336   */\n      add\n        /* \"#utility.yul\":8314:8337   */\n      mload\n        /* \"#utility.yul\":8384:8387   */\n      dup5\n        /* \"#utility.yul\":8378:8382   */\n      dup3\n        /* \"#utility.yul\":8374:8388   */\n      sub\n        /* \"#utility.yul\":8367:8371   */\n      0x00\n        /* \"#utility.yul\":8362:8365   */\n      dup7\n        /* \"#utility.yul\":8358:8372   */\n      add\n        /* \"#utility.yul\":8351:8389   */\n      mstore\n        /* \"#utility.yul\":8410:8483   */\n      tag_369\n        /* \"#utility.yul\":8478:8482   */\n      dup3\n        /* \"#utility.yul\":8464:8476   */\n      dup3\n        /* \"#utility.yul\":8410:8483   */\n      tag_210\n      jump\t// in\n    tag_369:\n        /* \"#utility.yul\":8402:8483   */\n      swap2\n      pop\n        /* \"#utility.yul\":8255:8494   */\n      pop\n        /* \"#utility.yul\":8580:8584   */\n      0x20\n        /* \"#utility.yul\":8573:8578   */\n      dup4\n        /* \"#utility.yul\":8569:8585   */\n      add\n        /* \"#utility.yul\":8563:8586   */\n      mload\n        /* \"#utility.yul\":8599:8656   */\n      tag_370\n        /* \"#utility.yul\":8650:8654   */\n      0x20\n        /* \"#utility.yul\":8645:8648   */\n      dup7\n        /* \"#utility.yul\":8641:8655   */\n      add\n        /* \"#utility.yul\":8627:8639   */\n      dup3\n        /* \"#utility.yul\":8599:8656   */\n      tag_211\n      jump\t// in\n    tag_370:\n        /* \"#utility.yul\":8504:8666   */\n      pop\n        /* \"#utility.yul\":8753:8757   */\n      0x40\n        /* \"#utility.yul\":8746:8751   */\n      dup4\n        /* \"#utility.yul\":8742:8758   */\n      add\n        /* \"#utility.yul\":8736:8759   */\n      mload\n        /* \"#utility.yul\":8806:8809   */\n      dup5\n        /* \"#utility.yul\":8800:8804   */\n      dup3\n        /* \"#utility.yul\":8796:8810   */\n      sub\n        /* \"#utility.yul\":8789:8793   */\n      0x40\n        /* \"#utility.yul\":8784:8787   */\n      dup7\n        /* \"#utility.yul\":8780:8794   */\n      add\n        /* \"#utility.yul\":8773:8811   */\n      mstore\n        /* \"#utility.yul\":8832:8955   */\n      tag_371\n        /* \"#utility.yul\":8950:8954   */\n      dup3\n        /* \"#utility.yul\":8936:8948   */\n      dup3\n        /* \"#utility.yul\":8832:8955   */\n      tag_217\n      jump\t// in\n    tag_371:\n        /* \"#utility.yul\":8824:8955   */\n      swap2\n      pop\n        /* \"#utility.yul\":8676:8966   */\n      pop\n        /* \"#utility.yul\":8983:8987   */\n      dup1\n        /* \"#utility.yul\":8976:8987   */\n      swap2\n      pop\n        /* \"#utility.yul\":8209:8993   */\n      pop\n        /* \"#utility.yul\":8071:8993   */\n      swap3\n      swap2\n      pop\n      pop\n      jump\t// out\n        /* \"#utility.yul\":8999:9400   */\n    tag_33:\n        /* \"#utility.yul\":9156:9160   */\n      0x00\n        /* \"#utility.yul\":9194:9196   */\n      0x20\n        /* \"#utility.yul\":9183:9192   */\n      dup3\n        /* \"#utility.yul\":9179:9197   */\n      add\n        /* \"#utility.yul\":9171:9197   */\n      swap1\n      pop\n        /* \"#utility.yul\":9243:9252   */\n      dup2\n        /* \"#utility.yul\":9237:9241   */\n      dup2\n        /* \"#utility.yul\":9233:9253   */\n      sub\n        /* \"#utility.yul\":9229:9230   */\n      0x00\n        /* \"#utility.yul\":9218:9227   */\n      dup4\n        /* \"#utility.yul\":9214:9231   */\n      add\n        /* \"#utility.yul\":9207:9254   */\n      mstore\n        /* \"#utility.yul\":9271:9393   */\n      tag_373\n        /* \"#utility.yul\":9388:9392   */\n      dup2\n        /* \"#utility.yul\":9379:9385   */\n      dup5\n        /* \"#utility.yul\":9271:9393   */\n      tag_218\n      jump\t// in\n    tag_373:\n        /* \"#utility.yul\":9263:9393   */\n      swap1\n      pop\n        /* \"#utility.yul\":8999:9400   */\n      swap3\n      swap2\n      pop\n      pop\n      jump\t// out\n        /* \"#utility.yul\":9406:9483   */\n    tag_219:\n        /* \"#utility.yul\":9443:9450   */\n      0x00\n        /* \"#utility.yul\":9472:9477   */\n      dup2\n        /* \"#utility.yul\":9461:9477   */\n      swap1\n      pop\n        /* \"#utility.yul\":9406:9483   */\n      swap2\n      swap1\n      pop\n      jump\t// out\n        /* \"#utility.yul\":9489:9607   */\n    tag_220:\n        /* \"#utility.yul\":9576:9600   */\n      tag_376\n        /* \"#utility.yul\":9594:9599   */\n      dup2\n        /* \"#utility.yul\":9576:9600   */\n      tag_219\n      jump\t// in\n    tag_376:\n        /* \"#utility.yul\":9571:9574   */\n      dup3\n        /* \"#utility.yul\":9564:9601   */\n      mstore\n        /* \"#utility.yul\":9489:9607   */\n      pop\n      pop\n      jump\t// out\n        /* \"#utility.yul\":9613:9835   */\n    tag_41:\n        /* \"#utility.yul\":9706:9710   */\n      0x00\n        /* \"#utility.yul\":9744:9746   */\n      0x20\n        /* \"#utility.yul\":9733:9742   */\n      dup3\n        /* \"#utility.yul\":9729:9747   */\n      add\n        /* \"#utility.yul\":9721:9747   */\n      swap1\n      pop\n        /* \"#utility.yul\":9757:9828   */\n      tag_378\n        /* \"#utility.yul\":9825:9826   */\n      0x00\n        /* \"#utility.yul\":9814:9823   */\n      dup4\n        /* \"#utility.yul\":9810:9827   */\n      add\n        /* \"#utility.yul\":9801:9807   */\n      dup5\n        /* \"#utility.yul\":9757:9828   */\n      tag_220\n      jump\t// in\n    tag_378:\n        /* \"#utility.yul\":9613:9835   */\n      swap3\n      swap2\n      pop\n      pop\n      jump\t// out\n        /* \"#utility.yul\":9841:10010   */\n    tag_221:\n        /* \"#utility.yul\":9925:9936   */\n      0x00\n        /* \"#utility.yul\":9959:9965   */\n      dup3\n        /* \"#utility.yul\":9954:9957   */\n      dup3\n        /* \"#utility.yul\":9947:9966   */\n      mstore\n        /* \"#utility.yul\":9999:10003   */\n      0x20\n        /* \"#utility.yul\":9994:9997   */\n      dup3\n        /* \"#utility.yul\":9990:10004   */\n      add\n        /* \"#utility.yul\":9975:10004   */\n      swap1\n      pop\n        /* \"#utility.yul\":9841:10010   */\n      swap3\n      swap2\n      pop\n      pop\n      jump\t// out\n        /* \"#utility.yul\":10016:10393   */\n    tag_222:\n        /* \"#utility.yul\":10104:10107   */\n      0x00\n        /* \"#utility.yul\":10132:10171   */\n      tag_381\n        /* \"#utility.yul\":10165:10170   */\n      dup3\n        /* \"#utility.yul\":10132:10171   */\n      tag_207\n      jump\t// in\n    tag_381:\n        /* \"#utility.yul\":10187:10258   */\n      tag_382\n        /* \"#utility.yul\":10251:10257   */\n      dup2\n        /* \"#utility.yul\":10246:10249   */\n      dup6\n        /* \"#utility.yul\":10187:10258   */\n      tag_221\n      jump\t// in\n    tag_382:\n        /* \"#utility.yul\":10180:10258   */\n      swap4\n      pop\n        /* \"#utility.yul\":10267:10332   */\n      tag_383\n        /* \"#utility.yul\":10325:10331   */\n      dup2\n        /* \"#utility.yul\":10320:10323   */\n      dup6\n        /* \"#utility.yul\":10313:10317   */\n      0x20\n        /* \"#utility.yul\":10306:10311   */\n      dup7\n        /* \"#utility.yul\":10302:10318   */\n      add\n        /* \"#utility.yul\":10267:10332   */\n      tag_209\n      jump\t// in\n    tag_383:\n        /* \"#utility.yul\":10357:10386   */\n      tag_384\n        /* \"#utility.yul\":10379:10385   */\n      dup2\n        /* \"#utility.yul\":10357:10386   */\n      tag_198\n      jump\t// in\n    tag_384:\n        /* \"#utility.yul\":10352:10355   */\n      dup5\n        /* \"#utility.yul\":10348:10387   */\n      add\n        /* \"#utility.yul\":10341:10387   */\n      swap2\n      pop\n        /* \"#utility.yul\":10108:10393   */\n      pop\n        /* \"#utility.yul\":10016:10393   */\n      swap3\n      swap2\n      pop\n      pop\n      jump\t// out\n        /* \"#utility.yul\":10399:10810   */\n    tag_46:\n        /* \"#utility.yul\":10534:10538   */\n      0x00\n        /* \"#utility.yul\":10572:10574   */\n      0x40\n        /* \"#utility.yul\":10561:10570   */\n      dup3\n        /* \"#utility.yul\":10557:10575   */\n      add\n        /* \"#utility.yul\":10549:10575   */\n      swap1\n      pop\n        /* \"#utility.yul\":10621:10630   */\n      dup2\n        /* \"#utility.yul\":10615:10619   */\n      dup2\n        /* \"#utility.yul\":10611:10631   */\n      sub\n        /* \"#utility.yul\":10607:10608   */\n      0x00\n        /* \"#utility.yul\":10596:10605   */\n      dup4\n        /* \"#utility.yul\":10592:10609   */\n      add\n        /* \"#utility.yul\":10585:10632   */\n      mstore\n        /* \"#utility.yul\":10649:10727   */\n      tag_386\n        /* \"#utility.yul\":10722:10726   */\n      dup2\n        /* \"#utility.yul\":10713:10719   */\n      dup6\n        /* \"#utility.yul\":10649:10727   */\n      tag_222\n      jump\t// in\n    tag_386:\n        /* \"#utility.yul\":10641:10727   */\n      swap1\n      pop\n        /* \"#utility.yul\":10737:10803   */\n      tag_387\n        /* \"#utility.yul\":10799:10801   */\n      0x20\n        /* \"#utility.yul\":10788:10797   */\n      dup4\n        /* \"#utility.yul\":10784:10802   */\n      add\n        /* \"#utility.yul\":10775:10781   */\n      dup5\n        /* \"#utility.yul\":10737:10803   */\n      tag_206\n      jump\t// in\n    tag_387:\n        /* \"#utility.yul\":10399:10810   */\n      swap4\n      swap3\n      pop\n      pop\n      pop\n      jump\t// out\n        /* \"#utility.yul\":10816:11290   */\n    tag_49:\n        /* \"#utility.yul\":10884:10890   */\n      0x00\n        /* \"#utility.yul\":10892:10898   */\n      dup1\n        /* \"#utility.yul\":10941:10943   */\n      0x40\n        /* \"#utility.yul\":10929:10938   */\n      dup4\n        /* \"#utility.yul\":10920:10927   */\n      dup6\n        /* \"#utility.yul\":10916:10939   */\n      sub\n        /* \"#utility.yul\":10912:10944   */\n      slt\n        /* \"#utility.yul\":10909:11028   */\n      iszero\n      tag_389\n      jumpi\n        /* \"#utility.yul\":10947:11026   */\n      tag_390\n      tag_187\n      jump\t// in\n    tag_390:\n        /* \"#utility.yul\":10909:11028   */\n    tag_389:\n        /* \"#utility.yul\":11067:11068   */\n      0x00\n        /* \"#utility.yul\":11092:11145   */\n      tag_391\n        /* \"#utility.yul\":11137:11144   */\n      dup6\n        /* \"#utility.yul\":11128:11134   */\n      dup3\n        /* \"#utility.yul\":11117:11126   */\n      dup7\n        /* \"#utility.yul\":11113:11135   */\n      add\n        /* \"#utility.yul\":11092:11145   */\n      tag_192\n      jump\t// in\n    tag_391:\n        /* \"#utility.yul\":11082:11145   */\n      swap3\n      pop\n        /* \"#utility.yul\":11038:11155   */\n      pop\n        /* \"#utility.yul\":11194:11196   */\n      0x20\n        /* \"#utility.yul\":11220:11273   */\n      tag_392\n        /* \"#utility.yul\":11265:11272   */\n      dup6\n        /* \"#utility.yul\":11256:11262   */\n      dup3\n        /* \"#utility.yul\":11245:11254   */\n      dup7\n        /* \"#utility.yul\":11241:11263   */\n      add\n        /* \"#utility.yul\":11220:11273   */\n      tag_192\n      jump\t// in\n    tag_392:\n        /* \"#utility.yul\":11210:11273   */\n      swap2\n      pop\n        /* \"#utility.yul\":11165:11283   */\n      pop\n        /* \"#utility.yul\":10816:11290   */\n      swap3\n      pop\n      swap3\n      swap1\n      pop\n      jump\t// out\n        /* \"#utility.yul\":11296:11430   */\n    tag_223:\n        /* \"#utility.yul\":11383:11389   */\n      0x00\n        /* \"#utility.yul\":11417:11422   */\n      dup2\n        /* \"#utility.yul\":11411:11423   */\n      mload\n        /* \"#utility.yul\":11401:11423   */\n      swap1\n      pop\n        /* \"#utility.yul\":11296:11430   */\n      swap2\n      swap1\n      pop\n      jump\t// out\n        /* \"#utility.yul\":11436:11640   */\n    tag_224:\n        /* \"#utility.yul\":11555:11566   */\n      0x00\n        /* \"#utility.yul\":11589:11595   */\n      dup3\n        /* \"#utility.yul\":11584:11587   */\n      dup3\n        /* \"#utility.yul\":11577:11596   */\n      mstore\n        /* \"#utility.yul\":11629:11633   */\n      0x20\n        /* \"#utility.yul\":11624:11627   */\n      dup3\n        /* \"#utility.yul\":11620:11634   */\n      add\n        /* \"#utility.yul\":11605:11634   */\n      swap1\n      pop\n        /* \"#utility.yul\":11436:11640   */\n      swap3\n      swap2\n      pop\n      pop\n      jump\t// out\n        /* \"#utility.yul\":11646:11798   */\n    tag_225:\n        /* \"#utility.yul\":11733:11737   */\n      0x00\n        /* \"#utility.yul\":11756:11759   */\n      dup2\n        /* \"#utility.yul\":11748:11759   */\n      swap1\n      pop\n        /* \"#utility.yul\":11786:11790   */\n      0x20\n        /* \"#utility.yul\":11781:11784   */\n      dup3\n        /* \"#utility.yul\":11777:11791   */\n      add\n        /* \"#utility.yul\":11769:11791   */\n      swap1\n      pop\n        /* \"#utility.yul\":11646:11798   */\n      swap2\n      swap1\n      pop\n      jump\t// out\n        /* \"#utility.yul\":11804:11912   */\n    tag_226:\n        /* \"#utility.yul\":11881:11905   */\n      tag_397\n        /* \"#utility.yul\":11899:11904   */\n      dup2\n        /* \"#utility.yul\":11881:11905   */\n      tag_190\n      jump\t// in\n    tag_397:\n        /* \"#utility.yul\":11876:11879   */\n      dup3\n        /* \"#utility.yul\":11869:11906   */\n      mstore\n        /* \"#utility.yul\":11804:11912   */\n      pop\n      pop\n      jump\t// out\n        /* \"#utility.yul\":11952:12436   */\n    tag_227:\n        /* \"#utility.yul\":12079:12083   */\n      0x40\n        /* \"#utility.yul\":12074:12077   */\n      dup3\n        /* \"#utility.yul\":12070:12084   */\n      add\n        /* \"#utility.yul\":12169:12173   */\n      0x00\n        /* \"#utility.yul\":12162:12167   */\n      dup3\n        /* \"#utility.yul\":12158:12174   */\n      add\n        /* \"#utility.yul\":12152:12175   */\n      mload\n        /* \"#utility.yul\":12188:12251   */\n      tag_399\n        /* \"#utility.yul\":12245:12249   */\n      0x00\n        /* \"#utility.yul\":12240:12243   */\n      dup6\n        /* \"#utility.yul\":12236:12250   */\n      add\n        /* \"#utility.yul\":12222:12234   */\n      dup3\n        /* \"#utility.yul\":12188:12251   */\n      tag_226\n      jump\t// in\n    tag_399:\n        /* \"#utility.yul\":12094:12261   */\n      pop\n        /* \"#utility.yul\":12343:12347   */\n      0x20\n        /* \"#utility.yul\":12336:12341   */\n      dup3\n        /* \"#utility.yul\":12332:12348   */\n      add\n        /* \"#utility.yul\":12326:12349   */\n      mload\n        /* \"#utility.yul\":12362:12419   */\n      tag_400\n        /* \"#utility.yul\":12413:12417   */\n      0x20\n        /* \"#utility.yul\":12408:12411   */\n      dup6\n        /* \"#utility.yul\":12404:12418   */\n      add\n        /* \"#utility.yul\":12390:12402   */\n      dup3\n        /* \"#utility.yul\":12362:12419   */\n      tag_211\n      jump\t// in\n    tag_400:\n        /* \"#utility.yul\":12271:12429   */\n      pop\n        /* \"#utility.yul\":12048:12436   */\n      pop\n        /* \"#utility.yul\":11952:12436   */\n      pop\n      pop\n      jump\t// out\n        /* \"#utility.yul\":12442:12701   */\n    tag_228:\n        /* \"#utility.yul\":12551:12561   */\n      0x00\n        /* \"#utility.yul\":12572:12658   */\n      tag_402\n        /* \"#utility.yul\":12654:12657   */\n      dup4\n        /* \"#utility.yul\":12646:12652   */\n      dup4\n        /* \"#utility.yul\":12572:12658   */\n      tag_227\n      jump\t// in\n    tag_402:\n        /* \"#utility.yul\":12690:12694   */\n      0x40\n        /* \"#utility.yul\":12685:12688   */\n      dup4\n        /* \"#utility.yul\":12681:12695   */\n      add\n        /* \"#utility.yul\":12667:12695   */\n      swap1\n      pop\n        /* \"#utility.yul\":12442:12701   */\n      swap3\n      swap2\n      pop\n      pop\n      jump\t// out\n        /* \"#utility.yul\":12707:12840   */\n    tag_229:\n        /* \"#utility.yul\":12797:12801   */\n      0x00\n        /* \"#utility.yul\":12829:12833   */\n      0x20\n        /* \"#utility.yul\":12824:12827   */\n      dup3\n        /* \"#utility.yul\":12820:12834   */\n      add\n        /* \"#utility.yul\":12812:12834   */\n      swap1\n      pop\n        /* \"#utility.yul\":12707:12840   */\n      swap2\n      swap1\n      pop\n      jump\t// out\n        /* \"#utility.yul\":12884:13776   */\n    tag_230:\n        /* \"#utility.yul\":13043:13046   */\n      0x00\n        /* \"#utility.yul\":13072:13146   */\n      tag_405\n        /* \"#utility.yul\":13140:13145   */\n      dup3\n        /* \"#utility.yul\":13072:13146   */\n      tag_223\n      jump\t// in\n    tag_405:\n        /* \"#utility.yul\":13162:13268   */\n      tag_406\n        /* \"#utility.yul\":13261:13267   */\n      dup2\n        /* \"#utility.yul\":13256:13259   */\n      dup6\n        /* \"#utility.yul\":13162:13268   */\n      tag_224\n      jump\t// in\n    tag_406:\n        /* \"#utility.yul\":13155:13268   */\n      swap4\n      pop\n        /* \"#utility.yul\":13292:13368   */\n      tag_407\n        /* \"#utility.yul\":13362:13367   */\n      dup4\n        /* \"#utility.yul\":13292:13368   */\n      tag_225\n      jump\t// in\n    tag_407:\n        /* \"#utility.yul\":13391:13398   */\n      dup1\n        /* \"#utility.yul\":13422:13423   */\n      0x00\n        /* \"#utility.yul\":13407:13751   */\n    tag_408:\n        /* \"#utility.yul\":13432:13438   */\n      dup4\n        /* \"#utility.yul\":13429:13430   */\n      dup2\n        /* \"#utility.yul\":13426:13439   */\n      lt\n        /* \"#utility.yul\":13407:13751   */\n      iszero\n      tag_410\n      jumpi\n        /* \"#utility.yul\":13508:13514   */\n      dup2\n        /* \"#utility.yul\":13502:13515   */\n      mload\n        /* \"#utility.yul\":13535:13638   */\n      tag_411\n        /* \"#utility.yul\":13634:13637   */\n      dup9\n        /* \"#utility.yul\":13619:13632   */\n      dup3\n        /* \"#utility.yul\":13535:13638   */\n      tag_228\n      jump\t// in\n    tag_411:\n        /* \"#utility.yul\":13528:13638   */\n      swap8\n      pop\n        /* \"#utility.yul\":13661:13741   */\n      tag_412\n        /* \"#utility.yul\":13734:13740   */\n      dup4\n        /* \"#utility.yul\":13661:13741   */\n      tag_229\n      jump\t// in\n    tag_412:\n        /* \"#utility.yul\":13651:13741   */\n      swap3\n      pop\n        /* \"#utility.yul\":13467:13751   */\n      pop\n        /* \"#utility.yul\":13454:13455   */\n      0x01\n        /* \"#utility.yul\":13451:13452   */\n      dup2\n        /* \"#utility.yul\":13447:13456   */\n      add\n        /* \"#utility.yul\":13442:13456   */\n      swap1\n      pop\n        /* \"#utility.yul\":13407:13751   */\n      jump(tag_408)\n    tag_410:\n        /* \"#utility.yul\":13411:13425   */\n      pop\n        /* \"#utility.yul\":13767:13770   */\n      dup6\n        /* \"#utility.yul\":13760:13770   */\n      swap4\n      pop\n        /* \"#utility.yul\":13048:13776   */\n      pop\n      pop\n      pop\n        /* \"#utility.yul\":12884:13776   */\n      swap3\n      swap2\n      pop\n      pop\n      jump\t// out\n        /* \"#utility.yul\":13782:14235   */\n    tag_60:\n        /* \"#utility.yul\":13965:13969   */\n      0x00\n        /* \"#utility.yul\":14003:14005   */\n      0x20\n        /* \"#utility.yul\":13992:14001   */\n      dup3\n        /* \"#utility.yul\":13988:14006   */\n      add\n        /* \"#utility.yul\":13980:14006   */\n      swap1\n      pop\n        /* \"#utility.yul\":14052:14061   */\n      dup2\n        /* \"#utility.yul\":14046:14050   */\n      dup2\n        /* \"#utility.yul\":14042:14062   */\n      sub\n        /* \"#utility.yul\":14038:14039   */\n      0x00\n        /* \"#utility.yul\":14027:14036   */\n      dup4\n        /* \"#utility.yul\":14023:14040   */\n      add\n        /* \"#utility.yul\":14016:14063   */\n      mstore\n        /* \"#utility.yul\":14080:14228   */\n      tag_414\n        /* \"#utility.yul\":14223:14227   */\n      dup2\n        /* \"#utility.yul\":14214:14220   */\n      dup5\n        /* \"#utility.yul\":14080:14228   */\n      tag_230\n      jump\t// in\n    tag_414:\n        /* \"#utility.yul\":14072:14228   */\n      swap1\n      pop\n        /* \"#utility.yul\":13782:14235   */\n      swap3\n      swap2\n      pop\n      pop\n      jump\t// out\n        /* \"#utility.yul\":14241:14355   */\n    tag_231:\n        /* \"#utility.yul\":14308:14314   */\n      0x00\n        /* \"#utility.yul\":14342:14347   */\n      dup2\n        /* \"#utility.yul\":14336:14348   */\n      mload\n        /* \"#utility.yul\":14326:14348   */\n      swap1\n      pop\n        /* \"#utility.yul\":14241:14355   */\n      swap2\n      swap1\n      pop\n      jump\t// out\n        /* \"#utility.yul\":14361:14545   */\n    tag_232:\n        /* \"#utility.yul\":14460:14471   */\n      0x00\n        /* \"#utility.yul\":14494:14500   */\n      dup3\n        /* \"#utility.yul\":14489:14492   */\n      dup3\n        /* \"#utility.yul\":14482:14501   */\n      mstore\n        /* \"#utility.yul\":14534:14538   */\n      0x20\n        /* \"#utility.yul\":14529:14532   */\n      dup3\n        /* \"#utility.yul\":14525:14539   */\n      add\n        /* \"#utility.yul\":14510:14539   */\n      swap1\n      pop\n        /* \"#utility.yul\":14361:14545   */\n      swap3\n      swap2\n      pop\n      pop\n      jump\t// out\n        /* \"#utility.yul\":14551:14683   */\n    tag_233:\n        /* \"#utility.yul\":14618:14622   */\n      0x00\n        /* \"#utility.yul\":14641:14644   */\n      dup2\n        /* \"#utility.yul\":14633:14644   */\n      swap1\n      pop\n        /* \"#utility.yul\":14671:14675   */\n      0x20\n        /* \"#utility.yul\":14666:14669   */\n      dup3\n        /* \"#utility.yul\":14662:14676   */\n      add\n        /* \"#utility.yul\":14654:14676   */\n      swap1\n      pop\n        /* \"#utility.yul\":14551:14683   */\n      swap2\n      swap1\n      pop\n      jump\t// out\n        /* \"#utility.yul\":14689:14868   */\n    tag_234:\n        /* \"#utility.yul\":14758:14768   */\n      0x00\n        /* \"#utility.yul\":14779:14825   */\n      tag_419\n        /* \"#utility.yul\":14821:14824   */\n      dup4\n        /* \"#utility.yul\":14813:14819   */\n      dup4\n        /* \"#utility.yul\":14779:14825   */\n      tag_226\n      jump\t// in\n    tag_419:\n        /* \"#utility.yul\":14857:14861   */\n      0x20\n        /* \"#utility.yul\":14852:14855   */\n      dup4\n        /* \"#utility.yul\":14848:14862   */\n      add\n        /* \"#utility.yul\":14834:14862   */\n      swap1\n      pop\n        /* \"#utility.yul\":14689:14868   */\n      swap3\n      swap2\n      pop\n      pop\n      jump\t// out\n        /* \"#utility.yul\":14874:14987   */\n    tag_235:\n        /* \"#utility.yul\":14944:14948   */\n      0x00\n        /* \"#utility.yul\":14976:14980   */\n      0x20\n        /* \"#utility.yul\":14971:14974   */\n      dup3\n        /* \"#utility.yul\":14967:14981   */\n      add\n        /* \"#utility.yul\":14959:14981   */\n      swap1\n      pop\n        /* \"#utility.yul\":14874:14987   */\n      swap2\n      swap1\n      pop\n      jump\t// out\n        /* \"#utility.yul\":15023:15755   */\n    tag_236:\n        /* \"#utility.yul\":15142:15145   */\n      0x00\n        /* \"#utility.yul\":15171:15225   */\n      tag_422\n        /* \"#utility.yul\":15219:15224   */\n      dup3\n        /* \"#utility.yul\":15171:15225   */\n      tag_231\n      jump\t// in\n    tag_422:\n        /* \"#utility.yul\":15241:15327   */\n      tag_423\n        /* \"#utility.yul\":15320:15326   */\n      dup2\n        /* \"#utility.yul\":15315:15318   */\n      dup6\n        /* \"#utility.yul\":15241:15327   */\n      tag_232\n      jump\t// in\n    tag_423:\n        /* \"#utility.yul\":15234:15327   */\n      swap4\n      pop\n        /* \"#utility.yul\":15351:15407   */\n      tag_424\n        /* \"#utility.yul\":15401:15406   */\n      dup4\n        /* \"#utility.yul\":15351:15407   */\n      tag_233\n      jump\t// in\n    tag_424:\n        /* \"#utility.yul\":15430:15437   */\n      dup1\n        /* \"#utility.yul\":15461:15462   */\n      0x00\n        /* \"#utility.yul\":15446:15730   */\n    tag_425:\n        /* \"#utility.yul\":15471:15477   */\n      dup4\n        /* \"#utility.yul\":15468:15469   */\n      dup2\n        /* \"#utility.yul\":15465:15478   */\n      lt\n        /* \"#utility.yul\":15446:15730   */\n      iszero\n      tag_427\n      jumpi\n        /* \"#utility.yul\":15547:15553   */\n      dup2\n        /* \"#utility.yul\":15541:15554   */\n      mload\n        /* \"#utility.yul\":15574:15637   */\n      tag_428\n        /* \"#utility.yul\":15633:15636   */\n      dup9\n        /* \"#utility.yul\":15618:15631   */\n      dup3\n        /* \"#utility.yul\":15574:15637   */\n      tag_234\n      jump\t// in\n    tag_428:\n        /* \"#utility.yul\":15567:15637   */\n      swap8\n      pop\n        /* \"#utility.yul\":15660:15720   */\n      tag_429\n        /* \"#utility.yul\":15713:15719   */\n      dup4\n        /* \"#utility.yul\":15660:15720   */\n      tag_235\n      jump\t// in\n    tag_429:\n        /* \"#utility.yul\":15650:15720   */\n      swap3\n      pop\n        /* \"#utility.yul\":15506:15730   */\n      pop\n        /* \"#utility.yul\":15493:15494   */\n      0x01\n        /* \"#utility.yul\":15490:15491   */\n      dup2\n        /* \"#utility.yul\":15486:15495   */\n      add\n        /* \"#utility.yul\":15481:15495   */\n      swap1\n      pop\n        /* \"#utility.yul\":15446:15730   */\n      jump(tag_425)\n    tag_427:\n        /* \"#utility.yul\":15450:15464   */\n      pop\n        /* \"#utility.yul\":15746:15749   */\n      dup6\n        /* \"#utility.yul\":15739:15749   */\n      swap4\n      pop\n        /* \"#utility.yul\":15147:15755   */\n      pop\n      pop\n      pop\n        /* \"#utility.yul\":15023:15755   */\n      swap3\n      swap2\n      pop\n      pop\n      jump\t// out\n        /* \"#utility.yul\":15761:16134   */\n    tag_64:\n        /* \"#utility.yul\":15904:15908   */\n      0x00\n        /* \"#utility.yul\":15942:15944   */\n      0x20\n        /* \"#utility.yul\":15931:15940   */\n      dup3\n        /* \"#utility.yul\":15927:15945   */\n      add\n        /* \"#utility.yul\":15919:15945   */\n      swap1\n      pop\n        /* \"#utility.yul\":15991:16000   */\n      dup2\n        /* \"#utility.yul\":15985:15989   */\n      dup2\n        /* \"#utility.yul\":15981:16001   */\n      sub\n        /* \"#utility.yul\":15977:15978   */\n      0x00\n        /* \"#utility.yul\":15966:15975   */\n      dup4\n        /* \"#utility.yul\":15962:15979   */\n      add\n        /* \"#utility.yul\":15955:16002   */\n      mstore\n        /* \"#utility.yul\":16019:16127   */\n      tag_431\n        /* \"#utility.yul\":16122:16126   */\n      dup2\n        /* \"#utility.yul\":16113:16119   */\n      dup5\n        /* \"#utility.yul\":16019:16127   */\n      tag_236\n      jump\t// in\n    tag_431:\n        /* \"#utility.yul\":16011:16127   */\n      swap1\n      pop\n        /* \"#utility.yul\":15761:16134   */\n      swap3\n      swap2\n      pop\n      pop\n      jump\t// out\n        /* \"#utility.yul\":16140:16257   */\n    tag_237:\n        /* \"#utility.yul\":16249:16250   */\n      0x00\n        /* \"#utility.yul\":16246:16247   */\n      dup1\n        /* \"#utility.yul\":16239:16251   */\n      revert\n        /* \"#utility.yul\":16263:16380   */\n    tag_238:\n        /* \"#utility.yul\":16372:16373   */\n      0x00\n        /* \"#utility.yul\":16369:16370   */\n      dup1\n        /* \"#utility.yul\":16362:16374   */\n      revert\n        /* \"#utility.yul\":16386:16707   */\n    tag_239:\n        /* \"#utility.yul\":16473:16477   */\n      0x00\n        /* \"#utility.yul\":16563:16581   */\n      0xffffffffffffffff\n        /* \"#utility.yul\":16555:16561   */\n      dup3\n        /* \"#utility.yul\":16552:16582   */\n      gt\n        /* \"#utility.yul\":16549:16605   */\n      iszero\n      tag_435\n      jumpi\n        /* \"#utility.yul\":16585:16603   */\n      tag_436\n      tag_199\n      jump\t// in\n    tag_436:\n        /* \"#utility.yul\":16549:16605   */\n    tag_435:\n        /* \"#utility.yul\":16635:16639   */\n      0x20\n        /* \"#utility.yul\":16627:16633   */\n      dup3\n        /* \"#utility.yul\":16623:16640   */\n      mul\n        /* \"#utility.yul\":16615:16640   */\n      swap1\n      pop\n        /* \"#utility.yul\":16695:16699   */\n      0x20\n        /* \"#utility.yul\":16689:16693   */\n      dup2\n        /* \"#utility.yul\":16685:16700   */\n      add\n        /* \"#utility.yul\":16677:16700   */\n      swap1\n      pop\n        /* \"#utility.yul\":16386:16707   */\n      swap2\n      swap1\n      pop\n      jump\t// out\n        /* \"#utility.yul\":16713:16830   */\n    tag_240:\n        /* \"#utility.yul\":16822:16823   */\n      0x00\n        /* \"#utility.yul\":16819:16820   */\n      dup1\n        /* \"#utility.yul\":16812:16824   */\n      revert\n        /* \"#utility.yul\":16852:17797   */\n    tag_241:\n        /* \"#utility.yul\":16958:16963   */\n      0x00\n        /* \"#utility.yul\":16983:17074   */\n      tag_439\n        /* \"#utility.yul\":16999:17073   */\n      tag_440\n        /* \"#utility.yul\":17066:17072   */\n      dup5\n        /* \"#utility.yul\":16999:17073   */\n      tag_239\n      jump\t// in\n    tag_440:\n        /* \"#utility.yul\":16983:17074   */\n      tag_201\n      jump\t// in\n    tag_439:\n        /* \"#utility.yul\":16974:17074   */\n      swap1\n      pop\n        /* \"#utility.yul\":17094:17099   */\n      dup1\n        /* \"#utility.yul\":17123:17129   */\n      dup4\n        /* \"#utility.yul\":17116:17121   */\n      dup3\n        /* \"#utility.yul\":17109:17130   */\n      mstore\n        /* \"#utility.yul\":17157:17161   */\n      0x20\n        /* \"#utility.yul\":17150:17155   */\n      dup3\n        /* \"#utility.yul\":17146:17162   */\n      add\n        /* \"#utility.yul\":17139:17162   */\n      swap1\n      pop\n        /* \"#utility.yul\":17210:17214   */\n      0x20\n        /* \"#utility.yul\":17202:17208   */\n      dup5\n        /* \"#utility.yul\":17198:17215   */\n      mul\n        /* \"#utility.yul\":17190:17196   */\n      dup4\n        /* \"#utility.yul\":17186:17216   */\n      add\n        /* \"#utility.yul\":17239:17242   */\n      dup6\n        /* \"#utility.yul\":17231:17237   */\n      dup2\n        /* \"#utility.yul\":17228:17243   */\n      gt\n        /* \"#utility.yul\":17225:17347   */\n      iszero\n      tag_441\n      jumpi\n        /* \"#utility.yul\":17258:17337   */\n      tag_442\n      tag_240\n      jump\t// in\n    tag_442:\n        /* \"#utility.yul\":17225:17347   */\n    tag_441:\n        /* \"#utility.yul\":17373:17379   */\n      dup4\n        /* \"#utility.yul\":17356:17791   */\n    tag_443:\n        /* \"#utility.yul\":17390:17396   */\n      dup2\n        /* \"#utility.yul\":17385:17388   */\n      dup2\n        /* \"#utility.yul\":17382:17397   */\n      lt\n        /* \"#utility.yul\":17356:17791   */\n      iszero\n      tag_445\n      jumpi\n        /* \"#utility.yul\":17479:17482   */\n      dup1\n        /* \"#utility.yul\":17466:17483   */\n      calldataload\n        /* \"#utility.yul\":17515:17533   */\n      0xffffffffffffffff\n        /* \"#utility.yul\":17502:17513   */\n      dup2\n        /* \"#utility.yul\":17499:17534   */\n      gt\n        /* \"#utility.yul\":17496:17618   */\n      iszero\n      tag_446\n      jumpi\n        /* \"#utility.yul\":17537:17616   */\n      tag_447\n      tag_196\n      jump\t// in\n    tag_447:\n        /* \"#utility.yul\":17496:17618   */\n    tag_446:\n        /* \"#utility.yul\":17661:17672   */\n      dup1\n        /* \"#utility.yul\":17653:17659   */\n      dup7\n        /* \"#utility.yul\":17649:17673   */\n      add\n        /* \"#utility.yul\":17699:17746   */\n      tag_448\n        /* \"#utility.yul\":17742:17745   */\n      dup10\n        /* \"#utility.yul\":17730:17740   */\n      dup3\n        /* \"#utility.yul\":17699:17746   */\n      tag_205\n      jump\t// in\n    tag_448:\n        /* \"#utility.yul\":17694:17697   */\n      dup6\n        /* \"#utility.yul\":17687:17747   */\n      mstore\n        /* \"#utility.yul\":17776:17780   */\n      0x20\n        /* \"#utility.yul\":17771:17774   */\n      dup6\n        /* \"#utility.yul\":17767:17781   */\n      add\n        /* \"#utility.yul\":17760:17781   */\n      swap5\n      pop\n        /* \"#utility.yul\":17432:17791   */\n      pop\n      pop\n        /* \"#utility.yul\":17416:17420   */\n      0x20\n        /* \"#utility.yul\":17411:17414   */\n      dup2\n        /* \"#utility.yul\":17407:17421   */\n      add\n        /* \"#utility.yul\":17400:17421   */\n      swap1\n      pop\n        /* \"#utility.yul\":17356:17791   */\n      jump(tag_443)\n    tag_445:\n        /* \"#utility.yul\":17360:17381   */\n      pop\n        /* \"#utility.yul\":16964:17797   */\n      pop\n      pop\n        /* \"#utility.yul\":16852:17797   */\n      swap4\n      swap3\n      pop\n      pop\n      pop\n      jump\t// out\n        /* \"#utility.yul\":17819:18209   */\n    tag_242:\n        /* \"#utility.yul\":17900:17905   */\n      0x00\n        /* \"#utility.yul\":17949:17952   */\n      dup3\n        /* \"#utility.yul\":17942:17946   */\n      0x1f\n        /* \"#utility.yul\":17934:17940   */\n      dup4\n        /* \"#utility.yul\":17930:17947   */\n      add\n        /* \"#utility.yul\":17926:17953   */\n      slt\n        /* \"#utility.yul\":17916:18038   */\n      tag_450\n      jumpi\n        /* \"#utility.yul\":17957:18036   */\n      tag_451\n      tag_196\n      jump\t// in\n    tag_451:\n        /* \"#utility.yul\":17916:18038   */\n    tag_450:\n        /* \"#utility.yul\":18074:18080   */\n      dup2\n        /* \"#utility.yul\":18061:18081   */\n      calldataload\n        /* \"#utility.yul\":18099:18203   */\n      tag_452\n        /* \"#utility.yul\":18199:18202   */\n      dup5\n        /* \"#utility.yul\":18191:18197   */\n      dup3\n        /* \"#utility.yul\":18184:18188   */\n      0x20\n        /* \"#utility.yul\":18176:18182   */\n      dup7\n        /* \"#utility.yul\":18172:18189   */\n      add\n        /* \"#utility.yul\":18099:18203   */\n      tag_241\n      jump\t// in\n    tag_452:\n        /* \"#utility.yul\":18090:18203   */\n      swap2\n      pop\n        /* \"#utility.yul\":17906:18209   */\n      pop\n        /* \"#utility.yul\":17819:18209   */\n      swap3\n      swap2\n      pop\n      pop\n      jump\t// out\n        /* \"#utility.yul\":18247:19364   */\n    tag_243:\n        /* \"#utility.yul\":18328:18333   */\n      0x00\n        /* \"#utility.yul\":18372:18376   */\n      0x60\n        /* \"#utility.yul\":18360:18369   */\n      dup3\n        /* \"#utility.yul\":18355:18358   */\n      dup5\n        /* \"#utility.yul\":18351:18370   */\n      sub\n        /* \"#utility.yul\":18347:18377   */\n      slt\n        /* \"#utility.yul\":18344:18461   */\n      iszero\n      tag_454\n      jumpi\n        /* \"#utility.yul\":18380:18459   */\n      tag_455\n      tag_237\n      jump\t// in\n    tag_455:\n        /* \"#utility.yul\":18344:18461   */\n    tag_454:\n        /* \"#utility.yul\":18479:18500   */\n      tag_456\n        /* \"#utility.yul\":18495:18499   */\n      0x60\n        /* \"#utility.yul\":18479:18500   */\n      tag_201\n      jump\t// in\n    tag_456:\n        /* \"#utility.yul\":18470:18500   */\n      swap1\n      pop\n        /* \"#utility.yul\":18591:18592   */\n      0x00\n        /* \"#utility.yul\":18580:18589   */\n      dup3\n        /* \"#utility.yul\":18576:18593   */\n      add\n        /* \"#utility.yul\":18563:18594   */\n      calldataload\n        /* \"#utility.yul\":18621:18639   */\n      0xffffffffffffffff\n        /* \"#utility.yul\":18613:18619   */\n      dup2\n        /* \"#utility.yul\":18610:18640   */\n      gt\n        /* \"#utility.yul\":18607:18724   */\n      iszero\n      tag_457\n      jumpi\n        /* \"#utility.yul\":18643:18722   */\n      tag_458\n      tag_238\n      jump\t// in\n    tag_458:\n        /* \"#utility.yul\":18607:18724   */\n    tag_457:\n        /* \"#utility.yul\":18763:18822   */\n      tag_459\n        /* \"#utility.yul\":18818:18821   */\n      dup5\n        /* \"#utility.yul\":18809:18815   */\n      dup3\n        /* \"#utility.yul\":18798:18807   */\n      dup6\n        /* \"#utility.yul\":18794:18816   */\n      add\n        /* \"#utility.yul\":18763:18822   */\n      tag_205\n      jump\t// in\n    tag_459:\n        /* \"#utility.yul\":18756:18760   */\n      0x00\n        /* \"#utility.yul\":18749:18754   */\n      dup4\n        /* \"#utility.yul\":18745:18761   */\n      add\n        /* \"#utility.yul\":18738:18823   */\n      mstore\n        /* \"#utility.yul\":18510:18834   */\n      pop\n        /* \"#utility.yul\":18897:18899   */\n      0x20\n        /* \"#utility.yul\":18938:18984   */\n      tag_460\n        /* \"#utility.yul\":18980:18983   */\n      dup5\n        /* \"#utility.yul\":18971:18977   */\n      dup3\n        /* \"#utility.yul\":18960:18969   */\n      dup6\n        /* \"#utility.yul\":18956:18978   */\n      add\n        /* \"#utility.yul\":18938:18984   */\n      tag_195\n      jump\t// in\n    tag_460:\n        /* \"#utility.yul\":18931:18935   */\n      0x20\n        /* \"#utility.yul\":18924:18929   */\n      dup4\n        /* \"#utility.yul\":18920:18936   */\n      add\n        /* \"#utility.yul\":18913:18985   */\n      mstore\n        /* \"#utility.yul\":18844:18996   */\n      pop\n        /* \"#utility.yul\":19088:19090   */\n      0x40\n        /* \"#utility.yul\":19077:19086   */\n      dup3\n        /* \"#utility.yul\":19073:19091   */\n      add\n        /* \"#utility.yul\":19060:19092   */\n      calldataload\n        /* \"#utility.yul\":19119:19137   */\n      0xffffffffffffffff\n        /* \"#utility.yul\":19111:19117   */\n      dup2\n        /* \"#utility.yul\":19108:19138   */\n      gt\n        /* \"#utility.yul\":19105:19222   */\n      iszero\n      tag_461\n      jumpi\n        /* \"#utility.yul\":19141:19220   */\n      tag_462\n      tag_238\n      jump\t// in\n    tag_462:\n        /* \"#utility.yul\":19105:19222   */\n    tag_461:\n        /* \"#utility.yul\":19261:19345   */\n      tag_463\n        /* \"#utility.yul\":19341:19344   */\n      dup5\n        /* \"#utility.yul\":19332:19338   */\n      dup3\n        /* \"#utility.yul\":19321:19330   */\n      dup6\n        /* \"#utility.yul\":19317:19339   */\n      add\n        /* \"#utility.yul\":19261:19345   */\n      tag_242\n      jump\t// in\n    tag_463:\n        /* \"#utility.yul\":19254:19258   */\n      0x40\n        /* \"#utility.yul\":19247:19252   */\n      dup4\n        /* \"#utility.yul\":19243:19259   */\n      add\n        /* \"#utility.yul\":19236:19346   */\n      mstore\n        /* \"#utility.yul\":19006:19357   */\n      pop\n        /* \"#utility.yul\":18247:19364   */\n      swap3\n      swap2\n      pop\n      pop\n      jump\t// out\n        /* \"#utility.yul\":19370:20068   */\n    tag_67:\n        /* \"#utility.yul\":19470:19476   */\n      0x00\n        /* \"#utility.yul\":19478:19484   */\n      dup1\n        /* \"#utility.yul\":19527:19529   */\n      0x40\n        /* \"#utility.yul\":19515:19524   */\n      dup4\n        /* \"#utility.yul\":19506:19513   */\n      dup6\n        /* \"#utility.yul\":19502:19525   */\n      sub\n        /* \"#utility.yul\":19498:19530   */\n      slt\n        /* \"#utility.yul\":19495:19614   */\n      iszero\n      tag_465\n      jumpi\n        /* \"#utility.yul\":19533:19612   */\n      tag_466\n      tag_187\n      jump\t// in\n    tag_466:\n        /* \"#utility.yul\":19495:19614   */\n    tag_465:\n        /* \"#utility.yul\":19653:19654   */\n      0x00\n        /* \"#utility.yul\":19678:19731   */\n      tag_467\n        /* \"#utility.yul\":19723:19730   */\n      dup6\n        /* \"#utility.yul\":19714:19720   */\n      dup3\n        /* \"#utility.yul\":19703:19712   */\n      dup7\n        /* \"#utility.yul\":19699:19721   */\n      add\n        /* \"#utility.yul\":19678:19731   */\n      tag_192\n      jump\t// in\n    tag_467:\n        /* \"#utility.yul\":19668:19731   */\n      swap3\n      pop\n        /* \"#utility.yul\":19624:19741   */\n      pop\n        /* \"#utility.yul\":19808:19810   */\n      0x20\n        /* \"#utility.yul\":19797:19806   */\n      dup4\n        /* \"#utility.yul\":19793:19811   */\n      add\n        /* \"#utility.yul\":19780:19812   */\n      calldataload\n        /* \"#utility.yul\":19839:19857   */\n      0xffffffffffffffff\n        /* \"#utility.yul\":19831:19837   */\n      dup2\n        /* \"#utility.yul\":19828:19858   */\n      gt\n        /* \"#utility.yul\":19825:19942   */\n      iszero\n      tag_468\n      jumpi\n        /* \"#utility.yul\":19861:19940   */\n      tag_469\n      tag_188\n      jump\t// in\n    tag_469:\n        /* \"#utility.yul\":19825:19942   */\n    tag_468:\n        /* \"#utility.yul\":19966:20051   */\n      tag_470\n        /* \"#utility.yul\":20043:20050   */\n      dup6\n        /* \"#utility.yul\":20034:20040   */\n      dup3\n        /* \"#utility.yul\":20023:20032   */\n      dup7\n        /* \"#utility.yul\":20019:20041   */\n      add\n        /* \"#utility.yul\":19966:20051   */\n      tag_243\n      jump\t// in\n    tag_470:\n        /* \"#utility.yul\":19956:20051   */\n      swap2\n      pop\n        /* \"#utility.yul\":19751:20061   */\n      pop\n        /* \"#utility.yul\":19370:20068   */\n      swap3\n      pop\n      swap3\n      swap1\n      pop\n      jump\t// out\n        /* \"#utility.yul\":20074:20134   */\n    tag_244:\n        /* \"#utility.yul\":20102:20105   */\n      0x00\n        /* \"#utility.yul\":20123:20128   */\n      dup2\n        /* \"#utility.yul\":20116:20128   */\n      swap1\n      pop\n        /* \"#utility.yul\":20074:20134   */\n      swap2\n      swap1\n      pop\n      jump\t// out\n        /* \"#utility.yul\":20140:20282   */\n    tag_245:\n        /* \"#utility.yul\":20190:20199   */\n      0x00\n        /* \"#utility.yul\":20223:20276   */\n      tag_473\n        /* \"#utility.yul\":20241:20275   */\n      tag_474\n        /* \"#utility.yul\":20250:20274   */\n      tag_475\n        /* \"#utility.yul\":20268:20273   */\n      dup5\n        /* \"#utility.yul\":20250:20274   */\n      tag_189\n      jump\t// in\n    tag_475:\n        /* \"#utility.yul\":20241:20275   */\n      tag_244\n      jump\t// in\n    tag_474:\n        /* \"#utility.yul\":20223:20276   */\n      tag_189\n      jump\t// in\n    tag_473:\n        /* \"#utility.yul\":20210:20276   */\n      swap1\n      pop\n        /* \"#utility.yul\":20140:20282   */\n      swap2\n      swap1\n      pop\n      jump\t// out\n        /* \"#utility.yul\":20288:20414   */\n    tag_246:\n        /* \"#utility.yul\":20338:20347   */\n      0x00\n        /* \"#utility.yul\":20371:20408   */\n      tag_477\n        /* \"#utility.yul\":20402:20407   */\n      dup3\n        /* \"#utility.yul\":20371:20408   */\n      tag_245\n      jump\t// in\n    tag_477:\n        /* \"#utility.yul\":20358:20408   */\n      swap1\n      pop\n        /* \"#utility.yul\":20288:20414   */\n      swap2\n      swap1\n      pop\n      jump\t// out\n        /* \"#utility.yul\":20420:20567   */\n    tag_247:\n        /* \"#utility.yul\":20491:20500   */\n      0x00\n        /* \"#utility.yul\":20524:20561   */\n      tag_479\n        /* \"#utility.yul\":20555:20560   */\n      dup3\n        /* \"#utility.yul\":20524:20561   */\n      tag_246\n      jump\t// in\n    tag_479:\n        /* \"#utility.yul\":20511:20561   */\n      swap1\n      pop\n        /* \"#utility.yul\":20420:20567   */\n      swap2\n      swap1\n      pop\n      jump\t// out\n        /* \"#utility.yul\":20573:20746   */\n    tag_248:\n        /* \"#utility.yul\":20681:20739   */\n      tag_481\n        /* \"#utility.yul\":20733:20738   */\n      dup2\n        /* \"#utility.yul\":20681:20739   */\n      tag_247\n      jump\t// in\n    tag_481:\n        /* \"#utility.yul\":20676:20679   */\n      dup3\n        /* \"#utility.yul\":20669:20740   */\n      mstore\n        /* \"#utility.yul\":20573:20746   */\n      pop\n      pop\n      jump\t// out\n        /* \"#utility.yul\":20752:21016   */\n    tag_72:\n        /* \"#utility.yul\":20866:20870   */\n      0x00\n        /* \"#utility.yul\":20904:20906   */\n      0x20\n        /* \"#utility.yul\":20893:20902   */\n      dup3\n        /* \"#utility.yul\":20889:20907   */\n      add\n        /* \"#utility.yul\":20881:20907   */\n      swap1\n      pop\n        /* \"#utility.yul\":20917:21009   */\n      tag_483\n        /* \"#utility.yul\":21006:21007   */\n      0x00\n        /* \"#utility.yul\":20995:21004   */\n      dup4\n        /* \"#utility.yul\":20991:21008   */\n      add\n        /* \"#utility.yul\":20982:20988   */\n      dup5\n        /* \"#utility.yul\":20917:21009   */\n      tag_248\n      jump\t// in\n    tag_483:\n        /* \"#utility.yul\":20752:21016   */\n      swap3\n      swap2\n      pop\n      pop\n      jump\t// out\n        /* \"#utility.yul\":21022:21144   */\n    tag_249:\n        /* \"#utility.yul\":21095:21119   */\n      tag_485\n        /* \"#utility.yul\":21113:21118   */\n      dup2\n        /* \"#utility.yul\":21095:21119   */\n      tag_219\n      jump\t// in\n    tag_485:\n        /* \"#utility.yul\":21088:21093   */\n      dup2\n        /* \"#utility.yul\":21085:21120   */\n      eq\n        /* \"#utility.yul\":21075:21138   */\n      tag_486\n      jumpi\n        /* \"#utility.yul\":21134:21135   */\n      0x00\n        /* \"#utility.yul\":21131:21132   */\n      dup1\n        /* \"#utility.yul\":21124:21136   */\n      revert\n        /* \"#utility.yul\":21075:21138   */\n    tag_486:\n        /* \"#utility.yul\":21022:21144   */\n      pop\n      jump\t// out\n        /* \"#utility.yul\":21150:21289   */\n    tag_250:\n        /* \"#utility.yul\":21196:21201   */\n      0x00\n        /* \"#utility.yul\":21234:21240   */\n      dup2\n        /* \"#utility.yul\":21221:21241   */\n      calldataload\n        /* \"#utility.yul\":21212:21241   */\n      swap1\n      pop\n        /* \"#utility.yul\":21250:21283   */\n      tag_488\n        /* \"#utility.yul\":21277:21282   */\n      dup2\n        /* \"#utility.yul\":21250:21283   */\n      tag_249\n      jump\t// in\n    tag_488:\n        /* \"#utility.yul\":21150:21289   */\n      swap3\n      swap2\n      pop\n      pop\n      jump\t// out\n        /* \"#utility.yul\":21295:21769   */\n    tag_75:\n        /* \"#utility.yul\":21363:21369   */\n      0x00\n        /* \"#utility.yul\":21371:21377   */\n      dup1\n        /* \"#utility.yul\":21420:21422   */\n      0x40\n        /* \"#utility.yul\":21408:21417   */\n      dup4\n        /* \"#utility.yul\":21399:21406   */\n      dup6\n        /* \"#utility.yul\":21395:21418   */\n      sub\n        /* \"#utility.yul\":21391:21423   */\n      slt\n        /* \"#utility.yul\":21388:21507   */\n      iszero\n      tag_490\n      jumpi\n        /* \"#utility.yul\":21426:21505   */\n      tag_491\n      tag_187\n      jump\t// in\n    tag_491:\n        /* \"#utility.yul\":21388:21507   */\n    tag_490:\n        /* \"#utility.yul\":21546:21547   */\n      0x00\n        /* \"#utility.yul\":21571:21624   */\n      tag_492\n        /* \"#utility.yul\":21616:21623   */\n      dup6\n        /* \"#utility.yul\":21607:21613   */\n      dup3\n        /* \"#utility.yul\":21596:21605   */\n      dup7\n        /* \"#utility.yul\":21592:21614   */\n      add\n        /* \"#utility.yul\":21571:21624   */\n      tag_192\n      jump\t// in\n    tag_492:\n        /* \"#utility.yul\":21561:21624   */\n      swap3\n      pop\n        /* \"#utility.yul\":21517:21634   */\n      pop\n        /* \"#utility.yul\":21673:21675   */\n      0x20\n        /* \"#utility.yul\":21699:21752   */\n      tag_493\n        /* \"#utility.yul\":21744:21751   */\n      dup6\n        /* \"#utility.yul\":21735:21741   */\n      dup3\n        /* \"#utility.yul\":21724:21733   */\n      dup7\n        /* \"#utility.yul\":21720:21742   */\n      add\n        /* \"#utility.yul\":21699:21752   */\n      tag_250\n      jump\t// in\n    tag_493:\n        /* \"#utility.yul\":21689:21752   */\n      swap2\n      pop\n        /* \"#utility.yul\":21644:21762   */\n      pop\n        /* \"#utility.yul\":21295:21769   */\n      swap3\n      pop\n      swap3\n      swap1\n      pop\n      jump\t// out\n        /* \"#utility.yul\":21775:21893   */\n    tag_251:\n        /* \"#utility.yul\":21862:21886   */\n      tag_495\n        /* \"#utility.yul\":21880:21885   */\n      dup2\n        /* \"#utility.yul\":21862:21886   */\n      tag_190\n      jump\t// in\n    tag_495:\n        /* \"#utility.yul\":21857:21860   */\n      dup3\n        /* \"#utility.yul\":21850:21887   */\n      mstore\n        /* \"#utility.yul\":21775:21893   */\n      pop\n      pop\n      jump\t// out\n        /* \"#utility.yul\":21899:22219   */\n    tag_78:\n        /* \"#utility.yul\":22014:22018   */\n      0x00\n        /* \"#utility.yul\":22052:22054   */\n      0x40\n        /* \"#utility.yul\":22041:22050   */\n      dup3\n        /* \"#utility.yul\":22037:22055   */\n      add\n        /* \"#utility.yul\":22029:22055   */\n      swap1\n      pop\n        /* \"#utility.yul\":22065:22136   */\n      tag_497\n        /* \"#utility.yul\":22133:22134   */\n      0x00\n        /* \"#utility.yul\":22122:22131   */\n      dup4\n        /* \"#utility.yul\":22118:22135   */\n      add\n        /* \"#utility.yul\":22109:22115   */\n      dup6\n        /* \"#utility.yul\":22065:22136   */\n      tag_251\n      jump\t// in\n    tag_497:\n        /* \"#utility.yul\":22146:22212   */\n      tag_498\n        /* \"#utility.yul\":22208:22210   */\n      0x20\n        /* \"#utility.yul\":22197:22206   */\n      dup4\n        /* \"#utility.yul\":22193:22211   */\n      add\n        /* \"#utility.yul\":22184:22190   */\n      dup5\n        /* \"#utility.yul\":22146:22212   */\n      tag_206\n      jump\t// in\n    tag_498:\n        /* \"#utility.yul\":21899:22219   */\n      swap4\n      swap3\n      pop\n      pop\n      pop\n      jump\t// out\n        /* \"#utility.yul\":22225:22390   */\n    tag_252:\n        /* \"#utility.yul\":22365:22382   */\n      0x596f752063616e27742020766f74650000000000000000000000000000000000\n        /* \"#utility.yul\":22361:22362   */\n      0x00\n        /* \"#utility.yul\":22353:22359   */\n      dup3\n        /* \"#utility.yul\":22349:22363   */\n      add\n        /* \"#utility.yul\":22342:22383   */\n      mstore\n        /* \"#utility.yul\":22225:22390   */\n      pop\n      jump\t// out\n        /* \"#utility.yul\":22396:22762   */\n    tag_253:\n        /* \"#utility.yul\":22538:22541   */\n      0x00\n        /* \"#utility.yul\":22559:22626   */\n      tag_501\n        /* \"#utility.yul\":22623:22625   */\n      0x0f\n        /* \"#utility.yul\":22618:22621   */\n      dup4\n        /* \"#utility.yul\":22559:22626   */\n      tag_221\n      jump\t// in\n    tag_501:\n        /* \"#utility.yul\":22552:22626   */\n      swap2\n      pop\n        /* \"#utility.yul\":22635:22728   */\n      tag_502\n        /* \"#utility.yul\":22724:22727   */\n      dup3\n        /* \"#utility.yul\":22635:22728   */\n      tag_252\n      jump\t// in\n    tag_502:\n        /* \"#utility.yul\":22753:22755   */\n      0x20\n        /* \"#utility.yul\":22748:22751   */\n      dup3\n        /* \"#utility.yul\":22744:22756   */\n      add\n        /* \"#utility.yul\":22737:22756   */\n      swap1\n      pop\n        /* \"#utility.yul\":22396:22762   */\n      swap2\n      swap1\n      pop\n      jump\t// out\n        /* \"#utility.yul\":22768:23187   */\n    tag_82:\n        /* \"#utility.yul\":22934:22938   */\n      0x00\n        /* \"#utility.yul\":22972:22974   */\n      0x20\n        /* \"#utility.yul\":22961:22970   */\n      dup3\n        /* \"#utility.yul\":22957:22975   */\n      add\n        /* \"#utility.yul\":22949:22975   */\n      swap1\n      pop\n        /* \"#utility.yul\":23021:23030   */\n      dup2\n        /* \"#utility.yul\":23015:23019   */\n      dup2\n        /* \"#utility.yul\":23011:23031   */\n      sub\n        /* \"#utility.yul\":23007:23008   */\n      0x00\n        /* \"#utility.yul\":22996:23005   */\n      dup4\n        /* \"#utility.yul\":22992:23009   */\n      add\n        /* \"#utility.yul\":22985:23032   */\n      mstore\n        /* \"#utility.yul\":23049:23180   */\n      tag_504\n        /* \"#utility.yul\":23175:23179   */\n      dup2\n        /* \"#utility.yul\":23049:23180   */\n      tag_253\n      jump\t// in\n    tag_504:\n        /* \"#utility.yul\":23041:23180   */\n      swap1\n      pop\n        /* \"#utility.yul\":22768:23187   */\n      swap2\n      swap1\n      pop\n      jump\t// out\n        /* \"#utility.yul\":23193:23420   */\n    tag_254:\n        /* \"#utility.yul\":23333:23367   */\n      0x5468657265206973206e6f74206120726571756972656d656e742066726f6d20\n        /* \"#utility.yul\":23329:23330   */\n      0x00\n        /* \"#utility.yul\":23321:23327   */\n      dup3\n        /* \"#utility.yul\":23317:23331   */\n      add\n        /* \"#utility.yul\":23310:23368   */\n      mstore\n        /* \"#utility.yul\":23402:23412   */\n      0x746869732075726c000000000000000000000000000000000000000000000000\n        /* \"#utility.yul\":23397:23399   */\n      0x20\n        /* \"#utility.yul\":23389:23395   */\n      dup3\n        /* \"#utility.yul\":23385:23400   */\n      add\n        /* \"#utility.yul\":23378:23413   */\n      mstore\n        /* \"#utility.yul\":23193:23420   */\n      pop\n      jump\t// out\n        /* \"#utility.yul\":23426:23792   */\n    tag_255:\n        /* \"#utility.yul\":23568:23571   */\n      0x00\n        /* \"#utility.yul\":23589:23656   */\n      tag_507\n        /* \"#utility.yul\":23653:23655   */\n      0x28\n        /* \"#utility.yul\":23648:23651   */\n      dup4\n        /* \"#utility.yul\":23589:23656   */\n      tag_221\n      jump\t// in\n    tag_507:\n        /* \"#utility.yul\":23582:23656   */\n      swap2\n      pop\n        /* \"#utility.yul\":23665:23758   */\n      tag_508\n        /* \"#utility.yul\":23754:23757   */\n      dup3\n        /* \"#utility.yul\":23665:23758   */\n      tag_254\n      jump\t// in\n    tag_508:\n        /* \"#utility.yul\":23783:23785   */\n      0x40\n        /* \"#utility.yul\":23778:23781   */\n      dup3\n        /* \"#utility.yul\":23774:23786   */\n      add\n        /* \"#utility.yul\":23767:23786   */\n      swap1\n      pop\n        /* \"#utility.yul\":23426:23792   */\n      swap2\n      swap1\n      pop\n      jump\t// out\n        /* \"#utility.yul\":23798:24217   */\n    tag_85:\n        /* \"#utility.yul\":23964:23968   */\n      0x00\n        /* \"#utility.yul\":24002:24004   */\n      0x20\n        /* \"#utility.yul\":23991:24000   */\n      dup3\n        /* \"#utility.yul\":23987:24005   */\n      add\n        /* \"#utility.yul\":23979:24005   */\n      swap1\n      pop\n        /* \"#utility.yul\":24051:24060   */\n      dup2\n        /* \"#utility.yul\":24045:24049   */\n      dup2\n        /* \"#utility.yul\":24041:24061   */\n      sub\n        /* \"#utility.yul\":24037:24038   */\n      0x00\n        /* \"#utility.yul\":24026:24035   */\n      dup4\n        /* \"#utility.yul\":24022:24039   */\n      add\n        /* \"#utility.yul\":24015:24062   */\n      mstore\n        /* \"#utility.yul\":24079:24210   */\n      tag_510\n        /* \"#utility.yul\":24205:24209   */\n      dup2\n        /* \"#utility.yul\":24079:24210   */\n      tag_255\n      jump\t// in\n    tag_510:\n        /* \"#utility.yul\":24071:24210   */\n      swap1\n      pop\n        /* \"#utility.yul\":23798:24217   */\n      swap2\n      swap1\n      pop\n      jump\t// out\n        /* \"#utility.yul\":24223:24536   */\n    tag_89:\n        /* \"#utility.yul\":24336:24340   */\n      0x00\n        /* \"#utility.yul\":24374:24376   */\n      0x20\n        /* \"#utility.yul\":24363:24372   */\n      dup3\n        /* \"#utility.yul\":24359:24377   */\n      add\n        /* \"#utility.yul\":24351:24377   */\n      swap1\n      pop\n        /* \"#utility.yul\":24423:24432   */\n      dup2\n        /* \"#utility.yul\":24417:24421   */\n      dup2\n        /* \"#utility.yul\":24413:24433   */\n      sub\n        /* \"#utility.yul\":24409:24410   */\n      0x00\n        /* \"#utility.yul\":24398:24407   */\n      dup4\n        /* \"#utility.yul\":24394:24411   */\n      add\n        /* \"#utility.yul\":24387:24434   */\n      mstore\n        /* \"#utility.yul\":24451:24529   */\n      tag_512\n        /* \"#utility.yul\":24524:24528   */\n      dup2\n        /* \"#utility.yul\":24515:24521   */\n      dup5\n        /* \"#utility.yul\":24451:24529   */\n      tag_222\n      jump\t// in\n    tag_512:\n        /* \"#utility.yul\":24443:24529   */\n      swap1\n      pop\n        /* \"#utility.yul\":24223:24536   */\n      swap3\n      swap2\n      pop\n      pop\n      jump\t// out\n        /* \"#utility.yul\":24542:24685   */\n    tag_256:\n        /* \"#utility.yul\":24599:24604   */\n      0x00\n        /* \"#utility.yul\":24630:24636   */\n      dup2\n        /* \"#utility.yul\":24624:24637   */\n      mload\n        /* \"#utility.yul\":24615:24637   */\n      swap1\n      pop\n        /* \"#utility.yul\":24646:24679   */\n      tag_514\n        /* \"#utility.yul\":24673:24678   */\n      dup2\n        /* \"#utility.yul\":24646:24679   */\n      tag_191\n      jump\t// in\n    tag_514:\n        /* \"#utility.yul\":24542:24685   */\n      swap3\n      swap2\n      pop\n      pop\n      jump\t// out\n        /* \"#utility.yul\":24691:25042   */\n    tag_93:\n        /* \"#utility.yul\":24761:24767   */\n      0x00\n        /* \"#utility.yul\":24810:24812   */\n      0x20\n        /* \"#utility.yul\":24798:24807   */\n      dup3\n        /* \"#utility.yul\":24789:24796   */\n      dup5\n        /* \"#utility.yul\":24785:24808   */\n      sub\n        /* \"#utility.yul\":24781:24813   */\n      slt\n        /* \"#utility.yul\":24778:24897   */\n      iszero\n      tag_516\n      jumpi\n        /* \"#utility.yul\":24816:24895   */\n      tag_517\n      tag_187\n      jump\t// in\n    tag_517:\n        /* \"#utility.yul\":24778:24897   */\n    tag_516:\n        /* \"#utility.yul\":24936:24937   */\n      0x00\n        /* \"#utility.yul\":24961:25025   */\n      tag_518\n        /* \"#utility.yul\":25017:25024   */\n      dup5\n        /* \"#utility.yul\":25008:25014   */\n      dup3\n        /* \"#utility.yul\":24997:25006   */\n      dup6\n        /* \"#utility.yul\":24993:25015   */\n      add\n        /* \"#utility.yul\":24961:25025   */\n      tag_256\n      jump\t// in\n    tag_518:\n        /* \"#utility.yul\":24951:25025   */\n      swap2\n      pop\n        /* \"#utility.yul\":24907:25035   */\n      pop\n        /* \"#utility.yul\":24691:25042   */\n      swap3\n      swap2\n      pop\n      pop\n      jump\t// out\n        /* \"#utility.yul\":25048:25228   */\n    tag_102:\n        /* \"#utility.yul\":25096:25173   */\n      0x4e487b7100000000000000000000000000000000000000000000000000000000\n        /* \"#utility.yul\":25093:25094   */\n      0x00\n        /* \"#utility.yul\":25086:25174   */\n      mstore\n        /* \"#utility.yul\":25193:25197   */\n      0x32\n        /* \"#utility.yul\":25190:25191   */\n      0x04\n        /* \"#utility.yul\":25183:25198   */\n      mstore\n        /* \"#utility.yul\":25217:25221   */\n      0x24\n        /* \"#utility.yul\":25214:25215   */\n      0x00\n        /* \"#utility.yul\":25207:25222   */\n      revert\n        /* \"#utility.yul\":25234:25414   */\n    tag_257:\n        /* \"#utility.yul\":25282:25359   */\n      0x4e487b7100000000000000000000000000000000000000000000000000000000\n        /* \"#utility.yul\":25279:25280   */\n      0x00\n        /* \"#utility.yul\":25272:25360   */\n      mstore\n        /* \"#utility.yul\":25379:25383   */\n      0x11\n        /* \"#utility.yul\":25376:25377   */\n      0x04\n        /* \"#utility.yul\":25369:25384   */\n      mstore\n        /* \"#utility.yul\":25403:25407   */\n      0x24\n        /* \"#utility.yul\":25400:25401   */\n      0x00\n        /* \"#utility.yul\":25393:25408   */\n      revert\n        /* \"#utility.yul\":25420:25611   */\n    tag_105:\n        /* \"#utility.yul\":25460:25463   */\n      0x00\n        /* \"#utility.yul\":25479:25499   */\n      tag_522\n        /* \"#utility.yul\":25497:25498   */\n      dup3\n        /* \"#utility.yul\":25479:25499   */\n      tag_219\n      jump\t// in\n    tag_522:\n        /* \"#utility.yul\":25474:25499   */\n      swap2\n      pop\n        /* \"#utility.yul\":25513:25533   */\n      tag_523\n        /* \"#utility.yul\":25531:25532   */\n      dup4\n        /* \"#utility.yul\":25513:25533   */\n      tag_219\n      jump\t// in\n    tag_523:\n        /* \"#utility.yul\":25508:25533   */\n      swap3\n      pop\n        /* \"#utility.yul\":25556:25557   */\n      dup3\n        /* \"#utility.yul\":25553:25554   */\n      dup3\n        /* \"#utility.yul\":25549:25558   */\n      add\n        /* \"#utility.yul\":25542:25558   */\n      swap1\n      pop\n        /* \"#utility.yul\":25577:25580   */\n      dup1\n        /* \"#utility.yul\":25574:25575   */\n      dup3\n        /* \"#utility.yul\":25571:25581   */\n      gt\n        /* \"#utility.yul\":25568:25604   */\n      iszero\n      tag_524\n      jumpi\n        /* \"#utility.yul\":25584:25602   */\n      tag_525\n      tag_257\n      jump\t// in\n    tag_525:\n        /* \"#utility.yul\":25568:25604   */\n    tag_524:\n        /* \"#utility.yul\":25420:25611   */\n      swap3\n      swap2\n      pop\n      pop\n      jump\t// out\n        /* \"#utility.yul\":25617:25850   */\n    tag_107:\n        /* \"#utility.yul\":25656:25659   */\n      0x00\n        /* \"#utility.yul\":25679:25703   */\n      tag_527\n        /* \"#utility.yul\":25697:25702   */\n      dup3\n        /* \"#utility.yul\":25679:25703   */\n      tag_219\n      jump\t// in\n    tag_527:\n        /* \"#utility.yul\":25670:25703   */\n      swap2\n      pop\n        /* \"#utility.yul\":25725:25791   */\n      0xffffffffffffffffffffffffffffffffffffffffffffffffffffffffffffffff\n        /* \"#utility.yul\":25718:25723   */\n      dup3\n        /* \"#utility.yul\":25715:25792   */\n      sub\n        /* \"#utility.yul\":25712:25815   */\n      tag_528\n      jumpi\n        /* \"#utility.yul\":25795:25813   */\n      tag_529\n      tag_257\n      jump\t// in\n    tag_529:\n        /* \"#utility.yul\":25712:25815   */\n    tag_528:\n        /* \"#utility.yul\":25842:25843   */\n      0x01\n        /* \"#utility.yul\":25835:25840   */\n      dup3\n        /* \"#utility.yul\":25831:25844   */\n      add\n        /* \"#utility.yul\":25824:25844   */\n      swap1\n      pop\n        /* \"#utility.yul\":25617:25850   */\n      swap2\n      swap1\n      pop\n      jump\t// out\n        /* \"#utility.yul\":25856:26036   */\n    tag_258:\n        /* \"#utility.yul\":25904:25981   */\n      0x4e487b7100000000000000000000000000000000000000000000000000000000\n        /* \"#utility.yul\":25901:25902   */\n      0x00\n        /* \"#utility.yul\":25894:25982   */\n      mstore\n        /* \"#utility.yul\":26001:26005   */\n      0x22\n        /* \"#utility.yul\":25998:25999   */\n      0x04\n        /* \"#utility.yul\":25991:26006   */\n      mstore\n        /* \"#utility.yul\":26025:26029   */\n      0x24\n        /* \"#utility.yul\":26022:26023   */\n      0x00\n        /* \"#utility.yul\":26015:26030   */\n      revert\n        /* \"#utility.yul\":26042:26362   */\n    tag_114:\n        /* \"#utility.yul\":26086:26092   */\n      0x00\n        /* \"#utility.yul\":26123:26124   */\n      0x02\n        /* \"#utility.yul\":26117:26121   */\n      dup3\n        /* \"#utility.yul\":26113:26125   */\n      div\n        /* \"#utility.yul\":26103:26125   */\n      swap1\n      pop\n        /* \"#utility.yul\":26170:26171   */\n      0x01\n        /* \"#utility.yul\":26164:26168   */\n      dup3\n        /* \"#utility.yul\":26160:26172   */\n      and\n        /* \"#utility.yul\":26191:26209   */\n      dup1\n        /* \"#utility.yul\":26181:26262   */\n      tag_532\n      jumpi\n        /* \"#utility.yul\":26247:26251   */\n      0x7f\n        /* \"#utility.yul\":26239:26245   */\n      dup3\n        /* \"#utility.yul\":26235:26252   */\n      and\n        /* \"#utility.yul\":26225:26252   */\n      swap2\n      pop\n        /* \"#utility.yul\":26181:26262   */\n    tag_532:\n        /* \"#utility.yul\":26309:26311   */\n      0x20\n        /* \"#utility.yul\":26301:26307   */\n      dup3\n        /* \"#utility.yul\":26298:26312   */\n      lt\n        /* \"#utility.yul\":26278:26296   */\n      dup2\n        /* \"#utility.yul\":26275:26313   */\n      sub\n        /* \"#utility.yul\":26272:26356   */\n      tag_533\n      jumpi\n        /* \"#utility.yul\":26328:26346   */\n      tag_534\n      tag_258\n      jump\t// in\n    tag_534:\n        /* \"#utility.yul\":26272:26356   */\n    tag_533:\n        /* \"#utility.yul\":26093:26362   */\n      pop\n        /* \"#utility.yul\":26042:26362   */\n      swap2\n      swap1\n      pop\n      jump\t// out\n        /* \"#utility.yul\":26368:26590   */\n    tag_154:\n        /* \"#utility.yul\":26461:26465   */\n      0x00\n        /* \"#utility.yul\":26499:26501   */\n      0x20\n        /* \"#utility.yul\":26488:26497   */\n      dup3\n        /* \"#utility.yul\":26484:26502   */\n      add\n        /* \"#utility.yul\":26476:26502   */\n      swap1\n      pop\n        /* \"#utility.yul\":26512:26583   */\n      tag_536\n        /* \"#utility.yul\":26580:26581   */\n      0x00\n        /* \"#utility.yul\":26569:26578   */\n      dup4\n        /* \"#utility.yul\":26565:26582   */\n      add\n        /* \"#utility.yul\":26556:26562   */\n      dup5\n        /* \"#utility.yul\":26512:26583   */\n      tag_251\n      jump\t// in\n    tag_536:\n        /* \"#utility.yul\":26368:26590   */\n      swap3\n      swap2\n      pop\n      pop\n      jump\t// out\n        /* \"#utility.yul\":26596:26739   */\n    tag_259:\n        /* \"#utility.yul\":26653:26658   */\n      0x00\n        /* \"#utility.yul\":26684:26690   */\n      dup2\n        /* \"#utility.yul\":26678:26691   */\n      mload\n        /* \"#utility.yul\":26669:26691   */\n      swap1\n      pop\n        /* \"#utility.yul\":26700:26733   */\n      tag_538\n        /* \"#utility.yul\":26727:26732   */\n      dup2\n        /* \"#utility.yul\":26700:26733   */\n      tag_249\n      jump\t// in\n    tag_538:\n        /* \"#utility.yul\":26596:26739   */\n      swap3\n      swap2\n      pop\n      pop\n      jump\t// out\n        /* \"#utility.yul\":26745:27096   */\n    tag_158:\n        /* \"#utility.yul\":26815:26821   */\n      0x00\n        /* \"#utility.yul\":26864:26866   */\n      0x20\n        /* \"#utility.yul\":26852:26861   */\n      dup3\n        /* \"#utility.yul\":26843:26850   */\n      dup5\n        /* \"#utility.yul\":26839:26862   */\n      sub\n        /* \"#utility.yul\":26835:26867   */\n      slt\n        /* \"#utility.yul\":26832:26951   */\n      iszero\n      tag_540\n      jumpi\n        /* \"#utility.yul\":26870:26949   */\n      tag_541\n      tag_187\n      jump\t// in\n    tag_541:\n        /* \"#utility.yul\":26832:26951   */\n    tag_540:\n        /* \"#utility.yul\":26990:26991   */\n      0x00\n        /* \"#utility.yul\":27015:27079   */\n      tag_542\n        /* \"#utility.yul\":27071:27078   */\n      dup5\n        /* \"#utility.yul\":27062:27068   */\n      dup3\n        /* \"#utility.yul\":27051:27060   */\n      dup6\n        /* \"#utility.yul\":27047:27069   */\n      add\n        /* \"#utility.yul\":27015:27079   */\n      tag_259\n      jump\t// in\n    tag_542:\n        /* \"#utility.yul\":27005:27079   */\n      swap2\n      pop\n        /* \"#utility.yul\":26961:27089   */\n      pop\n        /* \"#utility.yul\":26745:27096   */\n      swap3\n      swap2\n      pop\n      pop\n      jump\t// out\n        /* \"#utility.yul\":27102:27331   */\n    tag_260:\n        /* \"#utility.yul\":27242:27276   */\n      0x54686973206164647265737320646f6573206e6f742068617665206120576f72\n        /* \"#utility.yul\":27238:27239   */\n      0x00\n        /* \"#utility.yul\":27230:27236   */\n      dup3\n        /* \"#utility.yul\":27226:27240   */\n      add\n        /* \"#utility.yul\":27219:27277   */\n      mstore\n        /* \"#utility.yul\":27311:27323   */\n      0x6c6446616b65436f696e00000000000000000000000000000000000000000000\n        /* \"#utility.yul\":27306:27308   */\n      0x20\n        /* \"#utility.yul\":27298:27304   */\n      dup3\n        /* \"#utility.yul\":27294:27309   */\n      add\n        /* \"#utility.yul\":27287:27324   */\n      mstore\n        /* \"#utility.yul\":27102:27331   */\n      pop\n      jump\t// out\n        /* \"#utility.yul\":27337:27703   */\n    tag_261:\n        /* \"#utility.yul\":27479:27482   */\n      0x00\n        /* \"#utility.yul\":27500:27567   */\n      tag_545\n        /* \"#utility.yul\":27564:27566   */\n      0x2a\n        /* \"#utility.yul\":27559:27562   */\n      dup4\n        /* \"#utility.yul\":27500:27567   */\n      tag_221\n      jump\t// in\n    tag_545:\n        /* \"#utility.yul\":27493:27567   */\n      swap2\n      pop\n        /* \"#utility.yul\":27576:27669   */\n      tag_546\n        /* \"#utility.yul\":27665:27668   */\n      dup3\n        /* \"#utility.yul\":27576:27669   */\n      tag_260\n      jump\t// in\n    tag_546:\n        /* \"#utility.yul\":27694:27696   */\n      0x40\n        /* \"#utility.yul\":27689:27692   */\n      dup3\n        /* \"#utility.yul\":27685:27697   */\n      add\n        /* \"#utility.yul\":27678:27697   */\n      swap1\n      pop\n        /* \"#utility.yul\":27337:27703   */\n      swap2\n      swap1\n      pop\n      jump\t// out\n        /* \"#utility.yul\":27709:28128   */\n    tag_161:\n        /* \"#utility.yul\":27875:27879   */\n      0x00\n        /* \"#utility.yul\":27913:27915   */\n      0x20\n        /* \"#utility.yul\":27902:27911   */\n      dup3\n        /* \"#utility.yul\":27898:27916   */\n      add\n        /* \"#utility.yul\":27890:27916   */\n      swap1\n      pop\n        /* \"#utility.yul\":27962:27971   */\n      dup2\n        /* \"#utility.yul\":27956:27960   */\n      dup2\n        /* \"#utility.yul\":27952:27972   */\n      sub\n        /* \"#utility.yul\":27948:27949   */\n      0x00\n        /* \"#utility.yul\":27937:27946   */\n      dup4\n        /* \"#utility.yul\":27933:27950   */\n      add\n        /* \"#utility.yul\":27926:27973   */\n      mstore\n        /* \"#utility.yul\":27990:28121   */\n      tag_548\n        /* \"#utility.yul\":28116:28120   */\n      dup2\n        /* \"#utility.yul\":27990:28121   */\n      tag_261\n      jump\t// in\n    tag_548:\n        /* \"#utility.yul\":27982:28121   */\n      swap1\n      pop\n        /* \"#utility.yul\":27709:28128   */\n      swap2\n      swap1\n      pop\n      jump\t// out\n        /* \"#utility.yul\":28134:28275   */\n    tag_262:\n        /* \"#utility.yul\":28183:28187   */\n      0x00\n        /* \"#utility.yul\":28206:28209   */\n      dup2\n        /* \"#utility.yul\":28198:28209   */\n      swap1\n      pop\n        /* \"#utility.yul\":28229:28232   */\n      dup2\n        /* \"#utility.yul\":28226:28227   */\n      0x00\n        /* \"#utility.yul\":28219:28233   */\n      mstore\n        /* \"#utility.yul\":28263:28267   */\n      0x20\n        /* \"#utility.yul\":28260:28261   */\n      0x00\n        /* \"#utility.yul\":28250:28268   */\n      keccak256\n        /* \"#utility.yul\":28242:28268   */\n      swap1\n      pop\n        /* \"#utility.yul\":28134:28275   */\n      swap2\n      swap1\n      pop\n      jump\t// out\n        /* \"#utility.yul\":28281:28374   */\n    tag_263:\n        /* \"#utility.yul\":28318:28324   */\n      0x00\n        /* \"#utility.yul\":28365:28367   */\n      0x20\n        /* \"#utility.yul\":28360:28362   */\n      0x1f\n        /* \"#utility.yul\":28353:28358   */\n      dup4\n        /* \"#utility.yul\":28349:28363   */\n      add\n        /* \"#utility.yul\":28345:28368   */\n      div\n        /* \"#utility.yul\":28335:28368   */\n      swap1\n      pop\n        /* \"#utility.yul\":28281:28374   */\n      swap2\n      swap1\n      pop\n      jump\t// out\n        /* \"#utility.yul\":28380:28487   */\n    tag_264:\n        /* \"#utility.yul\":28424:28432   */\n      0x00\n        /* \"#utility.yul\":28474:28479   */\n      dup3\n        /* \"#utility.yul\":28468:28472   */\n      dup3\n        /* \"#utility.yul\":28464:28480   */\n      shl\n        /* \"#utility.yul\":28443:28480   */\n      swap1\n      pop\n        /* \"#utility.yul\":28380:28487   */\n      swap3\n      swap2\n      pop\n      pop\n      jump\t// out\n        /* \"#utility.yul\":28493:28886   */\n    tag_265:\n        /* \"#utility.yul\":28562:28568   */\n      0x00\n        /* \"#utility.yul\":28612:28613   */\n      0x08\n        /* \"#utility.yul\":28600:28610   */\n      dup4\n        /* \"#utility.yul\":28596:28614   */\n      mul\n        /* \"#utility.yul\":28635:28732   */\n      tag_553\n        /* \"#utility.yul\":28665:28731   */\n      0xffffffffffffffffffffffffffffffffffffffffffffffffffffffffffffffff\n        /* \"#utility.yul\":28654:28663   */\n      dup3\n        /* \"#utility.yul\":28635:28732   */\n      tag_264\n      jump\t// in\n    tag_553:\n        /* \"#utility.yul\":28753:28792   */\n      tag_554\n        /* \"#utility.yul\":28783:28791   */\n      dup7\n        /* \"#utility.yul\":28772:28781   */\n      dup4\n        /* \"#utility.yul\":28753:28792   */\n      tag_264\n      jump\t// in\n    tag_554:\n        /* \"#utility.yul\":28741:28792   */\n      swap6\n      pop\n        /* \"#utility.yul\":28825:28829   */\n      dup1\n        /* \"#utility.yul\":28821:28830   */\n      not\n        /* \"#utility.yul\":28814:28819   */\n      dup5\n        /* \"#utility.yul\":28810:28831   */\n      and\n        /* \"#utility.yul\":28801:28831   */\n      swap4\n      pop\n        /* \"#utility.yul\":28874:28878   */\n      dup1\n        /* \"#utility.yul\":28864:28872   */\n      dup7\n        /* \"#utility.yul\":28860:28879   */\n      and\n        /* \"#utility.yul\":28853:28858   */\n      dup5\n        /* \"#utility.yul\":28850:28880   */\n      or\n        /* \"#utility.yul\":28840:28880   */\n      swap3\n      pop\n        /* \"#utility.yul\":28569:28886   */\n      pop\n      pop\n        /* \"#utility.yul\":28493:28886   */\n      swap4\n      swap3\n      pop\n      pop\n      pop\n      jump\t// out\n        /* \"#utility.yul\":28892:29034   */\n    tag_266:\n        /* \"#utility.yul\":28942:28951   */\n      0x00\n        /* \"#utility.yul\":28975:29028   */\n      tag_556\n        /* \"#utility.yul\":28993:29027   */\n      tag_557\n        /* \"#utility.yul\":29002:29026   */\n      tag_558\n        /* \"#utility.yul\":29020:29025   */\n      dup5\n        /* \"#utility.yul\":29002:29026   */\n      tag_219\n      jump\t// in\n    tag_558:\n        /* \"#utility.yul\":28993:29027   */\n      tag_244\n      jump\t// in\n    tag_557:\n        /* \"#utility.yul\":28975:29028   */\n      tag_219\n      jump\t// in\n    tag_556:\n        /* \"#utility.yul\":28962:29028   */\n      swap1\n      pop\n        /* \"#utility.yul\":28892:29034   */\n      swap2\n      swap1\n      pop\n      jump\t// out\n        /* \"#utility.yul\":29040:29115   */\n    tag_267:\n        /* \"#utility.yul\":29083:29086   */\n      0x00\n        /* \"#utility.yul\":29104:29109   */\n      dup2\n        /* \"#utility.yul\":29097:29109   */\n      swap1\n      pop\n        /* \"#utility.yul\":29040:29115   */\n      swap2\n      swap1\n      pop\n      jump\t// out\n        /* \"#utility.yul\":29121:29390   */\n    tag_268:\n        /* \"#utility.yul\":29231:29270   */\n      tag_561\n        /* \"#utility.yul\":29262:29269   */\n      dup4\n        /* \"#utility.yul\":29231:29270   */\n      tag_266\n      jump\t// in\n    tag_561:\n        /* \"#utility.yul\":29292:29383   */\n      tag_562\n        /* \"#utility.yul\":29341:29382   */\n      tag_563\n        /* \"#utility.yul\":29365:29381   */\n      dup3\n        /* \"#utility.yul\":29341:29382   */\n      tag_267\n      jump\t// in\n    tag_563:\n        /* \"#utility.yul\":29333:29339   */\n      dup5\n        /* \"#utility.yul\":29326:29330   */\n      dup5\n        /* \"#utility.yul\":29320:29331   */\n      sload\n        /* \"#utility.yul\":29292:29383   */\n      tag_265\n      jump\t// in\n    tag_562:\n        /* \"#utility.yul\":29286:29290   */\n      dup3\n        /* \"#utility.yul\":29279:29384   */\n      sstore\n        /* \"#utility.yul\":29197:29390   */\n      pop\n        /* \"#utility.yul\":29121:29390   */\n      pop\n      pop\n      pop\n      jump\t// out\n        /* \"#utility.yul\":29396:29469   */\n    tag_269:\n        /* \"#utility.yul\":29441:29444   */\n      0x00\n        /* \"#utility.yul\":29396:29469   */\n      swap1\n      jump\t// out\n        /* \"#utility.yul\":29475:29664   */\n    tag_270:\n        /* \"#utility.yul\":29552:29584   */\n      tag_566\n      tag_269\n      jump\t// in\n    tag_566:\n        /* \"#utility.yul\":29593:29658   */\n      tag_567\n        /* \"#utility.yul\":29651:29657   */\n      dup2\n        /* \"#utility.yul\":29643:29649   */\n      dup5\n        /* \"#utility.yul\":29637:29641   */\n      dup5\n        /* \"#utility.yul\":29593:29658   */\n      tag_268\n      jump\t// in\n    tag_567:\n        /* \"#utility.yul\":29528:29664   */\n      pop\n        /* \"#utility.yul\":29475:29664   */\n      pop\n      pop\n      jump\t// out\n        /* \"#utility.yul\":29670:29856   */\n    tag_271:\n        /* \"#utility.yul\":29730:29850   */\n    tag_569:\n        /* \"#utility.yul\":29747:29750   */\n      dup2\n        /* \"#utility.yul\":29740:29745   */\n      dup2\n        /* \"#utility.yul\":29737:29751   */\n      lt\n        /* \"#utility.yul\":29730:29850   */\n      iszero\n      tag_571\n      jumpi\n        /* \"#utility.yul\":29801:29840   */\n      tag_572\n        /* \"#utility.yul\":29838:29839   */\n      0x00\n        /* \"#utility.yul\":29831:29836   */\n      dup3\n        /* \"#utility.yul\":29801:29840   */\n      tag_270\n      jump\t// in\n    tag_572:\n        /* \"#utility.yul\":29774:29775   */\n      0x01\n        /* \"#utility.yul\":29767:29772   */\n      dup2\n        /* \"#utility.yul\":29763:29776   */\n      add\n        /* \"#utility.yul\":29754:29776   */\n      swap1\n      pop\n        /* \"#utility.yul\":29730:29850   */\n      jump(tag_569)\n    tag_571:\n        /* \"#utility.yul\":29670:29856   */\n      pop\n      pop\n      jump\t// out\n        /* \"#utility.yul\":29862:30405   */\n    tag_272:\n        /* \"#utility.yul\":29963:29965   */\n      0x1f\n        /* \"#utility.yul\":29958:29961   */\n      dup3\n        /* \"#utility.yul\":29955:29966   */\n      gt\n        /* \"#utility.yul\":29952:30398   */\n      iszero\n      tag_574\n      jumpi\n        /* \"#utility.yul\":29997:30035   */\n      tag_575\n        /* \"#utility.yul\":30029:30034   */\n      dup2\n        /* \"#utility.yul\":29997:30035   */\n      tag_262\n      jump\t// in\n    tag_575:\n        /* \"#utility.yul\":30081:30110   */\n      tag_576\n        /* \"#utility.yul\":30099:30109   */\n      dup5\n        /* \"#utility.yul\":30081:30110   */\n      tag_263\n      jump\t// in\n    tag_576:\n        /* \"#utility.yul\":30071:30079   */\n      dup2\n        /* \"#utility.yul\":30067:30111   */\n      add\n        /* \"#utility.yul\":30264:30266   */\n      0x20\n        /* \"#utility.yul\":30252:30262   */\n      dup6\n        /* \"#utility.yul\":30249:30267   */\n      lt\n        /* \"#utility.yul\":30246:30295   */\n      iszero\n      tag_577\n      jumpi\n        /* \"#utility.yul\":30285:30293   */\n      dup2\n        /* \"#utility.yul\":30270:30293   */\n      swap1\n      pop\n        /* \"#utility.yul\":30246:30295   */\n    tag_577:\n        /* \"#utility.yul\":30308:30388   */\n      tag_578\n        /* \"#utility.yul\":30364:30386   */\n      tag_579\n        /* \"#utility.yul\":30382:30385   */\n      dup6\n        /* \"#utility.yul\":30364:30386   */\n      tag_263\n      jump\t// in\n    tag_579:\n        /* \"#utility.yul\":30354:30362   */\n      dup4\n        /* \"#utility.yul\":30350:30387   */\n      add\n        /* \"#utility.yul\":30337:30348   */\n      dup3\n        /* \"#utility.yul\":30308:30388   */\n      tag_271\n      jump\t// in\n    tag_578:\n        /* \"#utility.yul\":29967:30398   */\n      pop\n      pop\n        /* \"#utility.yul\":29952:30398   */\n    tag_574:\n        /* \"#utility.yul\":29862:30405   */\n      pop\n      pop\n      pop\n      jump\t// out\n        /* \"#utility.yul\":30411:30528   */\n    tag_273:\n        /* \"#utility.yul\":30465:30473   */\n      0x00\n        /* \"#utility.yul\":30515:30520   */\n      dup3\n        /* \"#utility.yul\":30509:30513   */\n      dup3\n        /* \"#utility.yul\":30505:30521   */\n      shr\n        /* \"#utility.yul\":30484:30521   */\n      swap1\n      pop\n        /* \"#utility.yul\":30411:30528   */\n      swap3\n      swap2\n      pop\n      pop\n      jump\t// out\n        /* \"#utility.yul\":30534:30703   */\n    tag_274:\n        /* \"#utility.yul\":30578:30584   */\n      0x00\n        /* \"#utility.yul\":30611:30662   */\n      tag_582\n        /* \"#utility.yul\":30659:30660   */\n      0x00\n        /* \"#utility.yul\":30655:30661   */\n      not\n        /* \"#utility.yul\":30647:30652   */\n      dup5\n        /* \"#utility.yul\":30644:30645   */\n      0x08\n        /* \"#utility.yul\":30640:30653   */\n      mul\n        /* \"#utility.yul\":30611:30662   */\n      tag_273\n      jump\t// in\n    tag_582:\n        /* \"#utility.yul\":30607:30663   */\n      not\n        /* \"#utility.yul\":30692:30696   */\n      dup1\n        /* \"#utility.yul\":30686:30690   */\n      dup4\n        /* \"#utility.yul\":30682:30697   */\n      and\n        /* \"#utility.yul\":30672:30697   */\n      swap2\n      pop\n        /* \"#utility.yul\":30585:30703   */\n      pop\n        /* \"#utility.yul\":30534:30703   */\n      swap3\n      swap2\n      pop\n      pop\n      jump\t// out\n        /* \"#utility.yul\":30708:31003   */\n    tag_275:\n        /* \"#utility.yul\":30784:30788   */\n      0x00\n        /* \"#utility.yul\":30930:30959   */\n      tag_584\n        /* \"#utility.yul\":30955:30958   */\n      dup4\n        /* \"#utility.yul\":30949:30953   */\n      dup4\n        /* \"#utility.yul\":30930:30959   */\n      tag_274\n      jump\t// in\n    tag_584:\n        /* \"#utility.yul\":30922:30959   */\n      swap2\n      pop\n        /* \"#utility.yul\":30992:30995   */\n      dup3\n        /* \"#utility.yul\":30989:30990   */\n      0x02\n        /* \"#utility.yul\":30985:30996   */\n      mul\n        /* \"#utility.yul\":30979:30983   */\n      dup3\n        /* \"#utility.yul\":30976:30997   */\n      or\n        /* \"#utility.yul\":30968:30997   */\n      swap1\n      pop\n        /* \"#utility.yul\":30708:31003   */\n      swap3\n      swap2\n      pop\n      pop\n      jump\t// out\n        /* \"#utility.yul\":31008:32403   */\n    tag_163:\n        /* \"#utility.yul\":31125:31162   */\n      tag_586\n        /* \"#utility.yul\":31158:31161   */\n      dup3\n        /* \"#utility.yul\":31125:31162   */\n      tag_207\n      jump\t// in\n    tag_586:\n        /* \"#utility.yul\":31227:31245   */\n      0xffffffffffffffff\n        /* \"#utility.yul\":31219:31225   */\n      dup2\n        /* \"#utility.yul\":31216:31246   */\n      gt\n        /* \"#utility.yul\":31213:31269   */\n      iszero\n      tag_587\n      jumpi\n        /* \"#utility.yul\":31249:31267   */\n      tag_588\n      tag_199\n      jump\t// in\n    tag_588:\n        /* \"#utility.yul\":31213:31269   */\n    tag_587:\n        /* \"#utility.yul\":31293:31331   */\n      tag_589\n        /* \"#utility.yul\":31325:31329   */\n      dup3\n        /* \"#utility.yul\":31319:31330   */\n      sload\n        /* \"#utility.yul\":31293:31331   */\n      tag_114\n      jump\t// in\n    tag_589:\n        /* \"#utility.yul\":31378:31445   */\n      tag_590\n        /* \"#utility.yul\":31438:31444   */\n      dup3\n        /* \"#utility.yul\":31430:31436   */\n      dup3\n        /* \"#utility.yul\":31424:31428   */\n      dup6\n        /* \"#utility.yul\":31378:31445   */\n      tag_272\n      jump\t// in\n    tag_590:\n        /* \"#utility.yul\":31472:31473   */\n      0x00\n        /* \"#utility.yul\":31496:31500   */\n      0x20\n        /* \"#utility.yul\":31483:31500   */\n      swap1\n      pop\n        /* \"#utility.yul\":31528:31530   */\n      0x1f\n        /* \"#utility.yul\":31520:31526   */\n      dup4\n        /* \"#utility.yul\":31517:31531   */\n      gt\n        /* \"#utility.yul\":31545:31546   */\n      0x01\n        /* \"#utility.yul\":31540:32158   */\n      dup2\n      eq\n      tag_592\n      jumpi\n        /* \"#utility.yul\":32202:32203   */\n      0x00\n        /* \"#utility.yul\":32219:32225   */\n      dup5\n        /* \"#utility.yul\":32216:32293   */\n      iszero\n      tag_593\n      jumpi\n        /* \"#utility.yul\":32268:32277   */\n      dup3\n        /* \"#utility.yul\":32263:32266   */\n      dup8\n        /* \"#utility.yul\":32259:32278   */\n      add\n        /* \"#utility.yul\":32253:32279   */\n      mload\n        /* \"#utility.yul\":32244:32279   */\n      swap1\n      pop\n        /* \"#utility.yul\":32216:32293   */\n    tag_593:\n        /* \"#utility.yul\":32319:32386   */\n      tag_594\n        /* \"#utility.yul\":32379:32385   */\n      dup6\n        /* \"#utility.yul\":32372:32377   */\n      dup3\n        /* \"#utility.yul\":32319:32386   */\n      tag_275\n      jump\t// in\n    tag_594:\n        /* \"#utility.yul\":32313:32317   */\n      dup7\n        /* \"#utility.yul\":32306:32387   */\n      sstore\n        /* \"#utility.yul\":32175:32397   */\n      pop\n        /* \"#utility.yul\":31510:32397   */\n      jump(tag_591)\n        /* \"#utility.yul\":31540:32158   */\n    tag_592:\n        /* \"#utility.yul\":31592:31596   */\n      0x1f\n        /* \"#utility.yul\":31588:31597   */\n      not\n        /* \"#utility.yul\":31580:31586   */\n      dup5\n        /* \"#utility.yul\":31576:31598   */\n      and\n        /* \"#utility.yul\":31626:31663   */\n      tag_595\n        /* \"#utility.yul\":31658:31662   */\n      dup7\n        /* \"#utility.yul\":31626:31663   */\n      tag_262\n      jump\t// in\n    tag_595:\n        /* \"#utility.yul\":31685:31686   */\n      0x00\n        /* \"#utility.yul\":31699:31907   */\n    tag_596:\n        /* \"#utility.yul\":31713:31720   */\n      dup3\n        /* \"#utility.yul\":31710:31711   */\n      dup2\n        /* \"#utility.yul\":31707:31721   */\n      lt\n        /* \"#utility.yul\":31699:31907   */\n      iszero\n      tag_598\n      jumpi\n        /* \"#utility.yul\":31792:31801   */\n      dup5\n        /* \"#utility.yul\":31787:31790   */\n      dup10\n        /* \"#utility.yul\":31783:31802   */\n      add\n        /* \"#utility.yul\":31777:31803   */\n      mload\n        /* \"#utility.yul\":31769:31775   */\n      dup3\n        /* \"#utility.yul\":31762:31804   */\n      sstore\n        /* \"#utility.yul\":31843:31844   */\n      0x01\n        /* \"#utility.yul\":31835:31841   */\n      dup3\n        /* \"#utility.yul\":31831:31845   */\n      add\n        /* \"#utility.yul\":31821:31845   */\n      swap2\n      pop\n        /* \"#utility.yul\":31890:31892   */\n      0x20\n        /* \"#utility.yul\":31879:31888   */\n      dup6\n        /* \"#utility.yul\":31875:31893   */\n      add\n        /* \"#utility.yul\":31862:31893   */\n      swap5\n      pop\n        /* \"#utility.yul\":31736:31740   */\n      0x20\n        /* \"#utility.yul\":31733:31734   */\n      dup2\n        /* \"#utility.yul\":31729:31741   */\n      add\n        /* \"#utility.yul\":31724:31741   */\n      swap1\n      pop\n        /* \"#utility.yul\":31699:31907   */\n      jump(tag_596)\n    tag_598:\n        /* \"#utility.yul\":31935:31941   */\n      dup7\n        /* \"#utility.yul\":31926:31933   */\n      dup4\n        /* \"#utility.yul\":31923:31942   */\n      lt\n        /* \"#utility.yul\":31920:32099   */\n      iszero\n      tag_599\n      jumpi\n        /* \"#utility.yul\":31993:32002   */\n      dup5\n        /* \"#utility.yul\":31988:31991   */\n      dup10\n        /* \"#utility.yul\":31984:32003   */\n      add\n        /* \"#utility.yul\":31978:32004   */\n      mload\n        /* \"#utility.yul\":32036:32084   */\n      tag_600\n        /* \"#utility.yul\":32078:32082   */\n      0x1f\n        /* \"#utility.yul\":32070:32076   */\n      dup10\n        /* \"#utility.yul\":32066:32083   */\n      and\n        /* \"#utility.yul\":32055:32064   */\n      dup3\n        /* \"#utility.yul\":32036:32084   */\n      tag_274\n      jump\t// in\n    tag_600:\n        /* \"#utility.yul\":32028:32034   */\n      dup4\n        /* \"#utility.yul\":32021:32085   */\n      sstore\n        /* \"#utility.yul\":31943:32099   */\n      pop\n        /* \"#utility.yul\":31920:32099   */\n    tag_599:\n        /* \"#utility.yul\":32145:32146   */\n      0x01\n        /* \"#utility.yul\":32141:32142   */\n      0x02\n        /* \"#utility.yul\":32133:32139   */\n      dup9\n        /* \"#utility.yul\":32129:32143   */\n      mul\n        /* \"#utility.yul\":32125:32147   */\n      add\n        /* \"#utility.yul\":32119:32123   */\n      dup9\n        /* \"#utility.yul\":32112:32148   */\n      sstore\n        /* \"#utility.yul\":31547:32158   */\n      pop\n      pop\n      pop\n        /* \"#utility.yul\":31510:32397   */\n    tag_591:\n      pop\n        /* \"#utility.yul\":31100:32403   */\n      pop\n      pop\n      pop\n        /* \"#utility.yul\":31008:32403   */\n      pop\n      pop\n      jump\t// out\n\n    auxdata: 0xa2646970667358221220429dbbf8b3aa0ea0604d2472524d98747f8f25b97243976c7bd36416ca6265f664736f6c63430008110033\n}\n",
				"bytecode": {
					"linkReferences": {},
					"object": "60806040523480156200001157600080fd5b5060405162002a8438038062002a84833981810160405281019062000037919062000447565b60005b8451811015620000d45760008582815181106200005c576200005b620004f7565b5b6020026020010151905060016000808373ffffffffffffffffffffffffffffffffffffffff1673ffffffffffffffffffffffffffffffffffffffff16815260200190815260200160002060006101000a81548160ff021916908315150217905550508080620000cb9062000555565b9150506200003a565b508260048190555081600560006101000a81548173ffffffffffffffffffffffffffffffffffffffff021916908373ffffffffffffffffffffffffffffffffffffffff16021790555080600690816200012e9190620007e3565b5050505050620008ca565b6000604051905090565b600080fd5b600080fd5b600080fd5b6000601f19601f8301169050919050565b7f4e487b7100000000000000000000000000000000000000000000000000000000600052604160045260246000fd5b6200019d8262000152565b810181811067ffffffffffffffff82111715620001bf57620001be62000163565b5b80604052505050565b6000620001d462000139565b9050620001e2828262000192565b919050565b600067ffffffffffffffff82111562000205576200020462000163565b5b602082029050602081019050919050565b600080fd5b600073ffffffffffffffffffffffffffffffffffffffff82169050919050565b600062000248826200021b565b9050919050565b6200025a816200023b565b81146200026657600080fd5b50565b6000815190506200027a816200024f565b92915050565b6000620002976200029184620001e7565b620001c8565b90508083825260208201905060208402830185811115620002bd57620002bc62000216565b5b835b81811015620002ea5780620002d5888262000269565b845260208401935050602081019050620002bf565b5050509392505050565b600082601f8301126200030c576200030b6200014d565b5b81516200031e84826020860162000280565b91505092915050565b6000819050919050565b6200033c8162000327565b81146200034857600080fd5b50565b6000815190506200035c8162000331565b92915050565b600080fd5b600067ffffffffffffffff82111562000385576200038462000163565b5b620003908262000152565b9050602081019050919050565b60005b83811015620003bd578082015181840152602081019050620003a0565b60008484015250505050565b6000620003e0620003da8462000367565b620001c8565b905082815260208101848484011115620003ff57620003fe62000362565b5b6200040c8482856200039d565b509392505050565b600082601f8301126200042c576200042b6200014d565b5b81516200043e848260208601620003c9565b91505092915050565b6000806000806080858703121562000464576200046362000143565b5b600085015167ffffffffffffffff81111562000485576200048462000148565b5b6200049387828801620002f4565b9450506020620004a6878288016200034b565b9350506040620004b98782880162000269565b925050606085015167ffffffffffffffff811115620004dd57620004dc62000148565b5b620004eb8782880162000414565b91505092959194509250565b7f4e487b7100000000000000000000000000000000000000000000000000000000600052603260045260246000fd5b7f4e487b7100000000000000000000000000000000000000000000000000000000600052601160045260246000fd5b6000620005628262000327565b91507fffffffffffffffffffffffffffffffffffffffffffffffffffffffffffffffff820362000597576200059662000526565b5b600182019050919050565b600081519050919050565b7f4e487b7100000000000000000000000000000000000000000000000000000000600052602260045260246000fd5b60006002820490506001821680620005f557607f821691505b6020821081036200060b576200060a620005ad565b5b50919050565b60008190508160005260206000209050919050565b60006020601f8301049050919050565b600082821b905092915050565b600060088302620006757fffffffffffffffffffffffffffffffffffffffffffffffffffffffffffffffff8262000636565b62000681868362000636565b95508019841693508086168417925050509392505050565b6000819050919050565b6000620006c4620006be620006b88462000327565b62000699565b62000327565b9050919050565b6000819050919050565b620006e083620006a3565b620006f8620006ef82620006cb565b84845462000643565b825550505050565b600090565b6200070f62000700565b6200071c818484620006d5565b505050565b5b8181101562000744576200073860008262000705565b60018101905062000722565b5050565b601f82111562000793576200075d8162000611565b620007688462000626565b8101602085101562000778578190505b62000790620007878562000626565b83018262000721565b50505b505050565b600082821c905092915050565b6000620007b86000198460080262000798565b1980831691505092915050565b6000620007d38383620007a5565b9150826002028217905092915050565b620007ee82620005a2565b67ffffffffffffffff8111156200080a576200080962000163565b5b620008168254620005dc565b6200082382828562000748565b600060209050601f8311600181146200085b576000841562000846578287015190505b620008528582620007c5565b865550620008c2565b601f1984166200086b8662000611565b60005b8281101562000895578489015182556001820191506020850194506020810190506200086e565b86831015620008b55784890151620008b1601f891682620007a5565b8355505b6001600288020188555050505b505050505050565b6121aa80620008da6000396000f3fe608060405234801561001057600080fd5b50600436106100cf5760003560e01c806360b4a60c1161008c5780638d6ce61b116100665780638d6ce61b1461025f5780639698f8f31461027d578063cd58a07c14610299578063f30d558c146102b7576100cf565b806360b4a60c146101cf57806363ef0635146101ff578063855f84d21461022f576100cf565b8063128d8711146100d45780631b1ed5a9146100f05780631e0daf7b146101205780633742186a14610150578063568e69c8146101805780635e8e82f21461019e575b600080fd5b6100ee60048036038101906100e9919061119f565b6102e8565b005b61010a60048036038101906101059190611338565b610507565b6040516101179190611390565b60405180910390f35b61013a600480360381019061013591906113ab565b61072d565b604051610147919061157f565b60405180910390f35b61016a600480360381019061016591906113ab565b61090c565b6040516101779190611390565b60405180910390f35b61018861092c565b60405161019591906115ba565b60405180910390f35b6101b860048036038101906101b391906113ab565b610932565b6040516101c692919061161f565b60405180910390f35b6101e960048036038101906101e4919061164f565b6109eb565b6040516101f69190611390565b60405180910390f35b6102196004803603810190610214919061164f565b610b81565b6040516102269190611390565b60405180910390f35b610249600480360381019061024491906113ab565b610b89565b604051610256919061177c565b60405180910390f35b610267610c94565b604051610274919061184d565b60405180910390f35b610297600480360381019061029291906119fb565b610d22565b005b6102a1610f68565b6040516102ae9190611ab6565b60405180910390f35b6102d160048036038101906102cc9190611afd565b610f8e565b6040516102df929190611b4c565b60405180910390f35b6000808473ffffffffffffffffffffffffffffffffffffffff1673ffffffffffffffffffffffffffffffffffffffff16815260200190815260200160002060009054906101000a900460ff16610373576040517f08c379a000000000000000000000000000000000000000000000000000000000815260040161036a90611bc1565b60405180910390fd5b600160008373ffffffffffffffffffffffffffffffffffffffff1673ffffffffffffffffffffffffffffffffffffffff16815260200190815260200160002060010160009054906101000a900460ff16610402576040517f08c379a00000000000000000000000000000000000000000000000000000000081526004016103f990611c53565b60405180910390fd5b600060405180604001604052808573ffffffffffffffffffffffffffffffffffffffff1681526020018315158152509050600260008473ffffffffffffffffffffffffffffffffffffffff1673ffffffffffffffffffffffffffffffffffffffff168152602001908152602001600020819080600181540180825580915050600190039060005260206000200160009091909190915060008201518160000160006101000a81548173ffffffffffffffffffffffffffffffffffffffff021916908373ffffffffffffffffffffffffffffffffffffffff16021790555060208201518160000160146101000a81548160ff021916908315150217905550505050505050565b600080600560009054906101000a900473ffffffffffffffffffffffffffffffffffffffff1673ffffffffffffffffffffffffffffffffffffffff1663889f1d69846040518263ffffffff1660e01b81526004016105659190611c73565b6020604051808303816000875af1158015610584573d6000803e3d6000fd5b505050506040513d601f19601f820116820180604052508101906105a89190611caa565b90506000600260008373ffffffffffffffffffffffffffffffffffffffff1673ffffffffffffffffffffffffffffffffffffffff168152602001908152602001600020805480602002602001604051908101604052809291908181526020016000905b828210156106aa578382906000526020600020016040518060400160405290816000820160009054906101000a900473ffffffffffffffffffffffffffffffffffffffff1673ffffffffffffffffffffffffffffffffffffffff1673ffffffffffffffffffffffffffffffffffffffff1681526020016000820160149054906101000a900460ff1615151515815250508152602001906001019061060b565b5050505090506000805b825181101561070a5760008382815181106106d2576106d1611cd7565b5b602002602001015190508060200151156106f6576001836106f39190611d35565b92505b50808061070290611d69565b9150506106b4565b5060045481106107205760019350505050610728565b600093505050505b919050565b610735610ff8565b600160008373ffffffffffffffffffffffffffffffffffffffff1673ffffffffffffffffffffffffffffffffffffffff16815260200190815260200160002060405180606001604052908160008201805461078f90611de0565b80601f01602080910402602001604051908101604052809291908181526020018280546107bb90611de0565b80156108085780601f106107dd57610100808354040283529160200191610808565b820191906000526020600020905b8154815290600101906020018083116107eb57829003601f168201915b505050505081526020016001820160009054906101000a900460ff1615151515815260200160028201805480602002602001604051908101604052809291908181526020016000905b828210156108fd57838290600052602060002001805461087090611de0565b80601f016020809104026020016040519081016040528092919081815260200182805461089c90611de0565b80156108e95780601f106108be576101008083540402835291602001916108e9565b820191906000526020600020905b8154815290600101906020018083116108cc57829003601f168201915b505050505081526020019060010190610851565b50505050815250509050919050565b60006020528060005260406000206000915054906101000a900460ff1681565b60045481565b600160205280600052604060002060009150905080600001805461095590611de0565b80601f016020809104026020016040519081016040528092919081815260200182805461098190611de0565b80156109ce5780601f106109a3576101008083540402835291602001916109ce565b820191906000526020600020905b8154815290600101906020018083116109b157829003601f168201915b5050505050908060010160009054906101000a900460ff16905082565b600080600260008473ffffffffffffffffffffffffffffffffffffffff1673ffffffffffffffffffffffffffffffffffffffff168152602001908152602001600020805480602002602001604051908101604052809291908181526020016000905b82821015610aec578382906000526020600020016040518060400160405290816000820160009054906101000a900473ffffffffffffffffffffffffffffffffffffffff1673ffffffffffffffffffffffffffffffffffffffff1673ffffffffffffffffffffffffffffffffffffffff1681526020016000820160149054906101000a900460ff16151515158152505081526020019060010190610a4d565b50505050905060005b8151811015610b74576000828281518110610b1357610b12611cd7565b5b602002602001015190508573ffffffffffffffffffffffffffffffffffffffff16816000015173ffffffffffffffffffffffffffffffffffffffff1603610b605760019350505050610b7b565b508080610b6c90611d69565b915050610af5565b5060009150505b92915050565b600092915050565b6060600260008373ffffffffffffffffffffffffffffffffffffffff1673ffffffffffffffffffffffffffffffffffffffff168152602001908152602001600020805480602002602001604051908101604052809291908181526020016000905b82821015610c89578382906000526020600020016040518060400160405290816000820160009054906101000a900473ffffffffffffffffffffffffffffffffffffffff1673ffffffffffffffffffffffffffffffffffffffff1673ffffffffffffffffffffffffffffffffffffffff1681526020016000820160149054906101000a900460ff16151515158152505081526020019060010190610bea565b505050509050919050565b60606003805480602002602001604051908101604052809291908181526020018280548015610d1857602002820191906000526020600020905b8160009054906101000a900473ffffffffffffffffffffffffffffffffffffffff1673ffffffffffffffffffffffffffffffffffffffff1681526020019060010190808311610cce575b5050505050905090565b600160008373ffffffffffffffffffffffffffffffffffffffff1673ffffffffffffffffffffffffffffffffffffffff16815260200190815260200160002060010160009054906101000a900460ff1615610d7c57600080fd5b6001600560009054906101000a900473ffffffffffffffffffffffffffffffffffffffff1673ffffffffffffffffffffffffffffffffffffffff166370a08231846040518263ffffffff1660e01b8152600401610dd99190611e11565b602060405180830381865afa158015610df6573d6000803e3d6000fd5b505050506040513d601f19601f82011682018060405250810190610e1a9190611e41565b14610e5a576040517f08c379a0000000000000000000000000000000000000000000000000000000008152600401610e5190611ee0565b60405180910390fd5b600181602001901515908115158152505080600160008473ffffffffffffffffffffffffffffffffffffffff1673ffffffffffffffffffffffffffffffffffffffff1681526020019081526020016000206000820151816000019081610ec091906120a2565b5060208201518160010160006101000a81548160ff0219169083151502179055506040820151816002019080519060200190610efd92919061101b565b509050506003829080600181540180825580915050600190039060005260206000200160009091909190916101000a81548173ffffffffffffffffffffffffffffffffffffffff021916908373ffffffffffffffffffffffffffffffffffffffff1602179055505050565b600560009054906101000a900473ffffffffffffffffffffffffffffffffffffffff1681565b60026020528160005260406000208181548110610faa57600080fd5b90600052602060002001600091509150508060000160009054906101000a900473ffffffffffffffffffffffffffffffffffffffff16908060000160149054906101000a900460ff16905082565b604051806060016040528060608152602001600015158152602001606081525090565b828054828255906000526020600020908101928215611063579160200282015b8281111561106257825182908161105291906120a2565b509160200191906001019061103b565b5b5090506110709190611074565b5090565b5b80821115611094576000818161108b9190611098565b50600101611075565b5090565b5080546110a490611de0565b6000825580601f106110b657506110d5565b601f0160209004906000526020600020908101906110d491906110d8565b5b50565b5b808211156110f15760008160009055506001016110d9565b5090565b6000604051905090565b600080fd5b600080fd5b600073ffffffffffffffffffffffffffffffffffffffff82169050919050565b600061113482611109565b9050919050565b61114481611129565b811461114f57600080fd5b50565b6000813590506111618161113b565b92915050565b60008115159050919050565b61117c81611167565b811461118757600080fd5b50565b60008135905061119981611173565b92915050565b6000806000606084860312156111b8576111b76110ff565b5b60006111c686828701611152565b93505060206111d786828701611152565b92505060406111e88682870161118a565b9150509250925092565b600080fd5b600080fd5b6000601f19601f8301169050919050565b7f4e487b7100000000000000000000000000000000000000000000000000000000600052604160045260246000fd5b611245826111fc565b810181811067ffffffffffffffff821117156112645761126361120d565b5b80604052505050565b60006112776110f5565b9050611283828261123c565b919050565b600067ffffffffffffffff8211156112a3576112a261120d565b5b6112ac826111fc565b9050602081019050919050565b82818337600083830152505050565b60006112db6112d684611288565b61126d565b9050828152602081018484840111156112f7576112f66111f7565b5b6113028482856112b9565b509392505050565b600082601f83011261131f5761131e6111f2565b5b813561132f8482602086016112c8565b91505092915050565b60006020828403121561134e5761134d6110ff565b5b600082013567ffffffffffffffff81111561136c5761136b611104565b5b6113788482850161130a565b91505092915050565b61138a81611167565b82525050565b60006020820190506113a56000830184611381565b92915050565b6000602082840312156113c1576113c06110ff565b5b60006113cf84828501611152565b91505092915050565b600081519050919050565b600082825260208201905092915050565b60005b838110156114125780820151818401526020810190506113f7565b60008484015250505050565b6000611429826113d8565b61143381856113e3565b93506114438185602086016113f4565b61144c816111fc565b840191505092915050565b61146081611167565b82525050565b600081519050919050565b600082825260208201905092915050565b6000819050602082019050919050565b600061149e838361141e565b905092915050565b6000602082019050919050565b60006114be82611466565b6114c88185611471565b9350836020820285016114da85611482565b8060005b8581101561151657848403895281516114f78582611492565b9450611502836114a6565b925060208a019950506001810190506114de565b50829750879550505050505092915050565b60006060830160008301518482036000860152611545828261141e565b915050602083015161155a6020860182611457565b506040830151848203604086015261157282826114b3565b9150508091505092915050565b600060208201905081810360008301526115998184611528565b905092915050565b6000819050919050565b6115b4816115a1565b82525050565b60006020820190506115cf60008301846115ab565b92915050565b600082825260208201905092915050565b60006115f1826113d8565b6115fb81856115d5565b935061160b8185602086016113f4565b611614816111fc565b840191505092915050565b6000604082019050818103600083015261163981856115e6565b90506116486020830184611381565b9392505050565b60008060408385031215611666576116656110ff565b5b600061167485828601611152565b925050602061168585828601611152565b9150509250929050565b600081519050919050565b600082825260208201905092915050565b6000819050602082019050919050565b6116c481611129565b82525050565b6040820160008201516116e060008501826116bb565b5060208201516116f36020850182611457565b50505050565b600061170583836116ca565b60408301905092915050565b6000602082019050919050565b60006117298261168f565b611733818561169a565b935061173e836116ab565b8060005b8381101561176f57815161175688826116f9565b975061176183611711565b925050600181019050611742565b5085935050505092915050565b60006020820190508181036000830152611796818461171e565b905092915050565b600081519050919050565b600082825260208201905092915050565b6000819050602082019050919050565b60006117d683836116bb565b60208301905092915050565b6000602082019050919050565b60006117fa8261179e565b61180481856117a9565b935061180f836117ba565b8060005b8381101561184057815161182788826117ca565b9750611832836117e2565b925050600181019050611813565b5085935050505092915050565b6000602082019050818103600083015261186781846117ef565b905092915050565b600080fd5b600080fd5b600067ffffffffffffffff8211156118945761189361120d565b5b602082029050602081019050919050565b600080fd5b60006118bd6118b884611879565b61126d565b905080838252602082019050602084028301858111156118e0576118df6118a5565b5b835b8181101561192757803567ffffffffffffffff811115611905576119046111f2565b5b808601611912898261130a565b855260208501945050506020810190506118e2565b5050509392505050565b600082601f830112611946576119456111f2565b5b81356119568482602086016118aa565b91505092915050565b6000606082840312156119755761197461186f565b5b61197f606061126d565b9050600082013567ffffffffffffffff81111561199f5761199e611874565b5b6119ab8482850161130a565b60008301525060206119bf8482850161118a565b602083015250604082013567ffffffffffffffff8111156119e3576119e2611874565b5b6119ef84828501611931565b60408301525092915050565b60008060408385031215611a1257611a116110ff565b5b6000611a2085828601611152565b925050602083013567ffffffffffffffff811115611a4157611a40611104565b5b611a4d8582860161195f565b9150509250929050565b6000819050919050565b6000611a7c611a77611a7284611109565b611a57565b611109565b9050919050565b6000611a8e82611a61565b9050919050565b6000611aa082611a83565b9050919050565b611ab081611a95565b82525050565b6000602082019050611acb6000830184611aa7565b92915050565b611ada816115a1565b8114611ae557600080fd5b50565b600081359050611af781611ad1565b92915050565b60008060408385031215611b1457611b136110ff565b5b6000611b2285828601611152565b9250506020611b3385828601611ae8565b9150509250929050565b611b4681611129565b82525050565b6000604082019050611b616000830185611b3d565b611b6e6020830184611381565b9392505050565b7f596f752063616e27742020766f74650000000000000000000000000000000000600082015250565b6000611bab600f836115d5565b9150611bb682611b75565b602082019050919050565b60006020820190508181036000830152611bda81611b9e565b9050919050565b7f5468657265206973206e6f74206120726571756972656d656e742066726f6d2060008201527f746869732075726c000000000000000000000000000000000000000000000000602082015250565b6000611c3d6028836115d5565b9150611c4882611be1565b604082019050919050565b60006020820190508181036000830152611c6c81611c30565b9050919050565b60006020820190508181036000830152611c8d81846115e6565b905092915050565b600081519050611ca48161113b565b92915050565b600060208284031215611cc057611cbf6110ff565b5b6000611cce84828501611c95565b91505092915050565b7f4e487b7100000000000000000000000000000000000000000000000000000000600052603260045260246000fd5b7f4e487b7100000000000000000000000000000000000000000000000000000000600052601160045260246000fd5b6000611d40826115a1565b9150611d4b836115a1565b9250828201905080821115611d6357611d62611d06565b5b92915050565b6000611d74826115a1565b91507fffffffffffffffffffffffffffffffffffffffffffffffffffffffffffffffff8203611da657611da5611d06565b5b600182019050919050565b7f4e487b7100000000000000000000000000000000000000000000000000000000600052602260045260246000fd5b60006002820490506001821680611df857607f821691505b602082108103611e0b57611e0a611db1565b5b50919050565b6000602082019050611e266000830184611b3d565b92915050565b600081519050611e3b81611ad1565b92915050565b600060208284031215611e5757611e566110ff565b5b6000611e6584828501611e2c565b91505092915050565b7f54686973206164647265737320646f6573206e6f742068617665206120576f7260008201527f6c6446616b65436f696e00000000000000000000000000000000000000000000602082015250565b6000611eca602a836115d5565b9150611ed582611e6e565b604082019050919050565b60006020820190508181036000830152611ef981611ebd565b9050919050565b60008190508160005260206000209050919050565b60006020601f8301049050919050565b600082821b905092915050565b600060088302611f627fffffffffffffffffffffffffffffffffffffffffffffffffffffffffffffffff82611f25565b611f6c8683611f25565b95508019841693508086168417925050509392505050565b6000611f9f611f9a611f95846115a1565b611a57565b6115a1565b9050919050565b6000819050919050565b611fb983611f84565b611fcd611fc582611fa6565b848454611f32565b825550505050565b600090565b611fe2611fd5565b611fed818484611fb0565b505050565b5b8181101561201157612006600082611fda565b600181019050611ff3565b5050565b601f8211156120565761202781611f00565b61203084611f15565b8101602085101561203f578190505b61205361204b85611f15565b830182611ff2565b50505b505050565b600082821c905092915050565b60006120796000198460080261205b565b1980831691505092915050565b60006120928383612068565b9150826002028217905092915050565b6120ab826113d8565b67ffffffffffffffff8111156120c4576120c361120d565b5b6120ce8254611de0565b6120d9828285612015565b600060209050601f83116001811461210c57600084156120fa578287015190505b6121048582612086565b86555061216c565b601f19841661211a86611f00565b60005b828110156121425784890151825560018201915060208501945060208101905061211d565b8683101561215f578489015161215b601f891682612068565b8355505b6001600288020188555050505b50505050505056fea2646970667358221220429dbbf8b3aa0ea0604d2472524d98747f8f25b97243976c7bd36416ca6265f664736f6c63430008110033",
					"opcodes": "PUSH1 0x80 PUSH1 0x40 MSTORE CALLVALUE DUP1 ISZERO PUSH3 0x11 JUMPI PUSH1 0x0 DUP1 REVERT JUMPDEST POP PUSH1 0x40 MLOAD PUSH3 0x2A84 CODESIZE SUB DUP1 PUSH3 0x2A84 DUP4 CODECOPY DUP2 DUP2 ADD PUSH1 0x40 MSTORE DUP2 ADD SWAP1 PUSH3 0x37 SWAP2 SWAP1 PUSH3 0x447 JUMP JUMPDEST PUSH1 0x0 JUMPDEST DUP5 MLOAD DUP2 LT ISZERO PUSH3 0xD4 JUMPI PUSH1 0x0 DUP6 DUP3 DUP2 MLOAD DUP2 LT PUSH3 0x5C JUMPI PUSH3 0x5B PUSH3 0x4F7 JUMP JUMPDEST JUMPDEST PUSH1 0x20 MUL PUSH1 0x20 ADD ADD MLOAD SWAP1 POP PUSH1 0x1 PUSH1 0x0 DUP1 DUP4 PUSH20 0xFFFFFFFFFFFFFFFFFFFFFFFFFFFFFFFFFFFFFFFF AND PUSH20 0xFFFFFFFFFFFFFFFFFFFFFFFFFFFFFFFFFFFFFFFF AND DUP2 MSTORE PUSH1 0x20 ADD SWAP1 DUP2 MSTORE PUSH1 0x20 ADD PUSH1 0x0 KECCAK256 PUSH1 0x0 PUSH2 0x100 EXP DUP2 SLOAD DUP2 PUSH1 0xFF MUL NOT AND SWAP1 DUP4 ISZERO ISZERO MUL OR SWAP1 SSTORE POP POP DUP1 DUP1 PUSH3 0xCB SWAP1 PUSH3 0x555 JUMP JUMPDEST SWAP2 POP POP PUSH3 0x3A JUMP JUMPDEST POP DUP3 PUSH1 0x4 DUP2 SWAP1 SSTORE POP DUP2 PUSH1 0x5 PUSH1 0x0 PUSH2 0x100 EXP DUP2 SLOAD DUP2 PUSH20 0xFFFFFFFFFFFFFFFFFFFFFFFFFFFFFFFFFFFFFFFF MUL NOT AND SWAP1 DUP4 PUSH20 0xFFFFFFFFFFFFFFFFFFFFFFFFFFFFFFFFFFFFFFFF AND MUL OR SWAP1 SSTORE POP DUP1 PUSH1 0x6 SWAP1 DUP2 PUSH3 0x12E SWAP2 SWAP1 PUSH3 0x7E3 JUMP JUMPDEST POP POP POP POP POP PUSH3 0x8CA JUMP JUMPDEST PUSH1 0x0 PUSH1 0x40 MLOAD SWAP1 POP SWAP1 JUMP JUMPDEST PUSH1 0x0 DUP1 REVERT JUMPDEST PUSH1 0x0 DUP1 REVERT JUMPDEST PUSH1 0x0 DUP1 REVERT JUMPDEST PUSH1 0x0 PUSH1 0x1F NOT PUSH1 0x1F DUP4 ADD AND SWAP1 POP SWAP2 SWAP1 POP JUMP JUMPDEST PUSH32 0x4E487B7100000000000000000000000000000000000000000000000000000000 PUSH1 0x0 MSTORE PUSH1 0x41 PUSH1 0x4 MSTORE PUSH1 0x24 PUSH1 0x0 REVERT JUMPDEST PUSH3 0x19D DUP3 PUSH3 0x152 JUMP JUMPDEST DUP2 ADD DUP2 DUP2 LT PUSH8 0xFFFFFFFFFFFFFFFF DUP3 GT OR ISZERO PUSH3 0x1BF JUMPI PUSH3 0x1BE PUSH3 0x163 JUMP JUMPDEST JUMPDEST DUP1 PUSH1 0x40 MSTORE POP POP POP JUMP JUMPDEST PUSH1 0x0 PUSH3 0x1D4 PUSH3 0x139 JUMP JUMPDEST SWAP1 POP PUSH3 0x1E2 DUP3 DUP3 PUSH3 0x192 JUMP JUMPDEST SWAP2 SWAP1 POP JUMP JUMPDEST PUSH1 0x0 PUSH8 0xFFFFFFFFFFFFFFFF DUP3 GT ISZERO PUSH3 0x205 JUMPI PUSH3 0x204 PUSH3 0x163 JUMP JUMPDEST JUMPDEST PUSH1 0x20 DUP3 MUL SWAP1 POP PUSH1 0x20 DUP2 ADD SWAP1 POP SWAP2 SWAP1 POP JUMP JUMPDEST PUSH1 0x0 DUP1 REVERT JUMPDEST PUSH1 0x0 PUSH20 0xFFFFFFFFFFFFFFFFFFFFFFFFFFFFFFFFFFFFFFFF DUP3 AND SWAP1 POP SWAP2 SWAP1 POP JUMP JUMPDEST PUSH1 0x0 PUSH3 0x248 DUP3 PUSH3 0x21B JUMP JUMPDEST SWAP1 POP SWAP2 SWAP1 POP JUMP JUMPDEST PUSH3 0x25A DUP2 PUSH3 0x23B JUMP JUMPDEST DUP2 EQ PUSH3 0x266 JUMPI PUSH1 0x0 DUP1 REVERT JUMPDEST POP JUMP JUMPDEST PUSH1 0x0 DUP2 MLOAD SWAP1 POP PUSH3 0x27A DUP2 PUSH3 0x24F JUMP JUMPDEST SWAP3 SWAP2 POP POP JUMP JUMPDEST PUSH1 0x0 PUSH3 0x297 PUSH3 0x291 DUP5 PUSH3 0x1E7 JUMP JUMPDEST PUSH3 0x1C8 JUMP JUMPDEST SWAP1 POP DUP1 DUP4 DUP3 MSTORE PUSH1 0x20 DUP3 ADD SWAP1 POP PUSH1 0x20 DUP5 MUL DUP4 ADD DUP6 DUP2 GT ISZERO PUSH3 0x2BD JUMPI PUSH3 0x2BC PUSH3 0x216 JUMP JUMPDEST JUMPDEST DUP4 JUMPDEST DUP2 DUP2 LT ISZERO PUSH3 0x2EA JUMPI DUP1 PUSH3 0x2D5 DUP9 DUP3 PUSH3 0x269 JUMP JUMPDEST DUP5 MSTORE PUSH1 0x20 DUP5 ADD SWAP4 POP POP PUSH1 0x20 DUP2 ADD SWAP1 POP PUSH3 0x2BF JUMP JUMPDEST POP POP POP SWAP4 SWAP3 POP POP POP JUMP JUMPDEST PUSH1 0x0 DUP3 PUSH1 0x1F DUP4 ADD SLT PUSH3 0x30C JUMPI PUSH3 0x30B PUSH3 0x14D JUMP JUMPDEST JUMPDEST DUP2 MLOAD PUSH3 0x31E DUP5 DUP3 PUSH1 0x20 DUP7 ADD PUSH3 0x280 JUMP JUMPDEST SWAP2 POP POP SWAP3 SWAP2 POP POP JUMP JUMPDEST PUSH1 0x0 DUP2 SWAP1 POP SWAP2 SWAP1 POP JUMP JUMPDEST PUSH3 0x33C DUP2 PUSH3 0x327 JUMP JUMPDEST DUP2 EQ PUSH3 0x348 JUMPI PUSH1 0x0 DUP1 REVERT JUMPDEST POP JUMP JUMPDEST PUSH1 0x0 DUP2 MLOAD SWAP1 POP PUSH3 0x35C DUP2 PUSH3 0x331 JUMP JUMPDEST SWAP3 SWAP2 POP POP JUMP JUMPDEST PUSH1 0x0 DUP1 REVERT JUMPDEST PUSH1 0x0 PUSH8 0xFFFFFFFFFFFFFFFF DUP3 GT ISZERO PUSH3 0x385 JUMPI PUSH3 0x384 PUSH3 0x163 JUMP JUMPDEST JUMPDEST PUSH3 0x390 DUP3 PUSH3 0x152 JUMP JUMPDEST SWAP1 POP PUSH1 0x20 DUP2 ADD SWAP1 POP SWAP2 SWAP1 POP JUMP JUMPDEST PUSH1 0x0 JUMPDEST DUP4 DUP2 LT ISZERO PUSH3 0x3BD JUMPI DUP1 DUP3 ADD MLOAD DUP2 DUP5 ADD MSTORE PUSH1 0x20 DUP2 ADD SWAP1 POP PUSH3 0x3A0 JUMP JUMPDEST PUSH1 0x0 DUP5 DUP5 ADD MSTORE POP POP POP POP JUMP JUMPDEST PUSH1 0x0 PUSH3 0x3E0 PUSH3 0x3DA DUP5 PUSH3 0x367 JUMP JUMPDEST PUSH3 0x1C8 JUMP JUMPDEST SWAP1 POP DUP3 DUP2 MSTORE PUSH1 0x20 DUP2 ADD DUP5 DUP5 DUP5 ADD GT ISZERO PUSH3 0x3FF JUMPI PUSH3 0x3FE PUSH3 0x362 JUMP JUMPDEST JUMPDEST PUSH3 0x40C DUP5 DUP3 DUP6 PUSH3 0x39D JUMP JUMPDEST POP SWAP4 SWAP3 POP POP POP JUMP JUMPDEST PUSH1 0x0 DUP3 PUSH1 0x1F DUP4 ADD SLT PUSH3 0x42C JUMPI PUSH3 0x42B PUSH3 0x14D JUMP JUMPDEST JUMPDEST DUP2 MLOAD PUSH3 0x43E DUP5 DUP3 PUSH1 0x20 DUP7 ADD PUSH3 0x3C9 JUMP JUMPDEST SWAP2 POP POP SWAP3 SWAP2 POP POP JUMP JUMPDEST PUSH1 0x0 DUP1 PUSH1 0x0 DUP1 PUSH1 0x80 DUP6 DUP8 SUB SLT ISZERO PUSH3 0x464 JUMPI PUSH3 0x463 PUSH3 0x143 JUMP JUMPDEST JUMPDEST PUSH1 0x0 DUP6 ADD MLOAD PUSH8 0xFFFFFFFFFFFFFFFF DUP2 GT ISZERO PUSH3 0x485 JUMPI PUSH3 0x484 PUSH3 0x148 JUMP JUMPDEST JUMPDEST PUSH3 0x493 DUP8 DUP3 DUP9 ADD PUSH3 0x2F4 JUMP JUMPDEST SWAP5 POP POP PUSH1 0x20 PUSH3 0x4A6 DUP8 DUP3 DUP9 ADD PUSH3 0x34B JUMP JUMPDEST SWAP4 POP POP PUSH1 0x40 PUSH3 0x4B9 DUP8 DUP3 DUP9 ADD PUSH3 0x269 JUMP JUMPDEST SWAP3 POP POP PUSH1 0x60 DUP6 ADD MLOAD PUSH8 0xFFFFFFFFFFFFFFFF DUP2 GT ISZERO PUSH3 0x4DD JUMPI PUSH3 0x4DC PUSH3 0x148 JUMP JUMPDEST JUMPDEST PUSH3 0x4EB DUP8 DUP3 DUP9 ADD PUSH3 0x414 JUMP JUMPDEST SWAP2 POP POP SWAP3 SWAP6 SWAP2 SWAP5 POP SWAP3 POP JUMP JUMPDEST PUSH32 0x4E487B7100000000000000000000000000000000000000000000000000000000 PUSH1 0x0 MSTORE PUSH1 0x32 PUSH1 0x4 MSTORE PUSH1 0x24 PUSH1 0x0 REVERT JUMPDEST PUSH32 0x4E487B7100000000000000000000000000000000000000000000000000000000 PUSH1 0x0 MSTORE PUSH1 0x11 PUSH1 0x4 MSTORE PUSH1 0x24 PUSH1 0x0 REVERT JUMPDEST PUSH1 0x0 PUSH3 0x562 DUP3 PUSH3 0x327 JUMP JUMPDEST SWAP2 POP PUSH32 0xFFFFFFFFFFFFFFFFFFFFFFFFFFFFFFFFFFFFFFFFFFFFFFFFFFFFFFFFFFFFFFFF DUP3 SUB PUSH3 0x597 JUMPI PUSH3 0x596 PUSH3 0x526 JUMP JUMPDEST JUMPDEST PUSH1 0x1 DUP3 ADD SWAP1 POP SWAP2 SWAP1 POP JUMP JUMPDEST PUSH1 0x0 DUP2 MLOAD SWAP1 POP SWAP2 SWAP1 POP JUMP JUMPDEST PUSH32 0x4E487B7100000000000000000000000000000000000000000000000000000000 PUSH1 0x0 MSTORE PUSH1 0x22 PUSH1 0x4 MSTORE PUSH1 0x24 PUSH1 0x0 REVERT JUMPDEST PUSH1 0x0 PUSH1 0x2 DUP3 DIV SWAP1 POP PUSH1 0x1 DUP3 AND DUP1 PUSH3 0x5F5 JUMPI PUSH1 0x7F DUP3 AND SWAP2 POP JUMPDEST PUSH1 0x20 DUP3 LT DUP2 SUB PUSH3 0x60B JUMPI PUSH3 0x60A PUSH3 0x5AD JUMP JUMPDEST JUMPDEST POP SWAP2 SWAP1 POP JUMP JUMPDEST PUSH1 0x0 DUP2 SWAP1 POP DUP2 PUSH1 0x0 MSTORE PUSH1 0x20 PUSH1 0x0 KECCAK256 SWAP1 POP SWAP2 SWAP1 POP JUMP JUMPDEST PUSH1 0x0 PUSH1 0x20 PUSH1 0x1F DUP4 ADD DIV SWAP1 POP SWAP2 SWAP1 POP JUMP JUMPDEST PUSH1 0x0 DUP3 DUP3 SHL SWAP1 POP SWAP3 SWAP2 POP POP JUMP JUMPDEST PUSH1 0x0 PUSH1 0x8 DUP4 MUL PUSH3 0x675 PUSH32 0xFFFFFFFFFFFFFFFFFFFFFFFFFFFFFFFFFFFFFFFFFFFFFFFFFFFFFFFFFFFFFFFF DUP3 PUSH3 0x636 JUMP JUMPDEST PUSH3 0x681 DUP7 DUP4 PUSH3 0x636 JUMP JUMPDEST SWAP6 POP DUP1 NOT DUP5 AND SWAP4 POP DUP1 DUP7 AND DUP5 OR SWAP3 POP POP POP SWAP4 SWAP3 POP POP POP JUMP JUMPDEST PUSH1 0x0 DUP2 SWAP1 POP SWAP2 SWAP1 POP JUMP JUMPDEST PUSH1 0x0 PUSH3 0x6C4 PUSH3 0x6BE PUSH3 0x6B8 DUP5 PUSH3 0x327 JUMP JUMPDEST PUSH3 0x699 JUMP JUMPDEST PUSH3 0x327 JUMP JUMPDEST SWAP1 POP SWAP2 SWAP1 POP JUMP JUMPDEST PUSH1 0x0 DUP2 SWAP1 POP SWAP2 SWAP1 POP JUMP JUMPDEST PUSH3 0x6E0 DUP4 PUSH3 0x6A3 JUMP JUMPDEST PUSH3 0x6F8 PUSH3 0x6EF DUP3 PUSH3 0x6CB JUMP JUMPDEST DUP5 DUP5 SLOAD PUSH3 0x643 JUMP JUMPDEST DUP3 SSTORE POP POP POP POP JUMP JUMPDEST PUSH1 0x0 SWAP1 JUMP JUMPDEST PUSH3 0x70F PUSH3 0x700 JUMP JUMPDEST PUSH3 0x71C DUP2 DUP5 DUP5 PUSH3 0x6D5 JUMP JUMPDEST POP POP POP JUMP JUMPDEST JUMPDEST DUP2 DUP2 LT ISZERO PUSH3 0x744 JUMPI PUSH3 0x738 PUSH1 0x0 DUP3 PUSH3 0x705 JUMP JUMPDEST PUSH1 0x1 DUP2 ADD SWAP1 POP PUSH3 0x722 JUMP JUMPDEST POP POP JUMP JUMPDEST PUSH1 0x1F DUP3 GT ISZERO PUSH3 0x793 JUMPI PUSH3 0x75D DUP2 PUSH3 0x611 JUMP JUMPDEST PUSH3 0x768 DUP5 PUSH3 0x626 JUMP JUMPDEST DUP2 ADD PUSH1 0x20 DUP6 LT ISZERO PUSH3 0x778 JUMPI DUP2 SWAP1 POP JUMPDEST PUSH3 0x790 PUSH3 0x787 DUP6 PUSH3 0x626 JUMP JUMPDEST DUP4 ADD DUP3 PUSH3 0x721 JUMP JUMPDEST POP POP JUMPDEST POP POP POP JUMP JUMPDEST PUSH1 0x0 DUP3 DUP3 SHR SWAP1 POP SWAP3 SWAP2 POP POP JUMP JUMPDEST PUSH1 0x0 PUSH3 0x7B8 PUSH1 0x0 NOT DUP5 PUSH1 0x8 MUL PUSH3 0x798 JUMP JUMPDEST NOT DUP1 DUP4 AND SWAP2 POP POP SWAP3 SWAP2 POP POP JUMP JUMPDEST PUSH1 0x0 PUSH3 0x7D3 DUP4 DUP4 PUSH3 0x7A5 JUMP JUMPDEST SWAP2 POP DUP3 PUSH1 0x2 MUL DUP3 OR SWAP1 POP SWAP3 SWAP2 POP POP JUMP JUMPDEST PUSH3 0x7EE DUP3 PUSH3 0x5A2 JUMP JUMPDEST PUSH8 0xFFFFFFFFFFFFFFFF DUP2 GT ISZERO PUSH3 0x80A JUMPI PUSH3 0x809 PUSH3 0x163 JUMP JUMPDEST JUMPDEST PUSH3 0x816 DUP3 SLOAD PUSH3 0x5DC JUMP JUMPDEST PUSH3 0x823 DUP3 DUP3 DUP6 PUSH3 0x748 JUMP JUMPDEST PUSH1 0x0 PUSH1 0x20 SWAP1 POP PUSH1 0x1F DUP4 GT PUSH1 0x1 DUP2 EQ PUSH3 0x85B JUMPI PUSH1 0x0 DUP5 ISZERO PUSH3 0x846 JUMPI DUP3 DUP8 ADD MLOAD SWAP1 POP JUMPDEST PUSH3 0x852 DUP6 DUP3 PUSH3 0x7C5 JUMP JUMPDEST DUP7 SSTORE POP PUSH3 0x8C2 JUMP JUMPDEST PUSH1 0x1F NOT DUP5 AND PUSH3 0x86B DUP7 PUSH3 0x611 JUMP JUMPDEST PUSH1 0x0 JUMPDEST DUP3 DUP2 LT ISZERO PUSH3 0x895 JUMPI DUP5 DUP10 ADD MLOAD DUP3 SSTORE PUSH1 0x1 DUP3 ADD SWAP2 POP PUSH1 0x20 DUP6 ADD SWAP5 POP PUSH1 0x20 DUP2 ADD SWAP1 POP PUSH3 0x86E JUMP JUMPDEST DUP7 DUP4 LT ISZERO PUSH3 0x8B5 JUMPI DUP5 DUP10 ADD MLOAD PUSH3 0x8B1 PUSH1 0x1F DUP10 AND DUP3 PUSH3 0x7A5 JUMP JUMPDEST DUP4 SSTORE POP JUMPDEST PUSH1 0x1 PUSH1 0x2 DUP9 MUL ADD DUP9 SSTORE POP POP POP JUMPDEST POP POP POP POP POP POP JUMP JUMPDEST PUSH2 0x21AA DUP1 PUSH3 0x8DA PUSH1 0x0 CODECOPY PUSH1 0x0 RETURN INVALID PUSH1 0x80 PUSH1 0x40 MSTORE CALLVALUE DUP1 ISZERO PUSH2 0x10 JUMPI PUSH1 0x0 DUP1 REVERT JUMPDEST POP PUSH1 0x4 CALLDATASIZE LT PUSH2 0xCF JUMPI PUSH1 0x0 CALLDATALOAD PUSH1 0xE0 SHR DUP1 PUSH4 0x60B4A60C GT PUSH2 0x8C JUMPI DUP1 PUSH4 0x8D6CE61B GT PUSH2 0x66 JUMPI DUP1 PUSH4 0x8D6CE61B EQ PUSH2 0x25F JUMPI DUP1 PUSH4 0x9698F8F3 EQ PUSH2 0x27D JUMPI DUP1 PUSH4 0xCD58A07C EQ PUSH2 0x299 JUMPI DUP1 PUSH4 0xF30D558C EQ PUSH2 0x2B7 JUMPI PUSH2 0xCF JUMP JUMPDEST DUP1 PUSH4 0x60B4A60C EQ PUSH2 0x1CF JUMPI DUP1 PUSH4 0x63EF0635 EQ PUSH2 0x1FF JUMPI DUP1 PUSH4 0x855F84D2 EQ PUSH2 0x22F JUMPI PUSH2 0xCF JUMP JUMPDEST DUP1 PUSH4 0x128D8711 EQ PUSH2 0xD4 JUMPI DUP1 PUSH4 0x1B1ED5A9 EQ PUSH2 0xF0 JUMPI DUP1 PUSH4 0x1E0DAF7B EQ PUSH2 0x120 JUMPI DUP1 PUSH4 0x3742186A EQ PUSH2 0x150 JUMPI DUP1 PUSH4 0x568E69C8 EQ PUSH2 0x180 JUMPI DUP1 PUSH4 0x5E8E82F2 EQ PUSH2 0x19E JUMPI JUMPDEST PUSH1 0x0 DUP1 REVERT JUMPDEST PUSH2 0xEE PUSH1 0x4 DUP1 CALLDATASIZE SUB DUP2 ADD SWAP1 PUSH2 0xE9 SWAP2 SWAP1 PUSH2 0x119F JUMP JUMPDEST PUSH2 0x2E8 JUMP JUMPDEST STOP JUMPDEST PUSH2 0x10A PUSH1 0x4 DUP1 CALLDATASIZE SUB DUP2 ADD SWAP1 PUSH2 0x105 SWAP2 SWAP1 PUSH2 0x1338 JUMP JUMPDEST PUSH2 0x507 JUMP JUMPDEST PUSH1 0x40 MLOAD PUSH2 0x117 SWAP2 SWAP1 PUSH2 0x1390 JUMP JUMPDEST PUSH1 0x40 MLOAD DUP1 SWAP2 SUB SWAP1 RETURN JUMPDEST PUSH2 0x13A PUSH1 0x4 DUP1 CALLDATASIZE SUB DUP2 ADD SWAP1 PUSH2 0x135 SWAP2 SWAP1 PUSH2 0x13AB JUMP JUMPDEST PUSH2 0x72D JUMP JUMPDEST PUSH1 0x40 MLOAD PUSH2 0x147 SWAP2 SWAP1 PUSH2 0x157F JUMP JUMPDEST PUSH1 0x40 MLOAD DUP1 SWAP2 SUB SWAP1 RETURN JUMPDEST PUSH2 0x16A PUSH1 0x4 DUP1 CALLDATASIZE SUB DUP2 ADD SWAP1 PUSH2 0x165 SWAP2 SWAP1 PUSH2 0x13AB JUMP JUMPDEST PUSH2 0x90C JUMP JUMPDEST PUSH1 0x40 MLOAD PUSH2 0x177 SWAP2 SWAP1 PUSH2 0x1390 JUMP JUMPDEST PUSH1 0x40 MLOAD DUP1 SWAP2 SUB SWAP1 RETURN JUMPDEST PUSH2 0x188 PUSH2 0x92C JUMP JUMPDEST PUSH1 0x40 MLOAD PUSH2 0x195 SWAP2 SWAP1 PUSH2 0x15BA JUMP JUMPDEST PUSH1 0x40 MLOAD DUP1 SWAP2 SUB SWAP1 RETURN JUMPDEST PUSH2 0x1B8 PUSH1 0x4 DUP1 CALLDATASIZE SUB DUP2 ADD SWAP1 PUSH2 0x1B3 SWAP2 SWAP1 PUSH2 0x13AB JUMP JUMPDEST PUSH2 0x932 JUMP JUMPDEST PUSH1 0x40 MLOAD PUSH2 0x1C6 SWAP3 SWAP2 SWAP1 PUSH2 0x161F JUMP JUMPDEST PUSH1 0x40 MLOAD DUP1 SWAP2 SUB SWAP1 RETURN JUMPDEST PUSH2 0x1E9 PUSH1 0x4 DUP1 CALLDATASIZE SUB DUP2 ADD SWAP1 PUSH2 0x1E4 SWAP2 SWAP1 PUSH2 0x164F JUMP JUMPDEST PUSH2 0x9EB JUMP JUMPDEST PUSH1 0x40 MLOAD PUSH2 0x1F6 SWAP2 SWAP1 PUSH2 0x1390 JUMP JUMPDEST PUSH1 0x40 MLOAD DUP1 SWAP2 SUB SWAP1 RETURN JUMPDEST PUSH2 0x219 PUSH1 0x4 DUP1 CALLDATASIZE SUB DUP2 ADD SWAP1 PUSH2 0x214 SWAP2 SWAP1 PUSH2 0x164F JUMP JUMPDEST PUSH2 0xB81 JUMP JUMPDEST PUSH1 0x40 MLOAD PUSH2 0x226 SWAP2 SWAP1 PUSH2 0x1390 JUMP JUMPDEST PUSH1 0x40 MLOAD DUP1 SWAP2 SUB SWAP1 RETURN JUMPDEST PUSH2 0x249 PUSH1 0x4 DUP1 CALLDATASIZE SUB DUP2 ADD SWAP1 PUSH2 0x244 SWAP2 SWAP1 PUSH2 0x13AB JUMP JUMPDEST PUSH2 0xB89 JUMP JUMPDEST PUSH1 0x40 MLOAD PUSH2 0x256 SWAP2 SWAP1 PUSH2 0x177C JUMP JUMPDEST PUSH1 0x40 MLOAD DUP1 SWAP2 SUB SWAP1 RETURN JUMPDEST PUSH2 0x267 PUSH2 0xC94 JUMP JUMPDEST PUSH1 0x40 MLOAD PUSH2 0x274 SWAP2 SWAP1 PUSH2 0x184D JUMP JUMPDEST PUSH1 0x40 MLOAD DUP1 SWAP2 SUB SWAP1 RETURN JUMPDEST PUSH2 0x297 PUSH1 0x4 DUP1 CALLDATASIZE SUB DUP2 ADD SWAP1 PUSH2 0x292 SWAP2 SWAP1 PUSH2 0x19FB JUMP JUMPDEST PUSH2 0xD22 JUMP JUMPDEST STOP JUMPDEST PUSH2 0x2A1 PUSH2 0xF68 JUMP JUMPDEST PUSH1 0x40 MLOAD PUSH2 0x2AE SWAP2 SWAP1 PUSH2 0x1AB6 JUMP JUMPDEST PUSH1 0x40 MLOAD DUP1 SWAP2 SUB SWAP1 RETURN JUMPDEST PUSH2 0x2D1 PUSH1 0x4 DUP1 CALLDATASIZE SUB DUP2 ADD SWAP1 PUSH2 0x2CC SWAP2 SWAP1 PUSH2 0x1AFD JUMP JUMPDEST PUSH2 0xF8E JUMP JUMPDEST PUSH1 0x40 MLOAD PUSH2 0x2DF SWAP3 SWAP2 SWAP1 PUSH2 0x1B4C JUMP JUMPDEST PUSH1 0x40 MLOAD DUP1 SWAP2 SUB SWAP1 RETURN JUMPDEST PUSH1 0x0 DUP1 DUP5 PUSH20 0xFFFFFFFFFFFFFFFFFFFFFFFFFFFFFFFFFFFFFFFF AND PUSH20 0xFFFFFFFFFFFFFFFFFFFFFFFFFFFFFFFFFFFFFFFF AND DUP2 MSTORE PUSH1 0x20 ADD SWAP1 DUP2 MSTORE PUSH1 0x20 ADD PUSH1 0x0 KECCAK256 PUSH1 0x0 SWAP1 SLOAD SWAP1 PUSH2 0x100 EXP SWAP1 DIV PUSH1 0xFF AND PUSH2 0x373 JUMPI PUSH1 0x40 MLOAD PUSH32 0x8C379A000000000000000000000000000000000000000000000000000000000 DUP2 MSTORE PUSH1 0x4 ADD PUSH2 0x36A SWAP1 PUSH2 0x1BC1 JUMP JUMPDEST PUSH1 0x40 MLOAD DUP1 SWAP2 SUB SWAP1 REVERT JUMPDEST PUSH1 0x1 PUSH1 0x0 DUP4 PUSH20 0xFFFFFFFFFFFFFFFFFFFFFFFFFFFFFFFFFFFFFFFF AND PUSH20 0xFFFFFFFFFFFFFFFFFFFFFFFFFFFFFFFFFFFFFFFF AND DUP2 MSTORE PUSH1 0x20 ADD SWAP1 DUP2 MSTORE PUSH1 0x20 ADD PUSH1 0x0 KECCAK256 PUSH1 0x1 ADD PUSH1 0x0 SWAP1 SLOAD SWAP1 PUSH2 0x100 EXP SWAP1 DIV PUSH1 0xFF AND PUSH2 0x402 JUMPI PUSH1 0x40 MLOAD PUSH32 0x8C379A000000000000000000000000000000000000000000000000000000000 DUP2 MSTORE PUSH1 0x4 ADD PUSH2 0x3F9 SWAP1 PUSH2 0x1C53 JUMP JUMPDEST PUSH1 0x40 MLOAD DUP1 SWAP2 SUB SWAP1 REVERT JUMPDEST PUSH1 0x0 PUSH1 0x40 MLOAD DUP1 PUSH1 0x40 ADD PUSH1 0x40 MSTORE DUP1 DUP6 PUSH20 0xFFFFFFFFFFFFFFFFFFFFFFFFFFFFFFFFFFFFFFFF AND DUP2 MSTORE PUSH1 0x20 ADD DUP4 ISZERO ISZERO DUP2 MSTORE POP SWAP1 POP PUSH1 0x2 PUSH1 0x0 DUP5 PUSH20 0xFFFFFFFFFFFFFFFFFFFFFFFFFFFFFFFFFFFFFFFF AND PUSH20 0xFFFFFFFFFFFFFFFFFFFFFFFFFFFFFFFFFFFFFFFF AND DUP2 MSTORE PUSH1 0x20 ADD SWAP1 DUP2 MSTORE PUSH1 0x20 ADD PUSH1 0x0 KECCAK256 DUP2 SWAP1 DUP1 PUSH1 0x1 DUP2 SLOAD ADD DUP1 DUP3 SSTORE DUP1 SWAP2 POP POP PUSH1 0x1 SWAP1 SUB SWAP1 PUSH1 0x0 MSTORE PUSH1 0x20 PUSH1 0x0 KECCAK256 ADD PUSH1 0x0 SWAP1 SWAP2 SWAP1 SWAP2 SWAP1 SWAP2 POP PUSH1 0x0 DUP3 ADD MLOAD DUP2 PUSH1 0x0 ADD PUSH1 0x0 PUSH2 0x100 EXP DUP2 SLOAD DUP2 PUSH20 0xFFFFFFFFFFFFFFFFFFFFFFFFFFFFFFFFFFFFFFFF MUL NOT AND SWAP1 DUP4 PUSH20 0xFFFFFFFFFFFFFFFFFFFFFFFFFFFFFFFFFFFFFFFF AND MUL OR SWAP1 SSTORE POP PUSH1 0x20 DUP3 ADD MLOAD DUP2 PUSH1 0x0 ADD PUSH1 0x14 PUSH2 0x100 EXP DUP2 SLOAD DUP2 PUSH1 0xFF MUL NOT AND SWAP1 DUP4 ISZERO ISZERO MUL OR SWAP1 SSTORE POP POP POP POP POP POP POP JUMP JUMPDEST PUSH1 0x0 DUP1 PUSH1 0x5 PUSH1 0x0 SWAP1 SLOAD SWAP1 PUSH2 0x100 EXP SWAP1 DIV PUSH20 0xFFFFFFFFFFFFFFFFFFFFFFFFFFFFFFFFFFFFFFFF AND PUSH20 0xFFFFFFFFFFFFFFFFFFFFFFFFFFFFFFFFFFFFFFFF AND PUSH4 0x889F1D69 DUP5 PUSH1 0x40 MLOAD DUP3 PUSH4 0xFFFFFFFF AND PUSH1 0xE0 SHL DUP2 MSTORE PUSH1 0x4 ADD PUSH2 0x565 SWAP2 SWAP1 PUSH2 0x1C73 JUMP JUMPDEST PUSH1 0x20 PUSH1 0x40 MLOAD DUP1 DUP4 SUB DUP2 PUSH1 0x0 DUP8 GAS CALL ISZERO DUP1 ISZERO PUSH2 0x584 JUMPI RETURNDATASIZE PUSH1 0x0 DUP1 RETURNDATACOPY RETURNDATASIZE PUSH1 0x0 REVERT JUMPDEST POP POP POP POP PUSH1 0x40 MLOAD RETURNDATASIZE PUSH1 0x1F NOT PUSH1 0x1F DUP3 ADD AND DUP3 ADD DUP1 PUSH1 0x40 MSTORE POP DUP2 ADD SWAP1 PUSH2 0x5A8 SWAP2 SWAP1 PUSH2 0x1CAA JUMP JUMPDEST SWAP1 POP PUSH1 0x0 PUSH1 0x2 PUSH1 0x0 DUP4 PUSH20 0xFFFFFFFFFFFFFFFFFFFFFFFFFFFFFFFFFFFFFFFF AND PUSH20 0xFFFFFFFFFFFFFFFFFFFFFFFFFFFFFFFFFFFFFFFF AND DUP2 MSTORE PUSH1 0x20 ADD SWAP1 DUP2 MSTORE PUSH1 0x20 ADD PUSH1 0x0 KECCAK256 DUP1 SLOAD DUP1 PUSH1 0x20 MUL PUSH1 0x20 ADD PUSH1 0x40 MLOAD SWAP1 DUP2 ADD PUSH1 0x40 MSTORE DUP1 SWAP3 SWAP2 SWAP1 DUP2 DUP2 MSTORE PUSH1 0x20 ADD PUSH1 0x0 SWAP1 JUMPDEST DUP3 DUP3 LT ISZERO PUSH2 0x6AA JUMPI DUP4 DUP3 SWAP1 PUSH1 0x0 MSTORE PUSH1 0x20 PUSH1 0x0 KECCAK256 ADD PUSH1 0x40 MLOAD DUP1 PUSH1 0x40 ADD PUSH1 0x40 MSTORE SWAP1 DUP2 PUSH1 0x0 DUP3 ADD PUSH1 0x0 SWAP1 SLOAD SWAP1 PUSH2 0x100 EXP SWAP1 DIV PUSH20 0xFFFFFFFFFFFFFFFFFFFFFFFFFFFFFFFFFFFFFFFF AND PUSH20 0xFFFFFFFFFFFFFFFFFFFFFFFFFFFFFFFFFFFFFFFF AND PUSH20 0xFFFFFFFFFFFFFFFFFFFFFFFFFFFFFFFFFFFFFFFF AND DUP2 MSTORE PUSH1 0x20 ADD PUSH1 0x0 DUP3 ADD PUSH1 0x14 SWAP1 SLOAD SWAP1 PUSH2 0x100 EXP SWAP1 DIV PUSH1 0xFF AND ISZERO ISZERO ISZERO ISZERO DUP2 MSTORE POP POP DUP2 MSTORE PUSH1 0x20 ADD SWAP1 PUSH1 0x1 ADD SWAP1 PUSH2 0x60B JUMP JUMPDEST POP POP POP POP SWAP1 POP PUSH1 0x0 DUP1 JUMPDEST DUP3 MLOAD DUP2 LT ISZERO PUSH2 0x70A JUMPI PUSH1 0x0 DUP4 DUP3 DUP2 MLOAD DUP2 LT PUSH2 0x6D2 JUMPI PUSH2 0x6D1 PUSH2 0x1CD7 JUMP JUMPDEST JUMPDEST PUSH1 0x20 MUL PUSH1 0x20 ADD ADD MLOAD SWAP1 POP DUP1 PUSH1 0x20 ADD MLOAD ISZERO PUSH2 0x6F6 JUMPI PUSH1 0x1 DUP4 PUSH2 0x6F3 SWAP2 SWAP1 PUSH2 0x1D35 JUMP JUMPDEST SWAP3 POP JUMPDEST POP DUP1 DUP1 PUSH2 0x702 SWAP1 PUSH2 0x1D69 JUMP JUMPDEST SWAP2 POP POP PUSH2 0x6B4 JUMP JUMPDEST POP PUSH1 0x4 SLOAD DUP2 LT PUSH2 0x720 JUMPI PUSH1 0x1 SWAP4 POP POP POP POP PUSH2 0x728 JUMP JUMPDEST PUSH1 0x0 SWAP4 POP POP POP POP JUMPDEST SWAP2 SWAP1 POP JUMP JUMPDEST PUSH2 0x735 PUSH2 0xFF8 JUMP JUMPDEST PUSH1 0x1 PUSH1 0x0 DUP4 PUSH20 0xFFFFFFFFFFFFFFFFFFFFFFFFFFFFFFFFFFFFFFFF AND PUSH20 0xFFFFFFFFFFFFFFFFFFFFFFFFFFFFFFFFFFFFFFFF AND DUP2 MSTORE PUSH1 0x20 ADD SWAP1 DUP2 MSTORE PUSH1 0x20 ADD PUSH1 0x0 KECCAK256 PUSH1 0x40 MLOAD DUP1 PUSH1 0x60 ADD PUSH1 0x40 MSTORE SWAP1 DUP2 PUSH1 0x0 DUP3 ADD DUP1 SLOAD PUSH2 0x78F SWAP1 PUSH2 0x1DE0 JUMP JUMPDEST DUP1 PUSH1 0x1F ADD PUSH1 0x20 DUP1 SWAP2 DIV MUL PUSH1 0x20 ADD PUSH1 0x40 MLOAD SWAP1 DUP2 ADD PUSH1 0x40 MSTORE DUP1 SWAP3 SWAP2 SWAP1 DUP2 DUP2 MSTORE PUSH1 0x20 ADD DUP3 DUP1 SLOAD PUSH2 0x7BB SWAP1 PUSH2 0x1DE0 JUMP JUMPDEST DUP1 ISZERO PUSH2 0x808 JUMPI DUP1 PUSH1 0x1F LT PUSH2 0x7DD JUMPI PUSH2 0x100 DUP1 DUP4 SLOAD DIV MUL DUP4 MSTORE SWAP2 PUSH1 0x20 ADD SWAP2 PUSH2 0x808 JUMP JUMPDEST DUP3 ADD SWAP2 SWAP1 PUSH1 0x0 MSTORE PUSH1 0x20 PUSH1 0x0 KECCAK256 SWAP1 JUMPDEST DUP2 SLOAD DUP2 MSTORE SWAP1 PUSH1 0x1 ADD SWAP1 PUSH1 0x20 ADD DUP1 DUP4 GT PUSH2 0x7EB JUMPI DUP3 SWAP1 SUB PUSH1 0x1F AND DUP3 ADD SWAP2 JUMPDEST POP POP POP POP POP DUP2 MSTORE PUSH1 0x20 ADD PUSH1 0x1 DUP3 ADD PUSH1 0x0 SWAP1 SLOAD SWAP1 PUSH2 0x100 EXP SWAP1 DIV PUSH1 0xFF AND ISZERO ISZERO ISZERO ISZERO DUP2 MSTORE PUSH1 0x20 ADD PUSH1 0x2 DUP3 ADD DUP1 SLOAD DUP1 PUSH1 0x20 MUL PUSH1 0x20 ADD PUSH1 0x40 MLOAD SWAP1 DUP2 ADD PUSH1 0x40 MSTORE DUP1 SWAP3 SWAP2 SWAP1 DUP2 DUP2 MSTORE PUSH1 0x20 ADD PUSH1 0x0 SWAP1 JUMPDEST DUP3 DUP3 LT ISZERO PUSH2 0x8FD JUMPI DUP4 DUP3 SWAP1 PUSH1 0x0 MSTORE PUSH1 0x20 PUSH1 0x0 KECCAK256 ADD DUP1 SLOAD PUSH2 0x870 SWAP1 PUSH2 0x1DE0 JUMP JUMPDEST DUP1 PUSH1 0x1F ADD PUSH1 0x20 DUP1 SWAP2 DIV MUL PUSH1 0x20 ADD PUSH1 0x40 MLOAD SWAP1 DUP2 ADD PUSH1 0x40 MSTORE DUP1 SWAP3 SWAP2 SWAP1 DUP2 DUP2 MSTORE PUSH1 0x20 ADD DUP3 DUP1 SLOAD PUSH2 0x89C SWAP1 PUSH2 0x1DE0 JUMP JUMPDEST DUP1 ISZERO PUSH2 0x8E9 JUMPI DUP1 PUSH1 0x1F LT PUSH2 0x8BE JUMPI PUSH2 0x100 DUP1 DUP4 SLOAD DIV MUL DUP4 MSTORE SWAP2 PUSH1 0x20 ADD SWAP2 PUSH2 0x8E9 JUMP JUMPDEST DUP3 ADD SWAP2 SWAP1 PUSH1 0x0 MSTORE PUSH1 0x20 PUSH1 0x0 KECCAK256 SWAP1 JUMPDEST DUP2 SLOAD DUP2 MSTORE SWAP1 PUSH1 0x1 ADD SWAP1 PUSH1 0x20 ADD DUP1 DUP4 GT PUSH2 0x8CC JUMPI DUP3 SWAP1 SUB PUSH1 0x1F AND DUP3 ADD SWAP2 JUMPDEST POP POP POP POP POP DUP2 MSTORE PUSH1 0x20 ADD SWAP1 PUSH1 0x1 ADD SWAP1 PUSH2 0x851 JUMP JUMPDEST POP POP POP POP DUP2 MSTORE POP POP SWAP1 POP SWAP2 SWAP1 POP JUMP JUMPDEST PUSH1 0x0 PUSH1 0x20 MSTORE DUP1 PUSH1 0x0 MSTORE PUSH1 0x40 PUSH1 0x0 KECCAK256 PUSH1 0x0 SWAP2 POP SLOAD SWAP1 PUSH2 0x100 EXP SWAP1 DIV PUSH1 0xFF AND DUP2 JUMP JUMPDEST PUSH1 0x4 SLOAD DUP2 JUMP JUMPDEST PUSH1 0x1 PUSH1 0x20 MSTORE DUP1 PUSH1 0x0 MSTORE PUSH1 0x40 PUSH1 0x0 KECCAK256 PUSH1 0x0 SWAP2 POP SWAP1 POP DUP1 PUSH1 0x0 ADD DUP1 SLOAD PUSH2 0x955 SWAP1 PUSH2 0x1DE0 JUMP JUMPDEST DUP1 PUSH1 0x1F ADD PUSH1 0x20 DUP1 SWAP2 DIV MUL PUSH1 0x20 ADD PUSH1 0x40 MLOAD SWAP1 DUP2 ADD PUSH1 0x40 MSTORE DUP1 SWAP3 SWAP2 SWAP1 DUP2 DUP2 MSTORE PUSH1 0x20 ADD DUP3 DUP1 SLOAD PUSH2 0x981 SWAP1 PUSH2 0x1DE0 JUMP JUMPDEST DUP1 ISZERO PUSH2 0x9CE JUMPI DUP1 PUSH1 0x1F LT PUSH2 0x9A3 JUMPI PUSH2 0x100 DUP1 DUP4 SLOAD DIV MUL DUP4 MSTORE SWAP2 PUSH1 0x20 ADD SWAP2 PUSH2 0x9CE JUMP JUMPDEST DUP3 ADD SWAP2 SWAP1 PUSH1 0x0 MSTORE PUSH1 0x20 PUSH1 0x0 KECCAK256 SWAP1 JUMPDEST DUP2 SLOAD DUP2 MSTORE SWAP1 PUSH1 0x1 ADD SWAP1 PUSH1 0x20 ADD DUP1 DUP4 GT PUSH2 0x9B1 JUMPI DUP3 SWAP1 SUB PUSH1 0x1F AND DUP3 ADD SWAP2 JUMPDEST POP POP POP POP POP SWAP1 DUP1 PUSH1 0x1 ADD PUSH1 0x0 SWAP1 SLOAD SWAP1 PUSH2 0x100 EXP SWAP1 DIV PUSH1 0xFF AND SWAP1 POP DUP3 JUMP JUMPDEST PUSH1 0x0 DUP1 PUSH1 0x2 PUSH1 0x0 DUP5 PUSH20 0xFFFFFFFFFFFFFFFFFFFFFFFFFFFFFFFFFFFFFFFF AND PUSH20 0xFFFFFFFFFFFFFFFFFFFFFFFFFFFFFFFFFFFFFFFF AND DUP2 MSTORE PUSH1 0x20 ADD SWAP1 DUP2 MSTORE PUSH1 0x20 ADD PUSH1 0x0 KECCAK256 DUP1 SLOAD DUP1 PUSH1 0x20 MUL PUSH1 0x20 ADD PUSH1 0x40 MLOAD SWAP1 DUP2 ADD PUSH1 0x40 MSTORE DUP1 SWAP3 SWAP2 SWAP1 DUP2 DUP2 MSTORE PUSH1 0x20 ADD PUSH1 0x0 SWAP1 JUMPDEST DUP3 DUP3 LT ISZERO PUSH2 0xAEC JUMPI DUP4 DUP3 SWAP1 PUSH1 0x0 MSTORE PUSH1 0x20 PUSH1 0x0 KECCAK256 ADD PUSH1 0x40 MLOAD DUP1 PUSH1 0x40 ADD PUSH1 0x40 MSTORE SWAP1 DUP2 PUSH1 0x0 DUP3 ADD PUSH1 0x0 SWAP1 SLOAD SWAP1 PUSH2 0x100 EXP SWAP1 DIV PUSH20 0xFFFFFFFFFFFFFFFFFFFFFFFFFFFFFFFFFFFFFFFF AND PUSH20 0xFFFFFFFFFFFFFFFFFFFFFFFFFFFFFFFFFFFFFFFF AND PUSH20 0xFFFFFFFFFFFFFFFFFFFFFFFFFFFFFFFFFFFFFFFF AND DUP2 MSTORE PUSH1 0x20 ADD PUSH1 0x0 DUP3 ADD PUSH1 0x14 SWAP1 SLOAD SWAP1 PUSH2 0x100 EXP SWAP1 DIV PUSH1 0xFF AND ISZERO ISZERO ISZERO ISZERO DUP2 MSTORE POP POP DUP2 MSTORE PUSH1 0x20 ADD SWAP1 PUSH1 0x1 ADD SWAP1 PUSH2 0xA4D JUMP JUMPDEST POP POP POP POP SWAP1 POP PUSH1 0x0 JUMPDEST DUP2 MLOAD DUP2 LT ISZERO PUSH2 0xB74 JUMPI PUSH1 0x0 DUP3 DUP3 DUP2 MLOAD DUP2 LT PUSH2 0xB13 JUMPI PUSH2 0xB12 PUSH2 0x1CD7 JUMP JUMPDEST JUMPDEST PUSH1 0x20 MUL PUSH1 0x20 ADD ADD MLOAD SWAP1 POP DUP6 PUSH20 0xFFFFFFFFFFFFFFFFFFFFFFFFFFFFFFFFFFFFFFFF AND DUP2 PUSH1 0x0 ADD MLOAD PUSH20 0xFFFFFFFFFFFFFFFFFFFFFFFFFFFFFFFFFFFFFFFF AND SUB PUSH2 0xB60 JUMPI PUSH1 0x1 SWAP4 POP POP POP POP PUSH2 0xB7B JUMP JUMPDEST POP DUP1 DUP1 PUSH2 0xB6C SWAP1 PUSH2 0x1D69 JUMP JUMPDEST SWAP2 POP POP PUSH2 0xAF5 JUMP JUMPDEST POP PUSH1 0x0 SWAP2 POP POP JUMPDEST SWAP3 SWAP2 POP POP JUMP JUMPDEST PUSH1 0x0 SWAP3 SWAP2 POP POP JUMP JUMPDEST PUSH1 0x60 PUSH1 0x2 PUSH1 0x0 DUP4 PUSH20 0xFFFFFFFFFFFFFFFFFFFFFFFFFFFFFFFFFFFFFFFF AND PUSH20 0xFFFFFFFFFFFFFFFFFFFFFFFFFFFFFFFFFFFFFFFF AND DUP2 MSTORE PUSH1 0x20 ADD SWAP1 DUP2 MSTORE PUSH1 0x20 ADD PUSH1 0x0 KECCAK256 DUP1 SLOAD DUP1 PUSH1 0x20 MUL PUSH1 0x20 ADD PUSH1 0x40 MLOAD SWAP1 DUP2 ADD PUSH1 0x40 MSTORE DUP1 SWAP3 SWAP2 SWAP1 DUP2 DUP2 MSTORE PUSH1 0x20 ADD PUSH1 0x0 SWAP1 JUMPDEST DUP3 DUP3 LT ISZERO PUSH2 0xC89 JUMPI DUP4 DUP3 SWAP1 PUSH1 0x0 MSTORE PUSH1 0x20 PUSH1 0x0 KECCAK256 ADD PUSH1 0x40 MLOAD DUP1 PUSH1 0x40 ADD PUSH1 0x40 MSTORE SWAP1 DUP2 PUSH1 0x0 DUP3 ADD PUSH1 0x0 SWAP1 SLOAD SWAP1 PUSH2 0x100 EXP SWAP1 DIV PUSH20 0xFFFFFFFFFFFFFFFFFFFFFFFFFFFFFFFFFFFFFFFF AND PUSH20 0xFFFFFFFFFFFFFFFFFFFFFFFFFFFFFFFFFFFFFFFF AND PUSH20 0xFFFFFFFFFFFFFFFFFFFFFFFFFFFFFFFFFFFFFFFF AND DUP2 MSTORE PUSH1 0x20 ADD PUSH1 0x0 DUP3 ADD PUSH1 0x14 SWAP1 SLOAD SWAP1 PUSH2 0x100 EXP SWAP1 DIV PUSH1 0xFF AND ISZERO ISZERO ISZERO ISZERO DUP2 MSTORE POP POP DUP2 MSTORE PUSH1 0x20 ADD SWAP1 PUSH1 0x1 ADD SWAP1 PUSH2 0xBEA JUMP JUMPDEST POP POP POP POP SWAP1 POP SWAP2 SWAP1 POP JUMP JUMPDEST PUSH1 0x60 PUSH1 0x3 DUP1 SLOAD DUP1 PUSH1 0x20 MUL PUSH1 0x20 ADD PUSH1 0x40 MLOAD SWAP1 DUP2 ADD PUSH1 0x40 MSTORE DUP1 SWAP3 SWAP2 SWAP1 DUP2 DUP2 MSTORE PUSH1 0x20 ADD DUP3 DUP1 SLOAD DUP1 ISZERO PUSH2 0xD18 JUMPI PUSH1 0x20 MUL DUP3 ADD SWAP2 SWAP1 PUSH1 0x0 MSTORE PUSH1 0x20 PUSH1 0x0 KECCAK256 SWAP1 JUMPDEST DUP2 PUSH1 0x0 SWAP1 SLOAD SWAP1 PUSH2 0x100 EXP SWAP1 DIV PUSH20 0xFFFFFFFFFFFFFFFFFFFFFFFFFFFFFFFFFFFFFFFF AND PUSH20 0xFFFFFFFFFFFFFFFFFFFFFFFFFFFFFFFFFFFFFFFF AND DUP2 MSTORE PUSH1 0x20 ADD SWAP1 PUSH1 0x1 ADD SWAP1 DUP1 DUP4 GT PUSH2 0xCCE JUMPI JUMPDEST POP POP POP POP POP SWAP1 POP SWAP1 JUMP JUMPDEST PUSH1 0x1 PUSH1 0x0 DUP4 PUSH20 0xFFFFFFFFFFFFFFFFFFFFFFFFFFFFFFFFFFFFFFFF AND PUSH20 0xFFFFFFFFFFFFFFFFFFFFFFFFFFFFFFFFFFFFFFFF AND DUP2 MSTORE PUSH1 0x20 ADD SWAP1 DUP2 MSTORE PUSH1 0x20 ADD PUSH1 0x0 KECCAK256 PUSH1 0x1 ADD PUSH1 0x0 SWAP1 SLOAD SWAP1 PUSH2 0x100 EXP SWAP1 DIV PUSH1 0xFF AND ISZERO PUSH2 0xD7C JUMPI PUSH1 0x0 DUP1 REVERT JUMPDEST PUSH1 0x1 PUSH1 0x5 PUSH1 0x0 SWAP1 SLOAD SWAP1 PUSH2 0x100 EXP SWAP1 DIV PUSH20 0xFFFFFFFFFFFFFFFFFFFFFFFFFFFFFFFFFFFFFFFF AND PUSH20 0xFFFFFFFFFFFFFFFFFFFFFFFFFFFFFFFFFFFFFFFF AND PUSH4 0x70A08231 DUP5 PUSH1 0x40 MLOAD DUP3 PUSH4 0xFFFFFFFF AND PUSH1 0xE0 SHL DUP2 MSTORE PUSH1 0x4 ADD PUSH2 0xDD9 SWAP2 SWAP1 PUSH2 0x1E11 JUMP JUMPDEST PUSH1 0x20 PUSH1 0x40 MLOAD DUP1 DUP4 SUB DUP2 DUP7 GAS STATICCALL ISZERO DUP1 ISZERO PUSH2 0xDF6 JUMPI RETURNDATASIZE PUSH1 0x0 DUP1 RETURNDATACOPY RETURNDATASIZE PUSH1 0x0 REVERT JUMPDEST POP POP POP POP PUSH1 0x40 MLOAD RETURNDATASIZE PUSH1 0x1F NOT PUSH1 0x1F DUP3 ADD AND DUP3 ADD DUP1 PUSH1 0x40 MSTORE POP DUP2 ADD SWAP1 PUSH2 0xE1A SWAP2 SWAP1 PUSH2 0x1E41 JUMP JUMPDEST EQ PUSH2 0xE5A JUMPI PUSH1 0x40 MLOAD PUSH32 0x8C379A000000000000000000000000000000000000000000000000000000000 DUP2 MSTORE PUSH1 0x4 ADD PUSH2 0xE51 SWAP1 PUSH2 0x1EE0 JUMP JUMPDEST PUSH1 0x40 MLOAD DUP1 SWAP2 SUB SWAP1 REVERT JUMPDEST PUSH1 0x1 DUP2 PUSH1 0x20 ADD SWAP1 ISZERO ISZERO SWAP1 DUP2 ISZERO ISZERO DUP2 MSTORE POP POP DUP1 PUSH1 0x1 PUSH1 0x0 DUP5 PUSH20 0xFFFFFFFFFFFFFFFFFFFFFFFFFFFFFFFFFFFFFFFF AND PUSH20 0xFFFFFFFFFFFFFFFFFFFFFFFFFFFFFFFFFFFFFFFF AND DUP2 MSTORE PUSH1 0x20 ADD SWAP1 DUP2 MSTORE PUSH1 0x20 ADD PUSH1 0x0 KECCAK256 PUSH1 0x0 DUP3 ADD MLOAD DUP2 PUSH1 0x0 ADD SWAP1 DUP2 PUSH2 0xEC0 SWAP2 SWAP1 PUSH2 0x20A2 JUMP JUMPDEST POP PUSH1 0x20 DUP3 ADD MLOAD DUP2 PUSH1 0x1 ADD PUSH1 0x0 PUSH2 0x100 EXP DUP2 SLOAD DUP2 PUSH1 0xFF MUL NOT AND SWAP1 DUP4 ISZERO ISZERO MUL OR SWAP1 SSTORE POP PUSH1 0x40 DUP3 ADD MLOAD DUP2 PUSH1 0x2 ADD SWAP1 DUP1 MLOAD SWAP1 PUSH1 0x20 ADD SWAP1 PUSH2 0xEFD SWAP3 SWAP2 SWAP1 PUSH2 0x101B JUMP JUMPDEST POP SWAP1 POP POP PUSH1 0x3 DUP3 SWAP1 DUP1 PUSH1 0x1 DUP2 SLOAD ADD DUP1 DUP3 SSTORE DUP1 SWAP2 POP POP PUSH1 0x1 SWAP1 SUB SWAP1 PUSH1 0x0 MSTORE PUSH1 0x20 PUSH1 0x0 KECCAK256 ADD PUSH1 0x0 SWAP1 SWAP2 SWAP1 SWAP2 SWAP1 SWAP2 PUSH2 0x100 EXP DUP2 SLOAD DUP2 PUSH20 0xFFFFFFFFFFFFFFFFFFFFFFFFFFFFFFFFFFFFFFFF MUL NOT AND SWAP1 DUP4 PUSH20 0xFFFFFFFFFFFFFFFFFFFFFFFFFFFFFFFFFFFFFFFF AND MUL OR SWAP1 SSTORE POP POP POP JUMP JUMPDEST PUSH1 0x5 PUSH1 0x0 SWAP1 SLOAD SWAP1 PUSH2 0x100 EXP SWAP1 DIV PUSH20 0xFFFFFFFFFFFFFFFFFFFFFFFFFFFFFFFFFFFFFFFF AND DUP2 JUMP JUMPDEST PUSH1 0x2 PUSH1 0x20 MSTORE DUP2 PUSH1 0x0 MSTORE PUSH1 0x40 PUSH1 0x0 KECCAK256 DUP2 DUP2 SLOAD DUP2 LT PUSH2 0xFAA JUMPI PUSH1 0x0 DUP1 REVERT JUMPDEST SWAP1 PUSH1 0x0 MSTORE PUSH1 0x20 PUSH1 0x0 KECCAK256 ADD PUSH1 0x0 SWAP2 POP SWAP2 POP POP DUP1 PUSH1 0x0 ADD PUSH1 0x0 SWAP1 SLOAD SWAP1 PUSH2 0x100 EXP SWAP1 DIV PUSH20 0xFFFFFFFFFFFFFFFFFFFFFFFFFFFFFFFFFFFFFFFF AND SWAP1 DUP1 PUSH1 0x0 ADD PUSH1 0x14 SWAP1 SLOAD SWAP1 PUSH2 0x100 EXP SWAP1 DIV PUSH1 0xFF AND SWAP1 POP DUP3 JUMP JUMPDEST PUSH1 0x40 MLOAD DUP1 PUSH1 0x60 ADD PUSH1 0x40 MSTORE DUP1 PUSH1 0x60 DUP2 MSTORE PUSH1 0x20 ADD PUSH1 0x0 ISZERO ISZERO DUP2 MSTORE PUSH1 0x20 ADD PUSH1 0x60 DUP2 MSTORE POP SWAP1 JUMP JUMPDEST DUP3 DUP1 SLOAD DUP3 DUP3 SSTORE SWAP1 PUSH1 0x0 MSTORE PUSH1 0x20 PUSH1 0x0 KECCAK256 SWAP1 DUP2 ADD SWAP3 DUP3 ISZERO PUSH2 0x1063 JUMPI SWAP2 PUSH1 0x20 MUL DUP3 ADD JUMPDEST DUP3 DUP2 GT ISZERO PUSH2 0x1062 JUMPI DUP3 MLOAD DUP3 SWAP1 DUP2 PUSH2 0x1052 SWAP2 SWAP1 PUSH2 0x20A2 JUMP JUMPDEST POP SWAP2 PUSH1 0x20 ADD SWAP2 SWAP1 PUSH1 0x1 ADD SWAP1 PUSH2 0x103B JUMP JUMPDEST JUMPDEST POP SWAP1 POP PUSH2 0x1070 SWAP2 SWAP1 PUSH2 0x1074 JUMP JUMPDEST POP SWAP1 JUMP JUMPDEST JUMPDEST DUP1 DUP3 GT ISZERO PUSH2 0x1094 JUMPI PUSH1 0x0 DUP2 DUP2 PUSH2 0x108B SWAP2 SWAP1 PUSH2 0x1098 JUMP JUMPDEST POP PUSH1 0x1 ADD PUSH2 0x1075 JUMP JUMPDEST POP SWAP1 JUMP JUMPDEST POP DUP1 SLOAD PUSH2 0x10A4 SWAP1 PUSH2 0x1DE0 JUMP JUMPDEST PUSH1 0x0 DUP3 SSTORE DUP1 PUSH1 0x1F LT PUSH2 0x10B6 JUMPI POP PUSH2 0x10D5 JUMP JUMPDEST PUSH1 0x1F ADD PUSH1 0x20 SWAP1 DIV SWAP1 PUSH1 0x0 MSTORE PUSH1 0x20 PUSH1 0x0 KECCAK256 SWAP1 DUP2 ADD SWAP1 PUSH2 0x10D4 SWAP2 SWAP1 PUSH2 0x10D8 JUMP JUMPDEST JUMPDEST POP JUMP JUMPDEST JUMPDEST DUP1 DUP3 GT ISZERO PUSH2 0x10F1 JUMPI PUSH1 0x0 DUP2 PUSH1 0x0 SWAP1 SSTORE POP PUSH1 0x1 ADD PUSH2 0x10D9 JUMP JUMPDEST POP SWAP1 JUMP JUMPDEST PUSH1 0x0 PUSH1 0x40 MLOAD SWAP1 POP SWAP1 JUMP JUMPDEST PUSH1 0x0 DUP1 REVERT JUMPDEST PUSH1 0x0 DUP1 REVERT JUMPDEST PUSH1 0x0 PUSH20 0xFFFFFFFFFFFFFFFFFFFFFFFFFFFFFFFFFFFFFFFF DUP3 AND SWAP1 POP SWAP2 SWAP1 POP JUMP JUMPDEST PUSH1 0x0 PUSH2 0x1134 DUP3 PUSH2 0x1109 JUMP JUMPDEST SWAP1 POP SWAP2 SWAP1 POP JUMP JUMPDEST PUSH2 0x1144 DUP2 PUSH2 0x1129 JUMP JUMPDEST DUP2 EQ PUSH2 0x114F JUMPI PUSH1 0x0 DUP1 REVERT JUMPDEST POP JUMP JUMPDEST PUSH1 0x0 DUP2 CALLDATALOAD SWAP1 POP PUSH2 0x1161 DUP2 PUSH2 0x113B JUMP JUMPDEST SWAP3 SWAP2 POP POP JUMP JUMPDEST PUSH1 0x0 DUP2 ISZERO ISZERO SWAP1 POP SWAP2 SWAP1 POP JUMP JUMPDEST PUSH2 0x117C DUP2 PUSH2 0x1167 JUMP JUMPDEST DUP2 EQ PUSH2 0x1187 JUMPI PUSH1 0x0 DUP1 REVERT JUMPDEST POP JUMP JUMPDEST PUSH1 0x0 DUP2 CALLDATALOAD SWAP1 POP PUSH2 0x1199 DUP2 PUSH2 0x1173 JUMP JUMPDEST SWAP3 SWAP2 POP POP JUMP JUMPDEST PUSH1 0x0 DUP1 PUSH1 0x0 PUSH1 0x60 DUP5 DUP7 SUB SLT ISZERO PUSH2 0x11B8 JUMPI PUSH2 0x11B7 PUSH2 0x10FF JUMP JUMPDEST JUMPDEST PUSH1 0x0 PUSH2 0x11C6 DUP7 DUP3 DUP8 ADD PUSH2 0x1152 JUMP JUMPDEST SWAP4 POP POP PUSH1 0x20 PUSH2 0x11D7 DUP7 DUP3 DUP8 ADD PUSH2 0x1152 JUMP JUMPDEST SWAP3 POP POP PUSH1 0x40 PUSH2 0x11E8 DUP7 DUP3 DUP8 ADD PUSH2 0x118A JUMP JUMPDEST SWAP2 POP POP SWAP3 POP SWAP3 POP SWAP3 JUMP JUMPDEST PUSH1 0x0 DUP1 REVERT JUMPDEST PUSH1 0x0 DUP1 REVERT JUMPDEST PUSH1 0x0 PUSH1 0x1F NOT PUSH1 0x1F DUP4 ADD AND SWAP1 POP SWAP2 SWAP1 POP JUMP JUMPDEST PUSH32 0x4E487B7100000000000000000000000000000000000000000000000000000000 PUSH1 0x0 MSTORE PUSH1 0x41 PUSH1 0x4 MSTORE PUSH1 0x24 PUSH1 0x0 REVERT JUMPDEST PUSH2 0x1245 DUP3 PUSH2 0x11FC JUMP JUMPDEST DUP2 ADD DUP2 DUP2 LT PUSH8 0xFFFFFFFFFFFFFFFF DUP3 GT OR ISZERO PUSH2 0x1264 JUMPI PUSH2 0x1263 PUSH2 0x120D JUMP JUMPDEST JUMPDEST DUP1 PUSH1 0x40 MSTORE POP POP POP JUMP JUMPDEST PUSH1 0x0 PUSH2 0x1277 PUSH2 0x10F5 JUMP JUMPDEST SWAP1 POP PUSH2 0x1283 DUP3 DUP3 PUSH2 0x123C JUMP JUMPDEST SWAP2 SWAP1 POP JUMP JUMPDEST PUSH1 0x0 PUSH8 0xFFFFFFFFFFFFFFFF DUP3 GT ISZERO PUSH2 0x12A3 JUMPI PUSH2 0x12A2 PUSH2 0x120D JUMP JUMPDEST JUMPDEST PUSH2 0x12AC DUP3 PUSH2 0x11FC JUMP JUMPDEST SWAP1 POP PUSH1 0x20 DUP2 ADD SWAP1 POP SWAP2 SWAP1 POP JUMP JUMPDEST DUP3 DUP2 DUP4 CALLDATACOPY PUSH1 0x0 DUP4 DUP4 ADD MSTORE POP POP POP JUMP JUMPDEST PUSH1 0x0 PUSH2 0x12DB PUSH2 0x12D6 DUP5 PUSH2 0x1288 JUMP JUMPDEST PUSH2 0x126D JUMP JUMPDEST SWAP1 POP DUP3 DUP2 MSTORE PUSH1 0x20 DUP2 ADD DUP5 DUP5 DUP5 ADD GT ISZERO PUSH2 0x12F7 JUMPI PUSH2 0x12F6 PUSH2 0x11F7 JUMP JUMPDEST JUMPDEST PUSH2 0x1302 DUP5 DUP3 DUP6 PUSH2 0x12B9 JUMP JUMPDEST POP SWAP4 SWAP3 POP POP POP JUMP JUMPDEST PUSH1 0x0 DUP3 PUSH1 0x1F DUP4 ADD SLT PUSH2 0x131F JUMPI PUSH2 0x131E PUSH2 0x11F2 JUMP JUMPDEST JUMPDEST DUP2 CALLDATALOAD PUSH2 0x132F DUP5 DUP3 PUSH1 0x20 DUP7 ADD PUSH2 0x12C8 JUMP JUMPDEST SWAP2 POP POP SWAP3 SWAP2 POP POP JUMP JUMPDEST PUSH1 0x0 PUSH1 0x20 DUP3 DUP5 SUB SLT ISZERO PUSH2 0x134E JUMPI PUSH2 0x134D PUSH2 0x10FF JUMP JUMPDEST JUMPDEST PUSH1 0x0 DUP3 ADD CALLDATALOAD PUSH8 0xFFFFFFFFFFFFFFFF DUP2 GT ISZERO PUSH2 0x136C JUMPI PUSH2 0x136B PUSH2 0x1104 JUMP JUMPDEST JUMPDEST PUSH2 0x1378 DUP5 DUP3 DUP6 ADD PUSH2 0x130A JUMP JUMPDEST SWAP2 POP POP SWAP3 SWAP2 POP POP JUMP JUMPDEST PUSH2 0x138A DUP2 PUSH2 0x1167 JUMP JUMPDEST DUP3 MSTORE POP POP JUMP JUMPDEST PUSH1 0x0 PUSH1 0x20 DUP3 ADD SWAP1 POP PUSH2 0x13A5 PUSH1 0x0 DUP4 ADD DUP5 PUSH2 0x1381 JUMP JUMPDEST SWAP3 SWAP2 POP POP JUMP JUMPDEST PUSH1 0x0 PUSH1 0x20 DUP3 DUP5 SUB SLT ISZERO PUSH2 0x13C1 JUMPI PUSH2 0x13C0 PUSH2 0x10FF JUMP JUMPDEST JUMPDEST PUSH1 0x0 PUSH2 0x13CF DUP5 DUP3 DUP6 ADD PUSH2 0x1152 JUMP JUMPDEST SWAP2 POP POP SWAP3 SWAP2 POP POP JUMP JUMPDEST PUSH1 0x0 DUP2 MLOAD SWAP1 POP SWAP2 SWAP1 POP JUMP JUMPDEST PUSH1 0x0 DUP3 DUP3 MSTORE PUSH1 0x20 DUP3 ADD SWAP1 POP SWAP3 SWAP2 POP POP JUMP JUMPDEST PUSH1 0x0 JUMPDEST DUP4 DUP2 LT ISZERO PUSH2 0x1412 JUMPI DUP1 DUP3 ADD MLOAD DUP2 DUP5 ADD MSTORE PUSH1 0x20 DUP2 ADD SWAP1 POP PUSH2 0x13F7 JUMP JUMPDEST PUSH1 0x0 DUP5 DUP5 ADD MSTORE POP POP POP POP JUMP JUMPDEST PUSH1 0x0 PUSH2 0x1429 DUP3 PUSH2 0x13D8 JUMP JUMPDEST PUSH2 0x1433 DUP2 DUP6 PUSH2 0x13E3 JUMP JUMPDEST SWAP4 POP PUSH2 0x1443 DUP2 DUP6 PUSH1 0x20 DUP7 ADD PUSH2 0x13F4 JUMP JUMPDEST PUSH2 0x144C DUP2 PUSH2 0x11FC JUMP JUMPDEST DUP5 ADD SWAP2 POP POP SWAP3 SWAP2 POP POP JUMP JUMPDEST PUSH2 0x1460 DUP2 PUSH2 0x1167 JUMP JUMPDEST DUP3 MSTORE POP POP JUMP JUMPDEST PUSH1 0x0 DUP2 MLOAD SWAP1 POP SWAP2 SWAP1 POP JUMP JUMPDEST PUSH1 0x0 DUP3 DUP3 MSTORE PUSH1 0x20 DUP3 ADD SWAP1 POP SWAP3 SWAP2 POP POP JUMP JUMPDEST PUSH1 0x0 DUP2 SWAP1 POP PUSH1 0x20 DUP3 ADD SWAP1 POP SWAP2 SWAP1 POP JUMP JUMPDEST PUSH1 0x0 PUSH2 0x149E DUP4 DUP4 PUSH2 0x141E JUMP JUMPDEST SWAP1 POP SWAP3 SWAP2 POP POP JUMP JUMPDEST PUSH1 0x0 PUSH1 0x20 DUP3 ADD SWAP1 POP SWAP2 SWAP1 POP JUMP JUMPDEST PUSH1 0x0 PUSH2 0x14BE DUP3 PUSH2 0x1466 JUMP JUMPDEST PUSH2 0x14C8 DUP2 DUP6 PUSH2 0x1471 JUMP JUMPDEST SWAP4 POP DUP4 PUSH1 0x20 DUP3 MUL DUP6 ADD PUSH2 0x14DA DUP6 PUSH2 0x1482 JUMP JUMPDEST DUP1 PUSH1 0x0 JUMPDEST DUP6 DUP2 LT ISZERO PUSH2 0x1516 JUMPI DUP5 DUP5 SUB DUP10 MSTORE DUP2 MLOAD PUSH2 0x14F7 DUP6 DUP3 PUSH2 0x1492 JUMP JUMPDEST SWAP5 POP PUSH2 0x1502 DUP4 PUSH2 0x14A6 JUMP JUMPDEST SWAP3 POP PUSH1 0x20 DUP11 ADD SWAP10 POP POP PUSH1 0x1 DUP2 ADD SWAP1 POP PUSH2 0x14DE JUMP JUMPDEST POP DUP3 SWAP8 POP DUP8 SWAP6 POP POP POP POP POP POP SWAP3 SWAP2 POP POP JUMP JUMPDEST PUSH1 0x0 PUSH1 0x60 DUP4 ADD PUSH1 0x0 DUP4 ADD MLOAD DUP5 DUP3 SUB PUSH1 0x0 DUP7 ADD MSTORE PUSH2 0x1545 DUP3 DUP3 PUSH2 0x141E JUMP JUMPDEST SWAP2 POP POP PUSH1 0x20 DUP4 ADD MLOAD PUSH2 0x155A PUSH1 0x20 DUP7 ADD DUP3 PUSH2 0x1457 JUMP JUMPDEST POP PUSH1 0x40 DUP4 ADD MLOAD DUP5 DUP3 SUB PUSH1 0x40 DUP7 ADD MSTORE PUSH2 0x1572 DUP3 DUP3 PUSH2 0x14B3 JUMP JUMPDEST SWAP2 POP POP DUP1 SWAP2 POP POP SWAP3 SWAP2 POP POP JUMP JUMPDEST PUSH1 0x0 PUSH1 0x20 DUP3 ADD SWAP1 POP DUP2 DUP2 SUB PUSH1 0x0 DUP4 ADD MSTORE PUSH2 0x1599 DUP2 DUP5 PUSH2 0x1528 JUMP JUMPDEST SWAP1 POP SWAP3 SWAP2 POP POP JUMP JUMPDEST PUSH1 0x0 DUP2 SWAP1 POP SWAP2 SWAP1 POP JUMP JUMPDEST PUSH2 0x15B4 DUP2 PUSH2 0x15A1 JUMP JUMPDEST DUP3 MSTORE POP POP JUMP JUMPDEST PUSH1 0x0 PUSH1 0x20 DUP3 ADD SWAP1 POP PUSH2 0x15CF PUSH1 0x0 DUP4 ADD DUP5 PUSH2 0x15AB JUMP JUMPDEST SWAP3 SWAP2 POP POP JUMP JUMPDEST PUSH1 0x0 DUP3 DUP3 MSTORE PUSH1 0x20 DUP3 ADD SWAP1 POP SWAP3 SWAP2 POP POP JUMP JUMPDEST PUSH1 0x0 PUSH2 0x15F1 DUP3 PUSH2 0x13D8 JUMP JUMPDEST PUSH2 0x15FB DUP2 DUP6 PUSH2 0x15D5 JUMP JUMPDEST SWAP4 POP PUSH2 0x160B DUP2 DUP6 PUSH1 0x20 DUP7 ADD PUSH2 0x13F4 JUMP JUMPDEST PUSH2 0x1614 DUP2 PUSH2 0x11FC JUMP JUMPDEST DUP5 ADD SWAP2 POP POP SWAP3 SWAP2 POP POP JUMP JUMPDEST PUSH1 0x0 PUSH1 0x40 DUP3 ADD SWAP1 POP DUP2 DUP2 SUB PUSH1 0x0 DUP4 ADD MSTORE PUSH2 0x1639 DUP2 DUP6 PUSH2 0x15E6 JUMP JUMPDEST SWAP1 POP PUSH2 0x1648 PUSH1 0x20 DUP4 ADD DUP5 PUSH2 0x1381 JUMP JUMPDEST SWAP4 SWAP3 POP POP POP JUMP JUMPDEST PUSH1 0x0 DUP1 PUSH1 0x40 DUP4 DUP6 SUB SLT ISZERO PUSH2 0x1666 JUMPI PUSH2 0x1665 PUSH2 0x10FF JUMP JUMPDEST JUMPDEST PUSH1 0x0 PUSH2 0x1674 DUP6 DUP3 DUP7 ADD PUSH2 0x1152 JUMP JUMPDEST SWAP3 POP POP PUSH1 0x20 PUSH2 0x1685 DUP6 DUP3 DUP7 ADD PUSH2 0x1152 JUMP JUMPDEST SWAP2 POP POP SWAP3 POP SWAP3 SWAP1 POP JUMP JUMPDEST PUSH1 0x0 DUP2 MLOAD SWAP1 POP SWAP2 SWAP1 POP JUMP JUMPDEST PUSH1 0x0 DUP3 DUP3 MSTORE PUSH1 0x20 DUP3 ADD SWAP1 POP SWAP3 SWAP2 POP POP JUMP JUMPDEST PUSH1 0x0 DUP2 SWAP1 POP PUSH1 0x20 DUP3 ADD SWAP1 POP SWAP2 SWAP1 POP JUMP JUMPDEST PUSH2 0x16C4 DUP2 PUSH2 0x1129 JUMP JUMPDEST DUP3 MSTORE POP POP JUMP JUMPDEST PUSH1 0x40 DUP3 ADD PUSH1 0x0 DUP3 ADD MLOAD PUSH2 0x16E0 PUSH1 0x0 DUP6 ADD DUP3 PUSH2 0x16BB JUMP JUMPDEST POP PUSH1 0x20 DUP3 ADD MLOAD PUSH2 0x16F3 PUSH1 0x20 DUP6 ADD DUP3 PUSH2 0x1457 JUMP JUMPDEST POP POP POP POP JUMP JUMPDEST PUSH1 0x0 PUSH2 0x1705 DUP4 DUP4 PUSH2 0x16CA JUMP JUMPDEST PUSH1 0x40 DUP4 ADD SWAP1 POP SWAP3 SWAP2 POP POP JUMP JUMPDEST PUSH1 0x0 PUSH1 0x20 DUP3 ADD SWAP1 POP SWAP2 SWAP1 POP JUMP JUMPDEST PUSH1 0x0 PUSH2 0x1729 DUP3 PUSH2 0x168F JUMP JUMPDEST PUSH2 0x1733 DUP2 DUP6 PUSH2 0x169A JUMP JUMPDEST SWAP4 POP PUSH2 0x173E DUP4 PUSH2 0x16AB JUMP JUMPDEST DUP1 PUSH1 0x0 JUMPDEST DUP4 DUP2 LT ISZERO PUSH2 0x176F JUMPI DUP2 MLOAD PUSH2 0x1756 DUP9 DUP3 PUSH2 0x16F9 JUMP JUMPDEST SWAP8 POP PUSH2 0x1761 DUP4 PUSH2 0x1711 JUMP JUMPDEST SWAP3 POP POP PUSH1 0x1 DUP2 ADD SWAP1 POP PUSH2 0x1742 JUMP JUMPDEST POP DUP6 SWAP4 POP POP POP POP SWAP3 SWAP2 POP POP JUMP JUMPDEST PUSH1 0x0 PUSH1 0x20 DUP3 ADD SWAP1 POP DUP2 DUP2 SUB PUSH1 0x0 DUP4 ADD MSTORE PUSH2 0x1796 DUP2 DUP5 PUSH2 0x171E JUMP JUMPDEST SWAP1 POP SWAP3 SWAP2 POP POP JUMP JUMPDEST PUSH1 0x0 DUP2 MLOAD SWAP1 POP SWAP2 SWAP1 POP JUMP JUMPDEST PUSH1 0x0 DUP3 DUP3 MSTORE PUSH1 0x20 DUP3 ADD SWAP1 POP SWAP3 SWAP2 POP POP JUMP JUMPDEST PUSH1 0x0 DUP2 SWAP1 POP PUSH1 0x20 DUP3 ADD SWAP1 POP SWAP2 SWAP1 POP JUMP JUMPDEST PUSH1 0x0 PUSH2 0x17D6 DUP4 DUP4 PUSH2 0x16BB JUMP JUMPDEST PUSH1 0x20 DUP4 ADD SWAP1 POP SWAP3 SWAP2 POP POP JUMP JUMPDEST PUSH1 0x0 PUSH1 0x20 DUP3 ADD SWAP1 POP SWAP2 SWAP1 POP JUMP JUMPDEST PUSH1 0x0 PUSH2 0x17FA DUP3 PUSH2 0x179E JUMP JUMPDEST PUSH2 0x1804 DUP2 DUP6 PUSH2 0x17A9 JUMP JUMPDEST SWAP4 POP PUSH2 0x180F DUP4 PUSH2 0x17BA JUMP JUMPDEST DUP1 PUSH1 0x0 JUMPDEST DUP4 DUP2 LT ISZERO PUSH2 0x1840 JUMPI DUP2 MLOAD PUSH2 0x1827 DUP9 DUP3 PUSH2 0x17CA JUMP JUMPDEST SWAP8 POP PUSH2 0x1832 DUP4 PUSH2 0x17E2 JUMP JUMPDEST SWAP3 POP POP PUSH1 0x1 DUP2 ADD SWAP1 POP PUSH2 0x1813 JUMP JUMPDEST POP DUP6 SWAP4 POP POP POP POP SWAP3 SWAP2 POP POP JUMP JUMPDEST PUSH1 0x0 PUSH1 0x20 DUP3 ADD SWAP1 POP DUP2 DUP2 SUB PUSH1 0x0 DUP4 ADD MSTORE PUSH2 0x1867 DUP2 DUP5 PUSH2 0x17EF JUMP JUMPDEST SWAP1 POP SWAP3 SWAP2 POP POP JUMP JUMPDEST PUSH1 0x0 DUP1 REVERT JUMPDEST PUSH1 0x0 DUP1 REVERT JUMPDEST PUSH1 0x0 PUSH8 0xFFFFFFFFFFFFFFFF DUP3 GT ISZERO PUSH2 0x1894 JUMPI PUSH2 0x1893 PUSH2 0x120D JUMP JUMPDEST JUMPDEST PUSH1 0x20 DUP3 MUL SWAP1 POP PUSH1 0x20 DUP2 ADD SWAP1 POP SWAP2 SWAP1 POP JUMP JUMPDEST PUSH1 0x0 DUP1 REVERT JUMPDEST PUSH1 0x0 PUSH2 0x18BD PUSH2 0x18B8 DUP5 PUSH2 0x1879 JUMP JUMPDEST PUSH2 0x126D JUMP JUMPDEST SWAP1 POP DUP1 DUP4 DUP3 MSTORE PUSH1 0x20 DUP3 ADD SWAP1 POP PUSH1 0x20 DUP5 MUL DUP4 ADD DUP6 DUP2 GT ISZERO PUSH2 0x18E0 JUMPI PUSH2 0x18DF PUSH2 0x18A5 JUMP JUMPDEST JUMPDEST DUP4 JUMPDEST DUP2 DUP2 LT ISZERO PUSH2 0x1927 JUMPI DUP1 CALLDATALOAD PUSH8 0xFFFFFFFFFFFFFFFF DUP2 GT ISZERO PUSH2 0x1905 JUMPI PUSH2 0x1904 PUSH2 0x11F2 JUMP JUMPDEST JUMPDEST DUP1 DUP7 ADD PUSH2 0x1912 DUP10 DUP3 PUSH2 0x130A JUMP JUMPDEST DUP6 MSTORE PUSH1 0x20 DUP6 ADD SWAP5 POP POP POP PUSH1 0x20 DUP2 ADD SWAP1 POP PUSH2 0x18E2 JUMP JUMPDEST POP POP POP SWAP4 SWAP3 POP POP POP JUMP JUMPDEST PUSH1 0x0 DUP3 PUSH1 0x1F DUP4 ADD SLT PUSH2 0x1946 JUMPI PUSH2 0x1945 PUSH2 0x11F2 JUMP JUMPDEST JUMPDEST DUP2 CALLDATALOAD PUSH2 0x1956 DUP5 DUP3 PUSH1 0x20 DUP7 ADD PUSH2 0x18AA JUMP JUMPDEST SWAP2 POP POP SWAP3 SWAP2 POP POP JUMP JUMPDEST PUSH1 0x0 PUSH1 0x60 DUP3 DUP5 SUB SLT ISZERO PUSH2 0x1975 JUMPI PUSH2 0x1974 PUSH2 0x186F JUMP JUMPDEST JUMPDEST PUSH2 0x197F PUSH1 0x60 PUSH2 0x126D JUMP JUMPDEST SWAP1 POP PUSH1 0x0 DUP3 ADD CALLDATALOAD PUSH8 0xFFFFFFFFFFFFFFFF DUP2 GT ISZERO PUSH2 0x199F JUMPI PUSH2 0x199E PUSH2 0x1874 JUMP JUMPDEST JUMPDEST PUSH2 0x19AB DUP5 DUP3 DUP6 ADD PUSH2 0x130A JUMP JUMPDEST PUSH1 0x0 DUP4 ADD MSTORE POP PUSH1 0x20 PUSH2 0x19BF DUP5 DUP3 DUP6 ADD PUSH2 0x118A JUMP JUMPDEST PUSH1 0x20 DUP4 ADD MSTORE POP PUSH1 0x40 DUP3 ADD CALLDATALOAD PUSH8 0xFFFFFFFFFFFFFFFF DUP2 GT ISZERO PUSH2 0x19E3 JUMPI PUSH2 0x19E2 PUSH2 0x1874 JUMP JUMPDEST JUMPDEST PUSH2 0x19EF DUP5 DUP3 DUP6 ADD PUSH2 0x1931 JUMP JUMPDEST PUSH1 0x40 DUP4 ADD MSTORE POP SWAP3 SWAP2 POP POP JUMP JUMPDEST PUSH1 0x0 DUP1 PUSH1 0x40 DUP4 DUP6 SUB SLT ISZERO PUSH2 0x1A12 JUMPI PUSH2 0x1A11 PUSH2 0x10FF JUMP JUMPDEST JUMPDEST PUSH1 0x0 PUSH2 0x1A20 DUP6 DUP3 DUP7 ADD PUSH2 0x1152 JUMP JUMPDEST SWAP3 POP POP PUSH1 0x20 DUP4 ADD CALLDATALOAD PUSH8 0xFFFFFFFFFFFFFFFF DUP2 GT ISZERO PUSH2 0x1A41 JUMPI PUSH2 0x1A40 PUSH2 0x1104 JUMP JUMPDEST JUMPDEST PUSH2 0x1A4D DUP6 DUP3 DUP7 ADD PUSH2 0x195F JUMP JUMPDEST SWAP2 POP POP SWAP3 POP SWAP3 SWAP1 POP JUMP JUMPDEST PUSH1 0x0 DUP2 SWAP1 POP SWAP2 SWAP1 POP JUMP JUMPDEST PUSH1 0x0 PUSH2 0x1A7C PUSH2 0x1A77 PUSH2 0x1A72 DUP5 PUSH2 0x1109 JUMP JUMPDEST PUSH2 0x1A57 JUMP JUMPDEST PUSH2 0x1109 JUMP JUMPDEST SWAP1 POP SWAP2 SWAP1 POP JUMP JUMPDEST PUSH1 0x0 PUSH2 0x1A8E DUP3 PUSH2 0x1A61 JUMP JUMPDEST SWAP1 POP SWAP2 SWAP1 POP JUMP JUMPDEST PUSH1 0x0 PUSH2 0x1AA0 DUP3 PUSH2 0x1A83 JUMP JUMPDEST SWAP1 POP SWAP2 SWAP1 POP JUMP JUMPDEST PUSH2 0x1AB0 DUP2 PUSH2 0x1A95 JUMP JUMPDEST DUP3 MSTORE POP POP JUMP JUMPDEST PUSH1 0x0 PUSH1 0x20 DUP3 ADD SWAP1 POP PUSH2 0x1ACB PUSH1 0x0 DUP4 ADD DUP5 PUSH2 0x1AA7 JUMP JUMPDEST SWAP3 SWAP2 POP POP JUMP JUMPDEST PUSH2 0x1ADA DUP2 PUSH2 0x15A1 JUMP JUMPDEST DUP2 EQ PUSH2 0x1AE5 JUMPI PUSH1 0x0 DUP1 REVERT JUMPDEST POP JUMP JUMPDEST PUSH1 0x0 DUP2 CALLDATALOAD SWAP1 POP PUSH2 0x1AF7 DUP2 PUSH2 0x1AD1 JUMP JUMPDEST SWAP3 SWAP2 POP POP JUMP JUMPDEST PUSH1 0x0 DUP1 PUSH1 0x40 DUP4 DUP6 SUB SLT ISZERO PUSH2 0x1B14 JUMPI PUSH2 0x1B13 PUSH2 0x10FF JUMP JUMPDEST JUMPDEST PUSH1 0x0 PUSH2 0x1B22 DUP6 DUP3 DUP7 ADD PUSH2 0x1152 JUMP JUMPDEST SWAP3 POP POP PUSH1 0x20 PUSH2 0x1B33 DUP6 DUP3 DUP7 ADD PUSH2 0x1AE8 JUMP JUMPDEST SWAP2 POP POP SWAP3 POP SWAP3 SWAP1 POP JUMP JUMPDEST PUSH2 0x1B46 DUP2 PUSH2 0x1129 JUMP JUMPDEST DUP3 MSTORE POP POP JUMP JUMPDEST PUSH1 0x0 PUSH1 0x40 DUP3 ADD SWAP1 POP PUSH2 0x1B61 PUSH1 0x0 DUP4 ADD DUP6 PUSH2 0x1B3D JUMP JUMPDEST PUSH2 0x1B6E PUSH1 0x20 DUP4 ADD DUP5 PUSH2 0x1381 JUMP JUMPDEST SWAP4 SWAP3 POP POP POP JUMP JUMPDEST PUSH32 0x596F752063616E27742020766F74650000000000000000000000000000000000 PUSH1 0x0 DUP3 ADD MSTORE POP JUMP JUMPDEST PUSH1 0x0 PUSH2 0x1BAB PUSH1 0xF DUP4 PUSH2 0x15D5 JUMP JUMPDEST SWAP2 POP PUSH2 0x1BB6 DUP3 PUSH2 0x1B75 JUMP JUMPDEST PUSH1 0x20 DUP3 ADD SWAP1 POP SWAP2 SWAP1 POP JUMP JUMPDEST PUSH1 0x0 PUSH1 0x20 DUP3 ADD SWAP1 POP DUP2 DUP2 SUB PUSH1 0x0 DUP4 ADD MSTORE PUSH2 0x1BDA DUP2 PUSH2 0x1B9E JUMP JUMPDEST SWAP1 POP SWAP2 SWAP1 POP JUMP JUMPDEST PUSH32 0x5468657265206973206E6F74206120726571756972656D656E742066726F6D20 PUSH1 0x0 DUP3 ADD MSTORE PUSH32 0x746869732075726C000000000000000000000000000000000000000000000000 PUSH1 0x20 DUP3 ADD MSTORE POP JUMP JUMPDEST PUSH1 0x0 PUSH2 0x1C3D PUSH1 0x28 DUP4 PUSH2 0x15D5 JUMP JUMPDEST SWAP2 POP PUSH2 0x1C48 DUP3 PUSH2 0x1BE1 JUMP JUMPDEST PUSH1 0x40 DUP3 ADD SWAP1 POP SWAP2 SWAP1 POP JUMP JUMPDEST PUSH1 0x0 PUSH1 0x20 DUP3 ADD SWAP1 POP DUP2 DUP2 SUB PUSH1 0x0 DUP4 ADD MSTORE PUSH2 0x1C6C DUP2 PUSH2 0x1C30 JUMP JUMPDEST SWAP1 POP SWAP2 SWAP1 POP JUMP JUMPDEST PUSH1 0x0 PUSH1 0x20 DUP3 ADD SWAP1 POP DUP2 DUP2 SUB PUSH1 0x0 DUP4 ADD MSTORE PUSH2 0x1C8D DUP2 DUP5 PUSH2 0x15E6 JUMP JUMPDEST SWAP1 POP SWAP3 SWAP2 POP POP JUMP JUMPDEST PUSH1 0x0 DUP2 MLOAD SWAP1 POP PUSH2 0x1CA4 DUP2 PUSH2 0x113B JUMP JUMPDEST SWAP3 SWAP2 POP POP JUMP JUMPDEST PUSH1 0x0 PUSH1 0x20 DUP3 DUP5 SUB SLT ISZERO PUSH2 0x1CC0 JUMPI PUSH2 0x1CBF PUSH2 0x10FF JUMP JUMPDEST JUMPDEST PUSH1 0x0 PUSH2 0x1CCE DUP5 DUP3 DUP6 ADD PUSH2 0x1C95 JUMP JUMPDEST SWAP2 POP POP SWAP3 SWAP2 POP POP JUMP JUMPDEST PUSH32 0x4E487B7100000000000000000000000000000000000000000000000000000000 PUSH1 0x0 MSTORE PUSH1 0x32 PUSH1 0x4 MSTORE PUSH1 0x24 PUSH1 0x0 REVERT JUMPDEST PUSH32 0x4E487B7100000000000000000000000000000000000000000000000000000000 PUSH1 0x0 MSTORE PUSH1 0x11 PUSH1 0x4 MSTORE PUSH1 0x24 PUSH1 0x0 REVERT JUMPDEST PUSH1 0x0 PUSH2 0x1D40 DUP3 PUSH2 0x15A1 JUMP JUMPDEST SWAP2 POP PUSH2 0x1D4B DUP4 PUSH2 0x15A1 JUMP JUMPDEST SWAP3 POP DUP3 DUP3 ADD SWAP1 POP DUP1 DUP3 GT ISZERO PUSH2 0x1D63 JUMPI PUSH2 0x1D62 PUSH2 0x1D06 JUMP JUMPDEST JUMPDEST SWAP3 SWAP2 POP POP JUMP JUMPDEST PUSH1 0x0 PUSH2 0x1D74 DUP3 PUSH2 0x15A1 JUMP JUMPDEST SWAP2 POP PUSH32 0xFFFFFFFFFFFFFFFFFFFFFFFFFFFFFFFFFFFFFFFFFFFFFFFFFFFFFFFFFFFFFFFF DUP3 SUB PUSH2 0x1DA6 JUMPI PUSH2 0x1DA5 PUSH2 0x1D06 JUMP JUMPDEST JUMPDEST PUSH1 0x1 DUP3 ADD SWAP1 POP SWAP2 SWAP1 POP JUMP JUMPDEST PUSH32 0x4E487B7100000000000000000000000000000000000000000000000000000000 PUSH1 0x0 MSTORE PUSH1 0x22 PUSH1 0x4 MSTORE PUSH1 0x24 PUSH1 0x0 REVERT JUMPDEST PUSH1 0x0 PUSH1 0x2 DUP3 DIV SWAP1 POP PUSH1 0x1 DUP3 AND DUP1 PUSH2 0x1DF8 JUMPI PUSH1 0x7F DUP3 AND SWAP2 POP JUMPDEST PUSH1 0x20 DUP3 LT DUP2 SUB PUSH2 0x1E0B JUMPI PUSH2 0x1E0A PUSH2 0x1DB1 JUMP JUMPDEST JUMPDEST POP SWAP2 SWAP1 POP JUMP JUMPDEST PUSH1 0x0 PUSH1 0x20 DUP3 ADD SWAP1 POP PUSH2 0x1E26 PUSH1 0x0 DUP4 ADD DUP5 PUSH2 0x1B3D JUMP JUMPDEST SWAP3 SWAP2 POP POP JUMP JUMPDEST PUSH1 0x0 DUP2 MLOAD SWAP1 POP PUSH2 0x1E3B DUP2 PUSH2 0x1AD1 JUMP JUMPDEST SWAP3 SWAP2 POP POP JUMP JUMPDEST PUSH1 0x0 PUSH1 0x20 DUP3 DUP5 SUB SLT ISZERO PUSH2 0x1E57 JUMPI PUSH2 0x1E56 PUSH2 0x10FF JUMP JUMPDEST JUMPDEST PUSH1 0x0 PUSH2 0x1E65 DUP5 DUP3 DUP6 ADD PUSH2 0x1E2C JUMP JUMPDEST SWAP2 POP POP SWAP3 SWAP2 POP POP JUMP JUMPDEST PUSH32 0x54686973206164647265737320646F6573206E6F742068617665206120576F72 PUSH1 0x0 DUP3 ADD MSTORE PUSH32 0x6C6446616B65436F696E00000000000000000000000000000000000000000000 PUSH1 0x20 DUP3 ADD MSTORE POP JUMP JUMPDEST PUSH1 0x0 PUSH2 0x1ECA PUSH1 0x2A DUP4 PUSH2 0x15D5 JUMP JUMPDEST SWAP2 POP PUSH2 0x1ED5 DUP3 PUSH2 0x1E6E JUMP JUMPDEST PUSH1 0x40 DUP3 ADD SWAP1 POP SWAP2 SWAP1 POP JUMP JUMPDEST PUSH1 0x0 PUSH1 0x20 DUP3 ADD SWAP1 POP DUP2 DUP2 SUB PUSH1 0x0 DUP4 ADD MSTORE PUSH2 0x1EF9 DUP2 PUSH2 0x1EBD JUMP JUMPDEST SWAP1 POP SWAP2 SWAP1 POP JUMP JUMPDEST PUSH1 0x0 DUP2 SWAP1 POP DUP2 PUSH1 0x0 MSTORE PUSH1 0x20 PUSH1 0x0 KECCAK256 SWAP1 POP SWAP2 SWAP1 POP JUMP JUMPDEST PUSH1 0x0 PUSH1 0x20 PUSH1 0x1F DUP4 ADD DIV SWAP1 POP SWAP2 SWAP1 POP JUMP JUMPDEST PUSH1 0x0 DUP3 DUP3 SHL SWAP1 POP SWAP3 SWAP2 POP POP JUMP JUMPDEST PUSH1 0x0 PUSH1 0x8 DUP4 MUL PUSH2 0x1F62 PUSH32 0xFFFFFFFFFFFFFFFFFFFFFFFFFFFFFFFFFFFFFFFFFFFFFFFFFFFFFFFFFFFFFFFF DUP3 PUSH2 0x1F25 JUMP JUMPDEST PUSH2 0x1F6C DUP7 DUP4 PUSH2 0x1F25 JUMP JUMPDEST SWAP6 POP DUP1 NOT DUP5 AND SWAP4 POP DUP1 DUP7 AND DUP5 OR SWAP3 POP POP POP SWAP4 SWAP3 POP POP POP JUMP JUMPDEST PUSH1 0x0 PUSH2 0x1F9F PUSH2 0x1F9A PUSH2 0x1F95 DUP5 PUSH2 0x15A1 JUMP JUMPDEST PUSH2 0x1A57 JUMP JUMPDEST PUSH2 0x15A1 JUMP JUMPDEST SWAP1 POP SWAP2 SWAP1 POP JUMP JUMPDEST PUSH1 0x0 DUP2 SWAP1 POP SWAP2 SWAP1 POP JUMP JUMPDEST PUSH2 0x1FB9 DUP4 PUSH2 0x1F84 JUMP JUMPDEST PUSH2 0x1FCD PUSH2 0x1FC5 DUP3 PUSH2 0x1FA6 JUMP JUMPDEST DUP5 DUP5 SLOAD PUSH2 0x1F32 JUMP JUMPDEST DUP3 SSTORE POP POP POP POP JUMP JUMPDEST PUSH1 0x0 SWAP1 JUMP JUMPDEST PUSH2 0x1FE2 PUSH2 0x1FD5 JUMP JUMPDEST PUSH2 0x1FED DUP2 DUP5 DUP5 PUSH2 0x1FB0 JUMP JUMPDEST POP POP POP JUMP JUMPDEST JUMPDEST DUP2 DUP2 LT ISZERO PUSH2 0x2011 JUMPI PUSH2 0x2006 PUSH1 0x0 DUP3 PUSH2 0x1FDA JUMP JUMPDEST PUSH1 0x1 DUP2 ADD SWAP1 POP PUSH2 0x1FF3 JUMP JUMPDEST POP POP JUMP JUMPDEST PUSH1 0x1F DUP3 GT ISZERO PUSH2 0x2056 JUMPI PUSH2 0x2027 DUP2 PUSH2 0x1F00 JUMP JUMPDEST PUSH2 0x2030 DUP5 PUSH2 0x1F15 JUMP JUMPDEST DUP2 ADD PUSH1 0x20 DUP6 LT ISZERO PUSH2 0x203F JUMPI DUP2 SWAP1 POP JUMPDEST PUSH2 0x2053 PUSH2 0x204B DUP6 PUSH2 0x1F15 JUMP JUMPDEST DUP4 ADD DUP3 PUSH2 0x1FF2 JUMP JUMPDEST POP POP JUMPDEST POP POP POP JUMP JUMPDEST PUSH1 0x0 DUP3 DUP3 SHR SWAP1 POP SWAP3 SWAP2 POP POP JUMP JUMPDEST PUSH1 0x0 PUSH2 0x2079 PUSH1 0x0 NOT DUP5 PUSH1 0x8 MUL PUSH2 0x205B JUMP JUMPDEST NOT DUP1 DUP4 AND SWAP2 POP POP SWAP3 SWAP2 POP POP JUMP JUMPDEST PUSH1 0x0 PUSH2 0x2092 DUP4 DUP4 PUSH2 0x2068 JUMP JUMPDEST SWAP2 POP DUP3 PUSH1 0x2 MUL DUP3 OR SWAP1 POP SWAP3 SWAP2 POP POP JUMP JUMPDEST PUSH2 0x20AB DUP3 PUSH2 0x13D8 JUMP JUMPDEST PUSH8 0xFFFFFFFFFFFFFFFF DUP2 GT ISZERO PUSH2 0x20C4 JUMPI PUSH2 0x20C3 PUSH2 0x120D JUMP JUMPDEST JUMPDEST PUSH2 0x20CE DUP3 SLOAD PUSH2 0x1DE0 JUMP JUMPDEST PUSH2 0x20D9 DUP3 DUP3 DUP6 PUSH2 0x2015 JUMP JUMPDEST PUSH1 0x0 PUSH1 0x20 SWAP1 POP PUSH1 0x1F DUP4 GT PUSH1 0x1 DUP2 EQ PUSH2 0x210C JUMPI PUSH1 0x0 DUP5 ISZERO PUSH2 0x20FA JUMPI DUP3 DUP8 ADD MLOAD SWAP1 POP JUMPDEST PUSH2 0x2104 DUP6 DUP3 PUSH2 0x2086 JUMP JUMPDEST DUP7 SSTORE POP PUSH2 0x216C JUMP JUMPDEST PUSH1 0x1F NOT DUP5 AND PUSH2 0x211A DUP7 PUSH2 0x1F00 JUMP JUMPDEST PUSH1 0x0 JUMPDEST DUP3 DUP2 LT ISZERO PUSH2 0x2142 JUMPI DUP5 DUP10 ADD MLOAD DUP3 SSTORE PUSH1 0x1 DUP3 ADD SWAP2 POP PUSH1 0x20 DUP6 ADD SWAP5 POP PUSH1 0x20 DUP2 ADD SWAP1 POP PUSH2 0x211D JUMP JUMPDEST DUP7 DUP4 LT ISZERO PUSH2 0x215F JUMPI DUP5 DUP10 ADD MLOAD PUSH2 0x215B PUSH1 0x1F DUP10 AND DUP3 PUSH2 0x2068 JUMP JUMPDEST DUP4 SSTORE POP JUMPDEST PUSH1 0x1 PUSH1 0x2 DUP9 MUL ADD DUP9 SSTORE POP POP POP JUMPDEST POP POP POP POP POP POP JUMP INVALID LOG2 PUSH5 0x6970667358 0x22 SLT KECCAK256 TIMESTAMP SWAP14 0xBB 0xF8 0xB3 0xAA 0xE LOG0 PUSH1 0x4D 0x24 PUSH19 0x524D98747F8F25B97243976C7BD36416CA6265 0xF6 PUSH5 0x736F6C6343 STOP ADDMOD GT STOP CALLER "
				},
				"gasEstimates": {
					"creation": {
						"codeDepositCost": "1723600",
						"executionCost": "infinite",
						"totalCost": "infinite"
					},
					"external": {
						"allowed(string)": "infinite",
						"allowedToVote(address)": "2912",
						"alreadyVoted(address,address)": "infinite",
						"checkAlreadyVoted(address,address)": "infinite",
						"fakeWorldCoin()": "infinite",
						"getAllRequirementsList()": "infinite",
						"getRequirements(address)": "infinite",
						"getRequirementsVotes(address)": "infinite",
						"neededVoteToAllow()": "2518",
						"requirements(address)": "infinite",
						"requirementsVoted(address,uint256)": "infinite",
						"submitRequirement(address,(string,bool,string[]))": "infinite",
						"vote(address,address,bool)": "infinite"
					}
				},
				"methodIdentifiers": {
					"allowed(string)": "1b1ed5a9",
					"allowedToVote(address)": "3742186a",
					"alreadyVoted(address,address)": "60b4a60c",
					"checkAlreadyVoted(address,address)": "63ef0635",
					"fakeWorldCoin()": "cd58a07c",
					"getAllRequirementsList()": "8d6ce61b",
					"getRequirements(address)": "1e0daf7b",
					"getRequirementsVotes(address)": "855f84d2",
					"neededVoteToAllow()": "568e69c8",
					"requirements(address)": "5e8e82f2",
					"requirementsVoted(address,uint256)": "f30d558c",
					"submitRequirement(address,(string,bool,string[]))": "9698f8f3",
					"vote(address,address,bool)": "128d8711"
				}
			},
			"storageLayout": {
				"storage": [
					{
						"astId": 49,
						"contract": "src/VotingPower.sol:VotingPower",
						"label": "allowedToVote",
						"offset": 0,
						"slot": "0",
						"type": "t_mapping(t_address,t_bool)"
					},
					{
						"astId": 54,
						"contract": "src/VotingPower.sol:VotingPower",
						"label": "requirements",
						"offset": 0,
						"slot": "1",
						"type": "t_mapping(t_address,t_struct(SubmitRequirement)9_storage)"
					},
					{
						"astId": 60,
						"contract": "src/VotingPower.sol:VotingPower",
						"label": "requirementsVoted",
						"offset": 0,
						"slot": "2",
						"type": "t_mapping(t_address,t_array(t_struct(Vote)14_storage)dyn_storage)"
					},
					{
						"astId": 63,
						"contract": "src/VotingPower.sol:VotingPower",
						"label": "requirementsList",
						"offset": 0,
						"slot": "3",
						"type": "t_array(t_address)dyn_storage"
					},
					{
						"astId": 65,
						"contract": "src/VotingPower.sol:VotingPower",
						"label": "neededVoteToAllow",
						"offset": 0,
						"slot": "4",
						"type": "t_uint256"
					},
					{
						"astId": 68,
						"contract": "src/VotingPower.sol:VotingPower",
						"label": "fakeWorldCoin",
						"offset": 0,
						"slot": "5",
						"type": "t_contract(IFakeWorldCoin)36"
					},
					{
						"astId": 70,
						"contract": "src/VotingPower.sol:VotingPower",
						"label": "country",
						"offset": 0,
						"slot": "6",
						"type": "t_string_storage"
					}
				],
				"types": {
					"t_address": {
						"encoding": "inplace",
						"label": "address",
						"numberOfBytes": "20"
					},
					"t_array(t_address)dyn_storage": {
						"base": "t_address",
						"encoding": "dynamic_array",
						"label": "address[]",
						"numberOfBytes": "32"
					},
					"t_array(t_string_storage)dyn_storage": {
						"base": "t_string_storage",
						"encoding": "dynamic_array",
						"label": "string[]",
						"numberOfBytes": "32"
					},
					"t_array(t_struct(Vote)14_storage)dyn_storage": {
						"base": "t_struct(Vote)14_storage",
						"encoding": "dynamic_array",
						"label": "struct Vote[]",
						"numberOfBytes": "32"
					},
					"t_bool": {
						"encoding": "inplace",
						"label": "bool",
						"numberOfBytes": "1"
					},
					"t_contract(IFakeWorldCoin)36": {
						"encoding": "inplace",
						"label": "contract IFakeWorldCoin",
						"numberOfBytes": "20"
					},
					"t_mapping(t_address,t_array(t_struct(Vote)14_storage)dyn_storage)": {
						"encoding": "mapping",
						"key": "t_address",
						"label": "mapping(address => struct Vote[])",
						"numberOfBytes": "32",
						"value": "t_array(t_struct(Vote)14_storage)dyn_storage"
					},
					"t_mapping(t_address,t_bool)": {
						"encoding": "mapping",
						"key": "t_address",
						"label": "mapping(address => bool)",
						"numberOfBytes": "32",
						"value": "t_bool"
					},
					"t_mapping(t_address,t_struct(SubmitRequirement)9_storage)": {
						"encoding": "mapping",
						"key": "t_address",
						"label": "mapping(address => struct SubmitRequirement)",
						"numberOfBytes": "32",
						"value": "t_struct(SubmitRequirement)9_storage"
					},
					"t_string_storage": {
						"encoding": "bytes",
						"label": "string",
						"numberOfBytes": "32"
					},
					"t_struct(SubmitRequirement)9_storage": {
						"encoding": "inplace",
						"label": "struct SubmitRequirement",
						"members": [
							{
								"astId": 3,
								"contract": "src/VotingPower.sol:VotingPower",
								"label": "videoUrl",
								"offset": 0,
								"slot": "0",
								"type": "t_string_storage"
							},
							{
								"astId": 5,
								"contract": "src/VotingPower.sol:VotingPower",
								"label": "subimted",
								"offset": 0,
								"slot": "1",
								"type": "t_bool"
							},
							{
								"astId": 8,
								"contract": "src/VotingPower.sol:VotingPower",
								"label": "countries",
								"offset": 0,
								"slot": "2",
								"type": "t_array(t_string_storage)dyn_storage"
							}
						],
						"numberOfBytes": "96"
					},
					"t_struct(Vote)14_storage": {
						"encoding": "inplace",
						"label": "struct Vote",
						"members": [
							{
								"astId": 11,
								"contract": "src/VotingPower.sol:VotingPower",
								"label": "votedBy",
								"offset": 0,
								"slot": "0",
								"type": "t_address"
							},
							{
								"astId": 13,
								"contract": "src/VotingPower.sol:VotingPower",
								"label": "vote",
								"offset": 20,
								"slot": "0",
								"type": "t_bool"
							}
						],
						"numberOfBytes": "32"
					},
					"t_uint256": {
						"encoding": "inplace",
						"label": "uint256",
						"numberOfBytes": "32"
					}
				}
			},
			"userdoc": {
				"kind": "user",
				"methods": {},
				"version": 1
			}
		}
	}
}